Component: ARM Compiler 5.06 update 6 (build 750) Tool: armlink [4d35ed]

==============================================================================

Section Cross References

    main.o(i.main) refers to main.o(i.vSystemInit) for vSystemInit
    main.o(i.main) refers to main.o(i.vDelayMsForInit) for vDelayMsForInit
    main.o(i.main) refers to start_task.o(i.vCreateStartTask) for vCreateStartTask
    main.o(i.main) refers to tasks.o(i.vTaskStartScheduler) for vTaskStartScheduler
    main.o(i.vSystemInit) refers to led.o(i.vLedGpioConfig) for vLedGpioConfig
    main.o(i.vSystemInit) refers to nvic.o(i.vNvicConfig) for vNvicConfig
    main.o(i.vSystemInit) refers to uart.o(i.vUart2Config) for vUart2Config
    main.o(i.vSystemInit) refers to uart.o(i.vUart3Config) for vUart3Config
    main.o(i.vSystemInit) refers to uart.o(i.vUart4Config) for vUart4Config
    main.o(i.vSystemInit) refers to uart.o(i.vUart5Config) for vUart5Config
    main.o(i.vSystemInit) refers to can.o(i.vCan1Config) for vCan1Config
    main.o(i.vSystemInit) refers to can.o(i.vCan2Config) for vCan2Config
    main.o(i.vSystemInit) refers to tim.o(i.vTim4Config) for vTim4Config
    main.o(i.vSystemInit) refers to counter.o(i.COUNTER_Configuration) for COUNTER_Configuration
    main.o(i.vSystemInit) refers to os_tick.o(i.OS_TICK_Configuration) for OS_TICK_Configuration
    main.o(i.vSystemInit) refers to friction.o(i.vFrictionConfig) for vFrictionConfig
    main.o(i.vSystemInit) refers to laser.o(i.vLaserGpioConfig) for vLaserGpioConfig
    main.o(i.vSystemInit) refers to uart.o(i.vUart1Config) for vUart1Config
==============================================================================

Removing Unused input sections from the image.

    Removing main.o(.rev16_text), (4 bytes).
    Removing main.o(.revsh_text), (4 bytes).
    Removing stm32f4xx_it.o(.rev16_text), (4 bytes).
    Removing stm32f4xx_it.o(.revsh_text), (4 bytes).
    Removing system_stm32f4xx.o(.rev16_text), (4 bytes).
    Removing system_stm32f4xx.o(.revsh_text), (4 bytes).
    Removing system_stm32f4xx.o(i.SystemCoreClockUpdate), (192 bytes).
    Removing startup_stm32f40_41xxx.o(HEAP), (2816 bytes).
    Removing misc.o(.rev16_text), (4 bytes).
    Removing misc.o(.revsh_text), (4 bytes).
    Removing misc.o(i.NVIC_PriorityGroupConfig), (20 bytes).
    Removing misc.o(i.NVIC_SetVectorTable), (20 bytes).
    Removing misc.o(i.NVIC_SystemLPConfig), (32 bytes).
    Removing misc.o(i.SysTick_CLKSourceConfig), (40 bytes).
    Removing stm32f4xx_can.o(.rev16_text), (4 bytes).
    Removing stm32f4xx_can.o(.revsh_text), (4 bytes).
    Removing stm32f4xx_can.o(i.CAN_CancelTransmit), (48 bytes).
    Removing stm32f4xx_can.o(i.CAN_ClearFlag), (56 bytes).
==============================================================================

Image Symbol Table

    Local Symbols

    Symbol Name                              Value     Ov Type        Size  Object(Section)

    ../clib/../cmprslib/zerorunl2.c          0x00000000   Number         0  __dczerorl2.o ABSOLUTE
    ../clib/microlib/division.c              0x00000000   Number         0  uidiv.o ABSOLUTE
    ../clib/microlib/division.c              0x00000000   Number         0  uldiv.o ABSOLUTE
    ../clib/microlib/errno.c                 0x00000000   Number         0  errno.o ABSOLUTE
    ../clib/microlib/init/entry.s            0x00000000   Number         0  entry9b.o ABSOLUTE
    ../clib/microlib/init/entry.s            0x00000000   Number         0  entry7a.o ABSOLUTE
    ../clib/microlib/init/entry.s            0x00000000   Number         0  entry2.o ABSOLUTE
    ../clib/microlib/init/entry.s            0x00000000   Number         0  entry10b.o ABSOLUTE
    ../clib/microlib/init/entry.s            0x00000000   Number         0  entry11a.o ABSOLUTE
    ../clib/microlib/init/entry.s            0x00000000   Number         0  entry10a.o ABSOLUTE
    ../clib/microlib/init/entry.s            0x00000000   Number         0  entry7b.o ABSOLUTE
    ../clib/microlib/init/entry.s            0x00000000   Number         0  entry9a.o ABSOLUTE
    ../clib/microlib/init/entry.s            0x00000000   Number         0  entry.o ABSOLUTE
    ../clib/microlib/init/entry.s            0x00000000   Number         0  entry8b.o ABSOLUTE
    ../clib/microlib/init/entry.s            0x00000000   Number         0  entry8a.o ABSOLUTE
    ../clib/microlib/init/entry.s            0x00000000   Number         0  entry5.o ABSOLUTE
    ../clib/microlib/init/entry.s            0x00000000   Number         0  entry11b.o ABSOLUTE
    ../clib/microlib/longlong.c              0x00000000   Number         0  llushr.o ABSOLUTE
    ../clib/microlib/longlong.c              0x00000000   Number         0  llshl.o ABSOLUTE
    ../clib/microlib/longlong.c              0x00000000   Number         0  llsshr.o ABSOLUTE
    ../clib/microlib/printf/printf.c         0x00000000   Number         0  printf5.o ABSOLUTE
    ../clib/microlib/printf/printf.c         0x00000000   Number         0  printf4.o ABSOLUTE
    ../clib/microlib/printf/printf.c         0x00000000   Number         0  printf6.o ABSOLUTE
    ../clib/microlib/printf/printf.c         0x00000000   Number         0  printf8.o ABSOLUTE
    ../clib/microlib/printf/printf.c         0x00000000   Number         0  printf3.o ABSOLUTE
    ../clib/microlib/printf/printf.c         0x00000000   Number         0  printf2.o ABSOLUTE
    ../clib/microlib/printf/printf.c         0x00000000   Number         0  printf7.o ABSOLUTE
    ../clib/microlib/printf/printf.c         0x00000000   Number         0  printf1.o ABSOLUTE
    ../clib/microlib/printf/printf.c         0x00000000   Number         0  printfb.o ABSOLUTE
    ../clib/microlib/printf/printf.c         0x00000000   Number         0  printf0.o ABSOLUTE
    ../clib/microlib/printf/printf.c         0x00000000   Number         0  printfa.o ABSOLUTE
    ../clib/microlib/printf/stubs.s          0x00000000   Number         0  stubs.o ABSOLUTE
    ../clib/microlib/stdio/streams.c         0x00000000   Number         0  stdout.o ABSOLUTE
    ../clib/microlib/string/memcpy.c         0x00000000   Number         0  memcpya.o ABSOLUTE
    ../clib/microlib/string/memcpy.c         0x00000000   Number         0  memcpyb.o ABSOLUTE
    ../clib/microlib/string/memset.c         0x00000000   Number         0  memseta.o ABSOLUTE
    ../clib/microlib/string/strcpy.c         0x00000000   Number         0  strcpy.o ABSOLUTE
    ../clib/microlib/string/strlen.c         0x00000000   Number         0  strlen.o ABSOLUTE
    ../clib/microlib/stubs.s                 0x00000000   Number         0  iusefp.o ABSOLUTE
    ../fplib/microlib/d2f.c                  0x00000000   Number         0  d2f.o ABSOLUTE
    ../fplib/microlib/f2d.c                  0x00000000   Number         0  f2d.o ABSOLUTE
    ../fplib/microlib/fpadd.c                0x00000000   Number         0  dadd.o ABSOLUTE
    ../fplib/microlib/fpdiv.c                0x00000000   Number         0  ddiv.o ABSOLUTE
    ../fplib/microlib/fpepilogue.c           0x00000000   Number         0  fepilogue.o ABSOLUTE
    ../fplib/microlib/fpepilogue.c           0x00000000   Number         0  depilogue.o ABSOLUTE
    ../fplib/microlib/fpfix.c                0x00000000   Number         0  dfixi.o ABSOLUTE
    ../fplib/microlib/fpfix.c                0x00000000   Number         0  dfixul.o ABSOLUTE
    ../fplib/microlib/fpfix.c                0x00000000   Number         0  dfixui.o ABSOLUTE
    ../fplib/microlib/fpflt.c                0x00000000   Number         0  dflti.o ABSOLUTE
    ../fplib/microlib/fpflt.c                0x00000000   Number         0  dfltui.o ABSOLUTE
    ../fplib/microlib/fpmul.c                0x00000000   Number         0  dmul.o ABSOLUTE
    ../fplib/microlib/fpneg.c                0x00000000   Number         0  dneg.o ABSOLUTE
    ../mathlib/cos_i.c                       0x00000000   Number         0  cos_i.o ABSOLUTE
    ../mathlib/dunder.c                      0x00000000   Number         0  dunder.o ABSOLUTE
    ../mathlib/fabs.c                        0x00000000   Number         0  fabs.o ABSOLUTE
    ../mathlib/fpclassify.c                  0x00000000   Number         0  fpclassify.o ABSOLUTE
    ../mathlib/poly.c                        0x00000000   Number         0  poly.o ABSOLUTE
    ../mathlib/rred.c                        0x00000000   Number         0  rred.o ABSOLUTE
    ../mathlib/sin.c                         0x00000000   Number         0  sin.o ABSOLUTE
    ../mathlib/sin.c                         0x00000000   Number         0  sin_x.o ABSOLUTE
    ../mathlib/sin_i.c                       0x00000000   Number         0  sin_i.o ABSOLUTE
    ../mathlib/sin_i.c                       0x00000000   Number         0  sin_i_x.o ABSOLUTE
    ..\CORE\startup_stm32f40_41xxx.s         0x00000000   Number         0  startup_stm32f40_41xxx.o ABSOLUTE
    ..\FWLIB\src\misc.c                      0x00000000   Number         0  misc.o ABSOLUTE
    ..\FWLIB\src\stm32f4xx_can.c             0x00000000   Number         0  stm32f4xx_can.o ABSOLUTE
    ..\FWLIB\src\stm32f4xx_crc.c             0x00000000   Number         0  stm32f4xx_crc.o ABSOLUTE
    ..\FWLIB\src\stm32f4xx_dbgmcu.c          0x00000000   Number         0  stm32f4xx_dbgmcu.o ABSOLUTE
    ..\FWLIB\src\stm32f4xx_dma.c             0x00000000   Number         0  stm32f4xx_dma.o ABSOLUTE
    ..\FWLIB\src\stm32f4xx_exti.c            0x00000000   Number         0  stm32f4xx_exti.o ABSOLUTE
    ..\FWLIB\src\stm32f4xx_flash.c           0x00000000   Number         0  stm32f4xx_flash.o ABSOLUTE
    ..\FWLIB\src\stm32f4xx_gpio.c            0x00000000   Number         0  stm32f4xx_gpio.o ABSOLUTE
    ..\FWLIB\src\stm32f4xx_i2c.c             0x00000000   Number         0  stm32f4xx_i2c.o ABSOLUTE
    ..\FWLIB\src\stm32f4xx_iwdg.c            0x00000000   Number         0  stm32f4xx_iwdg.o ABSOLUTE
    ..\FWLIB\src\stm32f4xx_rcc.c             0x00000000   Number         0  stm32f4xx_rcc.o ABSOLUTE
    ..\FWLIB\src\stm32f4xx_sdio.c            0x00000000   Number         0  stm32f4xx_sdio.o ABSOLUTE
    ..\FWLIB\src\stm32f4xx_syscfg.c          0x00000000   Number         0  stm32f4xx_syscfg.o ABSOLUTE
    ..\FWLIB\src\stm32f4xx_tim.c             0x00000000   Number         0  stm32f4xx_tim.o ABSOLUTE
    ..\FWLIB\src\stm32f4xx_usart.c           0x00000000   Number         0  stm32f4xx_usart.o ABSOLUTE
    ..\FreeRTOS\croutine.c                   0x00000000   Number         0  croutine.o ABSOLUTE
    ..\FreeRTOS\event_groups.c               0x00000000   Number         0  event_groups.o ABSOLUTE
    ..\FreeRTOS\list.c                       0x00000000   Number         0  list.o ABSOLUTE
    ..\FreeRTOS\portable\MemMang\heap_4.c    0x00000000   Number         0  heap_4.o ABSOLUTE
    ..\FreeRTOS\portable\RVDS\ARM_CM4F\port.c 0x00000000   Number         0  port.o ABSOLUTE
    ..\FreeRTOS\queue.c                      0x00000000   Number         0  queue.o ABSOLUTE
    ..\FreeRTOS\tasks.c                      0x00000000   Number         0  tasks.o ABSOLUTE
    ..\FreeRTOS\timers.c                     0x00000000   Number         0  timers.o ABSOLUTE
    ..\MYLIB\FeedForward.c                   0x00000000   Number         0  feedforward.o ABSOLUTE
    ..\MYLIB\can.c                           0x00000000   Number         0  can.o ABSOLUTE
    ..\MYLIB\communicate.c                   0x00000000   Number         0  communicate.o ABSOLUTE
    ..\MYLIB\crc.c                           0x00000000   Number         0  crc.o ABSOLUTE
    ..\MYLIB\friction.c                      0x00000000   Number         0  friction.o ABSOLUTE
    ..\MYLIB\iwdg.c                          0x00000000   Number         0  iwdg.o ABSOLUTE
    ..\MYLIB\laser.c                         0x00000000   Number         0  laser.o ABSOLUTE
    ..\MYLIB\led.c                           0x00000000   Number         0  led.o ABSOLUTE
    ..\MYLIB\motor.c                         0x00000000   Number         0  motor.o ABSOLUTE
    ..\MYLIB\nvic.c                          0x00000000   Number         0  nvic.o ABSOLUTE
    ..\MYLIB\pid.c                           0x00000000   Number         0  pid.o ABSOLUTE
    ..\MYLIB\tim.c                           0x00000000   Number         0  tim.o ABSOLUTE
    ..\MYLIB\uart.c                          0x00000000   Number         0  uart.o ABSOLUTE
    ..\MYLIB\zerocheck.c                     0x00000000   Number         0  zerocheck.o ABSOLUTE
    ..\MYTASK\ActionControl_task.c           0x00000000   Number         0  actioncontrol_task.o ABSOLUTE
    ..\MYTASK\CPU_Task.c                     0x00000000   Number         0  cpu_task.o ABSOLUTE
    ..\MYTASK\GraphicsSendTask.c             0x00000000   Number         0  graphicssendtask.o ABSOLUTE
    ..\MYTASK\debug_task.c                   0x00000000   Number         0  debug_task.o ABSOLUTE
    ..\MYTASK\gimbal_task.c                  0x00000000   Number         0  gimbal_task.o ABSOLUTE
    ..\MYTASK\judge_task.c                   0x00000000   Number         0  judge_task.o ABSOLUTE
    ..\MYTASK\selfcheck_task.c               0x00000000   Number         0  selfcheck_task.o ABSOLUTE
    ..\MYTASK\shoot_task.c                   0x00000000   Number         0  shoot_task.o ABSOLUTE
    ..\MYTASK\start_task.c                   0x00000000   Number         0  start_task.o ABSOLUTE
    ..\SEGGER_RTT_V784\RTT\SEGGER_RTT.c      0x00000000   Number         0  segger_rtt.o ABSOLUTE
    ..\SEGGER_RTT_V784\RTT\SEGGER_RTT_printf.c 0x00000000   Number         0  segger_rtt_printf.o ABSOLUTE
    ..\TSET_FUNC\counter.c                   0x00000000   Number         0  counter.o ABSOLUTE
    ..\TSET_FUNC\debug.c                     0x00000000   Number         0  debug.o ABSOLUTE
    ..\TSET_FUNC\os_tick.c                   0x00000000   Number         0  os_tick.o ABSOLUTE
    ..\TSET_FUNC\tools.c                     0x00000000   Number         0  tools.o ABSOLUTE
    ..\\FWLIB\\src\\misc.c                   0x00000000   Number         0  misc.o ABSOLUTE
    ..\\FWLIB\\src\\stm32f4xx_can.c          0x00000000   Number         0  stm32f4xx_can.o ABSOLUTE
    ..\\FWLIB\\src\\stm32f4xx_crc.c          0x00000000   Number         0  stm32f4xx_crc.o ABSOLUTE
    ..\\FWLIB\\src\\stm32f4xx_dbgmcu.c       0x00000000   Number         0  stm32f4xx_dbgmcu.o ABSOLUTE
    ..\\FWLIB\\src\\stm32f4xx_dma.c          0x00000000   Number         0  stm32f4xx_dma.o ABSOLUTE
    ..\\FWLIB\\src\\stm32f4xx_exti.c         0x00000000   Number         0  stm32f4xx_exti.o ABSOLUTE
    ..\\FWLIB\\src\\stm32f4xx_flash.c        0x00000000   Number         0  stm32f4xx_flash.o ABSOLUTE
    ..\\FWLIB\\src\\stm32f4xx_gpio.c         0x00000000   Number         0  stm32f4xx_gpio.o ABSOLUTE
    ..\\FWLIB\\src\\stm32f4xx_i2c.c          0x00000000   Number         0  stm32f4xx_i2c.o ABSOLUTE
    ..\\FWLIB\\src\\stm32f4xx_iwdg.c         0x00000000   Number         0  stm32f4xx_iwdg.o ABSOLUTE
    ..\\FWLIB\\src\\stm32f4xx_rcc.c          0x00000000   Number         0  stm32f4xx_rcc.o ABSOLUTE
    ..\\FWLIB\\src\\stm32f4xx_sdio.c         0x00000000   Number         0  stm32f4xx_sdio.o ABSOLUTE
    ..\\FWLIB\\src\\stm32f4xx_syscfg.c       0x00000000   Number         0  stm32f4xx_syscfg.o ABSOLUTE
    ..\\FWLIB\\src\\stm32f4xx_tim.c          0x00000000   Number         0  stm32f4xx_tim.o ABSOLUTE
    ..\\FWLIB\\src\\stm32f4xx_usart.c        0x00000000   Number         0  stm32f4xx_usart.o ABSOLUTE
    ..\\FreeRTOS\\portable\\RVDS\\ARM_CM4F\\port.c 0x00000000   Number         0  port.o ABSOLUTE
    ..\\MYLIB\\FeedForward.c                 0x00000000   Number         0  feedforward.o ABSOLUTE
    ..\\MYLIB\\can.c                         0x00000000   Number         0  can.o ABSOLUTE
    ..\\MYLIB\\communicate.c                 0x00000000   Number         0  communicate.o ABSOLUTE
    ..\\MYLIB\\crc.c                         0x00000000   Number         0  crc.o ABSOLUTE
    ..\\MYLIB\\friction.c                    0x00000000   Number         0  friction.o ABSOLUTE
    ..\\MYLIB\\iwdg.c                        0x00000000   Number         0  iwdg.o ABSOLUTE
    ..\\MYLIB\\laser.c                       0x00000000   Number         0  laser.o ABSOLUTE
    ..\\MYLIB\\led.c                         0x00000000   Number         0  led.o ABSOLUTE
    ..\\MYLIB\\motor.c                       0x00000000   Number         0  motor.o ABSOLUTE
    ..\\MYLIB\\nvic.c                        0x00000000   Number         0  nvic.o ABSOLUTE
    ..\\MYLIB\\pid.c                         0x00000000   Number         0  pid.o ABSOLUTE
    ..\\MYLIB\\tim.c                         0x00000000   Number         0  tim.o ABSOLUTE
    ..\\MYLIB\\uart.c                        0x00000000   Number         0  uart.o ABSOLUTE
    ..\\MYLIB\\zerocheck.c                   0x00000000   Number         0  zerocheck.o ABSOLUTE
    ..\\MYTASK\\ActionControl_task.c         0x00000000   Number         0  actioncontrol_task.o ABSOLUTE
    ..\\MYTASK\\CPU_Task.c                   0x00000000   Number         0  cpu_task.o ABSOLUTE
    ..\\MYTASK\\GraphicsSendTask.c           0x00000000   Number         0  graphicssendtask.o ABSOLUTE
    ..\\MYTASK\\debug_task.c                 0x00000000   Number         0  debug_task.o ABSOLUTE
    ..\\MYTASK\\gimbal_task.c                0x00000000   Number         0  gimbal_task.o ABSOLUTE
    ..\\MYTASK\\judge_task.c                 0x00000000   Number         0  judge_task.o ABSOLUTE
    ..\\MYTASK\\selfcheck_task.c             0x00000000   Number         0  selfcheck_task.o ABSOLUTE
    ..\\MYTASK\\shoot_task.c                 0x00000000   Number         0  shoot_task.o ABSOLUTE
    ..\\MYTASK\\start_task.c                 0x00000000   Number         0  start_task.o ABSOLUTE
    ..\\TSET_FUNC\\counter.c                 0x00000000   Number         0  counter.o ABSOLUTE
    ..\\TSET_FUNC\\debug.c                   0x00000000   Number         0  debug.o ABSOLUTE
    ..\\TSET_FUNC\\os_tick.c                 0x00000000   Number         0  os_tick.o ABSOLUTE
    ..\\TSET_FUNC\\tools.c                   0x00000000   Number         0  tools.o ABSOLUTE
    SystemConfig\\stm32f4xx_it.c             0x00000000   Number         0  stm32f4xx_it.o ABSOLUTE
    SystemConfig\\system_stm32f4xx.c         0x00000000   Number         0  system_stm32f4xx.o ABSOLUTE
    SystemConfig\stm32f4xx_it.c              0x00000000   Number         0  stm32f4xx_it.o ABSOLUTE
    SystemConfig\system_stm32f4xx.c          0x00000000   Number         0  system_stm32f4xx.o ABSOLUTE
    cdrcmple.s                               0x00000000   Number         0  cdrcmple.o ABSOLUTE
    dc.s                                     0x00000000   Number         0  dc.o ABSOLUTE
    handlers.s                               0x00000000   Number         0  handlers.o ABSOLUTE
    init.s                                   0x00000000   Number         0  init.o ABSOLUTE
    main.c                                   0x00000000   Number         0  main.o ABSOLUTE
    main.c                                   0x00000000   Number         0  main.o ABSOLUTE
    RESET                                    0x08000000   Section      392  startup_stm32f40_41xxx.o(RESET)
    .ARM.Collect$$$$00000000                 0x08000188   Section        0  entry.o(.ARM.Collect$$$$00000000)
    .ARM.Collect$$$$00000001                 0x08000188   Section        4  entry2.o(.ARM.Collect$$$$00000001)
    .ARM.Collect$$$$00000004                 0x0800018c   Section        4  entry5.o(.ARM.Collect$$$$00000004)
    .ARM.Collect$$$$00000008                 0x08000190   Section        0  entry7b.o(.ARM.Collect$$$$00000008)
    .ARM.Collect$$$$0000000A                 0x08000190   Section        0  entry8b.o(.ARM.Collect$$$$0000000A)
    .ARM.Collect$$$$0000000B                 0x08000190   Section        8  entry9a.o(.ARM.Collect$$$$0000000B)
    .ARM.Collect$$$$0000000D                 0x08000198   Section        0  entry10a.o(.ARM.Collect$$$$0000000D)
    .ARM.Collect$$$$0000000F                 0x08000198   Section        0  entry11a.o(.ARM.Collect$$$$0000000F)
    .ARM.Collect$$$$00002712                 0x08000198   Section        4  entry2.o(.ARM.Collect$$$$00002712)
    __lit__00000000                          0x08000198   Data           4  entry2.o(.ARM.Collect$$$$00002712)
    .emb_text                                0x0800019c   Section      182  port.o(.emb_text)
    $v0                                      0x0800019c   Number         0  port.o(.emb_text)
    .text                                    0x08000254   Section       36  startup_stm32f40_41xxx.o(.text)
    $v0                                      0x08000254   Number         0  startup_stm32f40_41xxx.o(.text)
    .text                                    0x08000278   Section        0  memcpya.o(.text)
    .text                                    0x0800029c   Section        0  memseta.o(.text)
    .text                                    0x080002c0   Section        0  dadd.o(.text)
    .text                                    0x0800040e   Section        0  dmul.o(.text)
    .text                                    0x080004f2   Section        0  dfltui.o(.text)
    .text                                    0x0800050c   Section        0  dfixui.o(.text)
    .text                                    0x0800053e   Section        0  f2d.o(.text)
    .text                                    0x08000564   Section        0  d2f.o(.text)
    .text                                    0x0800059c   Section        0  llshl.o(.text)
    .text                                    0x080005ba   Section        0  llushr.o(.text)
    .text                                    0x080005da   Section        0  llsshr.o(.text)
    .text                                    0x080005fe   Section        0  fepilogue.o(.text)
    .text                                    0x080005fe   Section        0  iusefp.o(.text)
    .text                                    0x0800066c   Section        0  depilogue.o(.text)
    .text                                    0x08000728   Section       36  init.o(.text)
    .text                                    0x0800074c   Section        0  __dczerorl2.o(.text)
    i.ActionControl_task                     0x080007a4   Section        0  actioncontrol_task.o(i.ActionControl_task)
    i.AppReceive                             0x080007e4   Section        0  communicate.o(i.AppReceive)
    i.Append_CRC16_Check_Sum                 0x08000804   Section        0  crc.o(i.Append_CRC16_Check_Sum)
    i.Append_CRC8_Check_Sum                  0x08000834   Section        0  crc.o(i.Append_CRC8_Check_Sum)
    i.Auto_gimbal                            0x08000858   Section        0  gimbal_task.o(i.Auto_gimbal)
    i.BLUE_OFF                               0x080009a8   Section        0  led.o(i.BLUE_OFF)
    BLUE_OFF                                 0x080009a9   Thumb Code    14  led.o(i.BLUE_OFF)
    i.BLUE_ON                                0x080009bc   Section        0  led.o(i.BLUE_ON)
    BLUE_ON                                  0x080009bd   Thumb Code    14  led.o(i.BLUE_ON)
    i.BLUE_TOGGLE                            0x080009d0   Section        0  led.o(i.BLUE_TOGGLE)
    BLUE_TOGGLE                              0x080009d1   Thumb Code    14  led.o(i.BLUE_TOGGLE)
    i.BusFault_Handler                       0x080009e4   Section        0  stm32f4xx_it.o(i.BusFault_Handler)
    i.CAN1_RX0_IRQHandler                    0x080009e8   Section        0  can.o(i.CAN1_RX0_IRQHandler)
    i.CAN1_RX1_IRQHandler                    0x08000a1c   Section        0  can.o(i.CAN1_RX1_IRQHandler)
    i.CAN1_TX_IRQHandler                     0x08000a50   Section        0  can.o(i.CAN1_TX_IRQHandler)
    i.CAN2_RX0_IRQHandler                    0x08000a6c   Section        0  can.o(i.CAN2_RX0_IRQHandler)
    i.CAN2_RX1_IRQHandler                    0x08000aa0   Section        0  can.o(i.CAN2_RX1_IRQHandler)
    i.CAN2_TX_IRQHandler                     0x08000ad4   Section        0  can.o(i.CAN2_TX_IRQHandler)
    i.CAN_ClearITPendingBit                  0x08000af0   Section        0  stm32f4xx_can.o(i.CAN_ClearITPendingBit)
    i.CAN_DeInit                             0x08000b98   Section        0  stm32f4xx_can.o(i.CAN_DeInit)
    i.CAN_FilterInit                         0x08000bd0   Section        0  stm32f4xx_can.o(i.CAN_FilterInit)
    i.CAN_GetITStatus                        0x08000cd8   Section        0  stm32f4xx_can.o(i.CAN_GetITStatus)
    i.CAN_ITConfig                           0x08000df8   Section        0  stm32f4xx_can.o(i.CAN_ITConfig)
    i.CAN_Init                               0x08000e0a   Section        0  stm32f4xx_can.o(i.CAN_Init)
    i.CAN_Receive                            0x08000f1e   Section        0  stm32f4xx_can.o(i.CAN_Receive)
    i.CAN_StructInit                         0x0800100e   Section        0  stm32f4xx_can.o(i.CAN_StructInit)
    i.CAN_Transmit                           0x0800102e   Section        0  stm32f4xx_can.o(i.CAN_Transmit)
    i.COUNTER_Configuration                  0x08001154   Section        0  counter.o(i.COUNTER_Configuration)
    i.Can1Receive0                           0x080011a8   Section        0  communicate.o(i.Can1Receive0)
    i.Can1Receive1                           0x08001288   Section        0  communicate.o(i.Can1Receive1)
    i.Can2Receive0                           0x080013d0   Section        0  communicate.o(i.Can2Receive0)
    i.Can2Receive1                           0x080013d8   Section        0  communicate.o(i.Can2Receive1)
    i.ChangeMode                             0x08001448   Section        0  actioncontrol_task.o(i.ChangeMode)
    i.Change_Sensitivity                     0x08001540   Section        0  actioncontrol_task.o(i.Change_Sensitivity)
    i.CharGraphic_Draw                       0x08001668   Section        0  graphicssendtask.o(i.CharGraphic_Draw)
    i.Char_Draw                              0x0800172c   Section        0  graphicssendtask.o(i.Char_Draw)
    i.Char_Init                              0x080017a4   Section        0  graphicssendtask.o(i.Char_Init)
    i.CheckITStatus                          0x0800189c   Section        0  stm32f4xx_can.o(i.CheckITStatus)
    CheckITStatus                            0x0800189d   Thumb Code    18  stm32f4xx_can.o(i.CheckITStatus)
    i.ConfigureTimeForRunTimeStatus          0x080018b0   Section        0  timers.o(i.ConfigureTimeForRunTimeStatus)
    i.DBGMCU_Config                          0x080018c4   Section        0  stm32f4xx_dbgmcu.o(i.DBGMCU_Config)
    i.DMA1_Stream0_IRQHandler                0x080018e4   Section        0  uart.o(i.DMA1_Stream0_IRQHandler)
    i.DMA1_Stream2_IRQHandler                0x08001920   Section        0  uart.o(i.DMA1_Stream2_IRQHandler)
    i.DMA1_Stream4_IRQHandler                0x080019bc   Section        0  uart.o(i.DMA1_Stream4_IRQHandler)
    i.DMA1_Stream7_IRQHandler                0x080019f8   Section        0  uart.o(i.DMA1_Stream7_IRQHandler)
    i.DMA2_Stream1_IRQHandler                0x08001a30   Section        0  friction.o(i.DMA2_Stream1_IRQHandler)
    i.DMA2_Stream2_IRQHandler                0x08001a9c   Section        0  uart.o(i.DMA2_Stream2_IRQHandler)
    i.DMA2_Stream7_IRQHandler                0x08001ac8   Section        0  uart.o(i.DMA2_Stream7_IRQHandler)
    i.DMA_ClearFlag                          0x08001b04   Section        0  stm32f4xx_dma.o(i.DMA_ClearFlag)
    i.DMA_ClearITPendingBit                  0x08001b38   Section        0  stm32f4xx_dma.o(i.DMA_ClearITPendingBit)
    i.DMA_Cmd                                0x08001b6c   Section        0  stm32f4xx_dma.o(i.DMA_Cmd)
    i.DMA_DeInit                             0x08001b84   Section        0  stm32f4xx_dma.o(i.DMA_DeInit)
    i.DMA_GetCurrDataCounter                 0x08001cdc   Section        0  stm32f4xx_dma.o(i.DMA_GetCurrDataCounter)
    i.DMA_GetFlagStatus                      0x08001ce4   Section        0  stm32f4xx_dma.o(i.DMA_GetFlagStatus)
    i.DMA_GetITStatus                        0x08001d28   Section        0  stm32f4xx_dma.o(i.DMA_GetITStatus)
    i.DMA_ITConfig                           0x08001d8c   Section        0  stm32f4xx_dma.o(i.DMA_ITConfig)
    i.DMA_Init                               0x08001dc8   Section        0  stm32f4xx_dma.o(i.DMA_Init)
    i.DMA_SetCurrDataCounter                 0x08001e20   Section        0  stm32f4xx_dma.o(i.DMA_SetCurrDataCounter)
    i.DebugMon_Handler                       0x08001e24   Section        0  stm32f4xx_it.o(i.DebugMon_Handler)
    i.FeedForwardInit                        0x08001e28   Section        0  feedforward.o(i.FeedForwardInit)
    i.FeedForward_Cal                        0x08001f20   Section        0  feedforward.o(i.FeedForward_Cal)
    i.FloatData_Draw                         0x08001fb0   Section        0  graphicssendtask.o(i.FloatData_Draw)
    i.FrictionMode_Change                    0x080020b8   Section        0  graphicssendtask.o(i.FrictionMode_Change)
    i.Fuzzy_PID_struct_init                  0x08002138   Section        0  pid.o(i.Fuzzy_PID_struct_init)
    i.Fuzzy_pid_param_init                   0x080021dc   Section        0  pid.o(i.Fuzzy_pid_param_init)
    Fuzzy_pid_param_init                     0x080021dd   Thumb Code    82  pid.o(i.Fuzzy_pid_param_init)
    i.Fuzzy_pid_reset                        0x08002230   Section        0  pid.o(i.Fuzzy_pid_reset)
    Fuzzy_pid_reset                          0x08002231   Thumb Code    66  pid.o(i.Fuzzy_pid_reset)
    i.GM6020_Send_can1                       0x08002278   Section        0  motor.o(i.GM6020_Send_can1)
    i.GM6020_control                         0x0800232c   Section        0  motor.o(i.GM6020_control)
    i.GPIO_Init                              0x080027c0   Section        0  stm32f4xx_gpio.o(i.GPIO_Init)
    i.GPIO_PinAFConfig                       0x08002850   Section        0  stm32f4xx_gpio.o(i.GPIO_PinAFConfig)
    i.GPIO_ResetBits                         0x08002896   Section        0  stm32f4xx_gpio.o(i.GPIO_ResetBits)
    i.GPIO_SetBits                           0x0800289a   Section        0  stm32f4xx_gpio.o(i.GPIO_SetBits)
    i.GPIO_ToggleBits                        0x0800289e   Section        0  stm32f4xx_gpio.o(i.GPIO_ToggleBits)
    i.Get_CRC16_Check_Sum                    0x080028a8   Section        0  crc.o(i.Get_CRC16_Check_Sum)
    i.Get_CRC8_Check_Sum                     0x080028dc   Section        0  crc.o(i.Get_CRC8_Check_Sum)
    i.Get_ZeroCheck_Value_Interface          0x08002900   Section        0  zerocheck.o(i.Get_ZeroCheck_Value_Interface)
    i.GimbalMode_Change                      0x08002914   Section        0  graphicssendtask.o(i.GimbalMode_Change)
    i.GraphicSendtask                        0x080029f4   Section        0  graphicssendtask.o(i.GraphicSendtask)
    i.HardFault_Handler                      0x08002aac   Section        0  stm32f4xx_it.o(i.HardFault_Handler)
    i.IMU_Control_Limit                      0x08002ab0   Section        0  gimbal_task.o(i.IMU_Control_Limit)
    i.IWDG_Config                            0x08002b60   Section        0  iwdg.o(i.IWDG_Config)
    i.IWDG_Enable                            0x08002b84   Section        0  stm32f4xx_iwdg.o(i.IWDG_Enable)
    i.IWDG_Feed                              0x08002b94   Section        0  iwdg.o(i.IWDG_Feed)
    i.IWDG_ReloadCounter                     0x08002b9c   Section        0  stm32f4xx_iwdg.o(i.IWDG_ReloadCounter)
    i.IWDG_SetPrescaler                      0x08002bac   Section        0  stm32f4xx_iwdg.o(i.IWDG_SetPrescaler)
    i.IWDG_SetReload                         0x08002bb8   Section        0  stm32f4xx_iwdg.o(i.IWDG_SetReload)
    i.IWDG_WriteAccessCmd                    0x08002bc4   Section        0  stm32f4xx_iwdg.o(i.IWDG_WriteAccessCmd)
    i.ImugimbalTask                          0x08002bd0   Section        0  gimbal_task.o(i.ImugimbalTask)
    i.JudgeReceive                           0x08002d40   Section        0  communicate.o(i.JudgeReceive)
    i.JudgeTask                              0x0800305c   Section        0  judge_task.o(i.JudgeTask)
    i.Line_Draw                              0x0800306c   Section        0  graphicssendtask.o(i.Line_Draw)
    i.Lost_gimbal                            0x08003110   Section        0  gimbal_task.o(i.Lost_gimbal)
    i.M2006_Send_Can1                        0x08003218   Section        0  motor.o(i.M2006_Send_Can1)
    i.M2006_control                          0x08003310   Section        0  motor.o(i.M2006_control)
    i.MemManage_Handler                      0x08003458   Section        0  stm32f4xx_it.o(i.MemManage_Handler)
    i.NMI_Handler                            0x0800345c   Section        0  stm32f4xx_it.o(i.NMI_Handler)
    i.NVIC_Init                              0x08003460   Section        0  misc.o(i.NVIC_Init)
    i.OS_TICK_Configuration                  0x080034d8   Section        0  os_tick.o(i.OS_TICK_Configuration)
    i.PCReceive                              0x08003544   Section        0  communicate.o(i.PCReceive)
    i.PCSend                                 0x080035c0   Section        0  communicate.o(i.PCSend)
    i.PC_gimbal                              0x080036bc   Section        0  gimbal_task.o(i.PC_gimbal)
    i.PID_struct_init                        0x08003ab4   Section        0  pid.o(i.PID_struct_init)
    i.PitchUI_Change                         0x08003b14   Section        0  graphicssendtask.o(i.PitchUI_Change)
    i.Plane_ID_Init                          0x08003b84   Section        0  gimbal_task.o(i.Plane_ID_Init)
    Plane_ID_Init                            0x08003b85   Thumb Code    46  gimbal_task.o(i.Plane_ID_Init)
    i.Plane_ID_Shoot_Config                  0x08003bcc   Section        0  shoot_task.o(i.Plane_ID_Shoot_Config)
    Plane_ID_Shoot_Config                    0x08003bcd   Thumb Code    22  shoot_task.o(i.Plane_ID_Shoot_Config)
    i.RCC_AHB1PeriphClockCmd                 0x08003bf0   Section        0  stm32f4xx_rcc.o(i.RCC_AHB1PeriphClockCmd)
    i.RCC_APB1PeriphClockCmd                 0x08003c10   Section        0  stm32f4xx_rcc.o(i.RCC_APB1PeriphClockCmd)
    i.RCC_APB1PeriphResetCmd                 0x08003c30   Section        0  stm32f4xx_rcc.o(i.RCC_APB1PeriphResetCmd)
    i.RCC_APB2PeriphClockCmd                 0x08003c50   Section        0  stm32f4xx_rcc.o(i.RCC_APB2PeriphClockCmd)
    i.RCC_GetClocksFreq                      0x08003c70   Section        0  stm32f4xx_rcc.o(i.RCC_GetClocksFreq)
    i.RC_gimbal                              0x08003d58   Section        0  gimbal_task.o(i.RC_gimbal)
    i.RED_OFF                                0x08004054   Section        0  led.o(i.RED_OFF)
    RED_OFF                                  0x08004055   Thumb Code    14  led.o(i.RED_OFF)
    i.RED_ON                                 0x08004068   Section        0  led.o(i.RED_ON)
    RED_ON                                   0x08004069   Thumb Code    14  led.o(i.RED_ON)
    i.RemoteReceive                          0x0800407c   Section        0  communicate.o(i.RemoteReceive)
    i.SelfcheckTask                          0x08004244   Section        0  selfcheck_task.o(i.SelfcheckTask)
    i.Send_UIPack                            0x080042a4   Section        0  graphicssendtask.o(i.Send_UIPack)
    i.Send_toReferee                         0x080042f0   Section        0  graphicssendtask.o(i.Send_toReferee)
    i.SetSysClock                            0x08004390   Section        0  system_stm32f4xx.o(i.SetSysClock)
    SetSysClock                              0x08004391   Thumb Code   220  system_stm32f4xx.o(i.SetSysClock)
    i.ShootLines_Init                        0x0800447c   Section        0  graphicssendtask.o(i.ShootLines_Init)
    i.ShootTask                              0x08004a44   Section        0  shoot_task.o(i.ShootTask)
    i.StartTask                              0x08004eac   Section        0  start_task.o(i.StartTask)
    i.SysTick_Handler                        0x08004fc4   Section        0  port.o(i.SysTick_Handler)
    i.SystemInit                             0x08004ff8   Section        0  system_stm32f4xx.o(i.SystemInit)
    i.TIM3_IRQHandler                        0x08005060   Section        0  tim.o(i.TIM3_IRQHandler)
    i.TIM4_IRQHandler                        0x08005070   Section        0  tim.o(i.TIM4_IRQHandler)
    i.TIM7_IRQHandler                        0x08005318   Section        0  os_tick.o(i.TIM7_IRQHandler)
    i.TIM_ClearFlag                          0x08005340   Section        0  stm32f4xx_tim.o(i.TIM_ClearFlag)
    i.TIM_ClearITPendingBit                  0x08005346   Section        0  stm32f4xx_tim.o(i.TIM_ClearITPendingBit)
    i.TIM_Cmd                                0x0800534c   Section        0  stm32f4xx_tim.o(i.TIM_Cmd)
    i.TIM_CtrlPWMOutputs                     0x08005364   Section        0  stm32f4xx_tim.o(i.TIM_CtrlPWMOutputs)
    i.TIM_DMACmd                             0x08005382   Section        0  stm32f4xx_tim.o(i.TIM_DMACmd)
    i.TIM_GetITStatus                        0x08005394   Section        0  stm32f4xx_tim.o(i.TIM_GetITStatus)
    i.TIM_ITConfig                           0x080053b6   Section        0  stm32f4xx_tim.o(i.TIM_ITConfig)
    i.TIM_OC1Init                            0x080053c8   Section        0  stm32f4xx_tim.o(i.TIM_OC1Init)
    i.TIM_OC2Init                            0x08005444   Section        0  stm32f4xx_tim.o(i.TIM_OC2Init)
    i.TIM_SetCompare1                        0x080054e8   Section        0  stm32f4xx_tim.o(i.TIM_SetCompare1)
    i.TIM_SetCompare2                        0x080054ec   Section        0  stm32f4xx_tim.o(i.TIM_SetCompare2)
    i.TIM_TimeBaseInit                       0x080054f0   Section        0  stm32f4xx_tim.o(i.TIM_TimeBaseInit)
    i.UART4_IRQHandler                       0x08005574   Section        0  uart.o(i.UART4_IRQHandler)
    i.UART5_IRQHandler                       0x08005594   Section        0  uart.o(i.UART5_IRQHandler)
    i.UI_Distance_Change                     0x080055b0   Section        0  graphicssendtask.o(i.UI_Distance_Change)
    i.UI_Distance_Init                       0x080057b0   Section        0  graphicssendtask.o(i.UI_Distance_Init)
    i.USART1_IRQHandler                      0x080057f8   Section        0  uart.o(i.USART1_IRQHandler)
    i.USART3_IRQHandler                      0x08005814   Section        0  uart.o(i.USART3_IRQHandler)
    i.USART_Cmd                              0x08005874   Section        0  stm32f4xx_usart.o(i.USART_Cmd)
    i.USART_DMACmd                           0x0800588c   Section        0  stm32f4xx_usart.o(i.USART_DMACmd)
    i.USART_GetITStatus                      0x0800589e   Section        0  stm32f4xx_usart.o(i.USART_GetITStatus)
    i.USART_ITConfig                         0x080058f2   Section        0  stm32f4xx_usart.o(i.USART_ITConfig)
    i.USART_Init                             0x0800593c   Section        0  stm32f4xx_usart.o(i.USART_Init)
    i.USART_SendData                         0x08005a10   Section        0  stm32f4xx_usart.o(i.USART_SendData)
    i.UsageFault_Handler                     0x08005a18   Section        0  stm32f4xx_it.o(i.UsageFault_Handler)
    i.Verify_CRC16_Check_Sum                 0x08005a1c   Section        0  crc.o(i.Verify_CRC16_Check_Sum)
    i.Verify_CRC8_Check_Sum                  0x08005a5c   Section        0  crc.o(i.Verify_CRC8_Check_Sum)
    i.YawUI_Change                           0x08005a94   Section        0  graphicssendtask.o(i.YawUI_Change)
    i.ZeroCheck_Init_Interface               0x08005b04   Section        0  zerocheck.o(i.ZeroCheck_Init_Interface)
    i.ZeroCheck_cal                          0x08005b2c   Section        0  zerocheck.o(i.ZeroCheck_cal)
    i.__scatterload_copy                     0x08005bdc   Section       14  handlers.o(i.__scatterload_copy)
    i.__scatterload_null                     0x08005bea   Section        2  handlers.o(i.__scatterload_null)
    i.__scatterload_zeroinit                 0x08005bec   Section       14  handlers.o(i.__scatterload_zeroinit)
    i.abs_limit                              0x08005bfa   Section        0  pid.o(i.abs_limit)
    abs_limit                                0x08005bfb   Thumb Code    46  pid.o(i.abs_limit)
    i.checkComponent                         0x08005c28   Section        0  selfcheck_task.o(i.checkComponent)
    checkComponent                           0x08005c29   Thumb Code    16  selfcheck_task.o(i.checkComponent)
    i.device_lost_reset                      0x08005c38   Section        0  selfcheck_task.o(i.device_lost_reset)
    device_lost_reset                        0x08005c39   Thumb Code    32  selfcheck_task.o(i.device_lost_reset)
    i.imugimbal_config                       0x08005c6c   Section        0  gimbal_task.o(i.imugimbal_config)
    imugimbal_config                         0x08005c6d   Thumb Code   710  gimbal_task.o(i.imugimbal_config)
    i.key_refresh                            0x08005fac   Section        0  actioncontrol_task.o(i.key_refresh)
    i.key_rising_check                       0x08006054   Section        0  actioncontrol_task.o(i.key_rising_check)
    i.led_AimAssist                          0x080061c4   Section        0  led.o(i.led_AimAssist)
    i.led_Gimbal_powerOff                    0x08006234   Section        0  led.o(i.led_Gimbal_powerOff)
    i.led_IMU_Lost                           0x08006240   Section        0  led.o(i.led_IMU_Lost)
    i.led_Pitch_Lost                         0x08006298   Section        0  led.o(i.led_Pitch_Lost)
    i.led_Pluck_Lost                         0x0800629c   Section        0  led.o(i.led_Pluck_Lost)
    i.led_RC_Lost                            0x0800631c   Section        0  led.o(i.led_RC_Lost)
    i.led_YAW_Lost                           0x0800639c   Section        0  led.o(i.led_YAW_Lost)
    i.led_error                              0x080063f4   Section        0  led.o(i.led_error)
    i.led_normal                             0x08006400   Section        0  led.o(i.led_normal)
    i.led_selfCheck                          0x08006450   Section        0  led.o(i.led_selfCheck)
    i.led_update                             0x0800645c   Section        0  selfcheck_task.o(i.led_update)
    led_update                               0x0800645d   Thumb Code   128  selfcheck_task.o(i.led_update)
    i.limit_max_min                          0x080064e0   Section        0  gimbal_task.o(i.limit_max_min)
    i.main                                   0x08006508   Section        0  main.o(i.main)
    i.motor_PID_cal                          0x08006528   Section        0  motor.o(i.motor_PID_cal)
    motor_PID_cal                            0x08006529   Thumb Code   294  motor.o(i.motor_PID_cal)
    i.pid_calc                               0x08006658   Section        0  pid.o(i.pid_calc)
    i.pid_param_init                         0x08006712   Section        0  pid.o(i.pid_param_init)
    pid_param_init                           0x08006713   Thumb Code    20  pid.o(i.pid_param_init)
    i.pid_reset                              0x08006728   Section        0  pid.o(i.pid_reset)
    pid_reset                                0x08006729   Thumb Code    46  pid.o(i.pid_reset)
    i.prvAddCurrentTaskToDelayedList         0x0800675c   Section        0  tasks.o(i.prvAddCurrentTaskToDelayedList)
    prvAddCurrentTaskToDelayedList           0x0800675d   Thumb Code   124  tasks.o(i.prvAddCurrentTaskToDelayedList)
    i.prvAddNewTaskToReadyList               0x080067f4   Section        0  tasks.o(i.prvAddNewTaskToReadyList)
    prvAddNewTaskToReadyList                 0x080067f5   Thumb Code   156  tasks.o(i.prvAddNewTaskToReadyList)
    i.prvCheckTasksWaitingTermination        0x080068ac   Section        0  tasks.o(i.prvCheckTasksWaitingTermination)
    prvCheckTasksWaitingTermination          0x080068ad   Thumb Code    86  tasks.o(i.prvCheckTasksWaitingTermination)
    i.prvDeleteTCB                           0x08006910   Section        0  tasks.o(i.prvDeleteTCB)
    prvDeleteTCB                             0x08006911   Thumb Code    18  tasks.o(i.prvDeleteTCB)
    i.prvHeapInit                            0x08006924   Section        0  heap_4.o(i.prvHeapInit)
    prvHeapInit                              0x08006925   Thumb Code    98  heap_4.o(i.prvHeapInit)
    i.prvIdleTask                            0x080069a0   Section        0  tasks.o(i.prvIdleTask)
    prvIdleTask                              0x080069a1   Thumb Code    32  tasks.o(i.prvIdleTask)
    i.prvInitialiseNewTask                   0x080069c8   Section        0  tasks.o(i.prvInitialiseNewTask)
    prvInitialiseNewTask                     0x080069c9   Thumb Code   180  tasks.o(i.prvInitialiseNewTask)
    i.prvInitialiseTaskLists                 0x08006a7c   Section        0  tasks.o(i.prvInitialiseTaskLists)
    prvInitialiseTaskLists                   0x08006a7d   Thumb Code    70  tasks.o(i.prvInitialiseTaskLists)
    i.prvInsertBlockIntoFreeList             0x08006ae4   Section        0  heap_4.o(i.prvInsertBlockIntoFreeList)
    prvInsertBlockIntoFreeList               0x08006ae5   Thumb Code    96  heap_4.o(i.prvInsertBlockIntoFreeList)
    i.prvResetNextTaskUnblockTime            0x08006b4c   Section        0  tasks.o(i.prvResetNextTaskUnblockTime)
    prvResetNextTaskUnblockTime              0x08006b4d   Thumb Code    42  tasks.o(i.prvResetNextTaskUnblockTime)
    i.prvTaskExitError                       0x08006b80   Section        0  port.o(i.prvTaskExitError)
    prvTaskExitError                         0x08006b81   Thumb Code    60  port.o(i.prvTaskExitError)
    i.pvPortMalloc                           0x08006bc0   Section        0  heap_4.o(i.pvPortMalloc)
    i.pxPortInitialiseStack                  0x08006cfc   Section        0  port.o(i.pxPortInitialiseStack)
    i.selfCheck_update                       0x08006d28   Section        0  selfcheck_task.o(i.selfCheck_update)
    selfCheck_update                         0x08006d29   Thumb Code   240  selfcheck_task.o(i.selfCheck_update)
    i.shoot_config                           0x08006e34   Section        0  shoot_task.o(i.shoot_config)
    shoot_config                             0x08006e35   Thumb Code   224  shoot_task.o(i.shoot_config)
    i.shoot_mode_check                       0x08006f28   Section        0  actioncontrol_task.o(i.shoot_mode_check)
    i.uxListRemove                           0x08006f84   Section        0  list.o(i.uxListRemove)
    i.vCan1Config                            0x08006fac   Section        0  can.o(i.vCan1Config)
    i.vCan2Config                            0x080070f4   Section        0  can.o(i.vCan2Config)
    i.vCreateStartTask                       0x08007230   Section        0  start_task.o(i.vCreateStartTask)
    i.vDelayMsForInit                        0x0800725c   Section        0  main.o(i.vDelayMsForInit)
    i.vFrictionConfig                        0x08007278   Section        0  friction.o(i.vFrictionConfig)
    i.vLaserGpioConfig                       0x0800732c   Section        0  laser.o(i.vLaserGpioConfig)
    i.vLedGpioConfig                         0x08007368   Section        0  led.o(i.vLedGpioConfig)
    i.vListInitialise                        0x080073e8   Section        0  list.o(i.vListInitialise)
    i.vListInitialiseItem                    0x08007402   Section        0  list.o(i.vListInitialiseItem)
    i.vListInsert                            0x08007408   Section        0  list.o(i.vListInsert)
    i.vListInsertEnd                         0x0800743c   Section        0  list.o(i.vListInsertEnd)
    i.vNvicConfig                            0x08007454   Section        0  nvic.o(i.vNvicConfig)
    i.vPortEnterCritical                     0x08007660   Section        0  port.o(i.vPortEnterCritical)
    i.vPortExitCritical                      0x080076b4   Section        0  port.o(i.vPortExitCritical)
    i.vPortFree                              0x080076f0   Section        0  heap_4.o(i.vPortFree)
    i.vPortSetupTimerInterrupt               0x08007784   Section        0  port.o(i.vPortSetupTimerInterrupt)
    i.vSystemInit                            0x080077a4   Section        0  main.o(i.vSystemInit)
    i.vTaskDelay                             0x080077e8   Section        0  tasks.o(i.vTaskDelay)
    i.vTaskDelete                            0x08007844   Section        0  tasks.o(i.vTaskDelete)
    i.vTaskStartScheduler                    0x08007938   Section        0  tasks.o(i.vTaskStartScheduler)
    i.vTaskSuspendAll                        0x080079c4   Section        0  tasks.o(i.vTaskSuspendAll)
    i.vTaskSwitchContext                     0x080079d4   Section        0  tasks.o(i.vTaskSwitchContext)
    i.vTim3Config                            0x08007aa0   Section        0  tim.o(i.vTim3Config)
    i.vTim4Config                            0x08007ae0   Section        0  tim.o(i.vTim4Config)
    i.vUart1Config                           0x08007b20   Section        0  uart.o(i.vUart1Config)
    i.vUart2Config                           0x08007cf0   Section        0  uart.o(i.vUart2Config)
    i.vUart3Config                           0x08007ea0   Section        0  uart.o(i.vUart3Config)
    i.vUart4Config                           0x08007fac   Section        0  uart.o(i.vUart4Config)
    i.vUart5Config                           0x08008138   Section        0  uart.o(i.vUart5Config)
    i.xPortStartScheduler                    0x080082d8   Section        0  port.o(i.xPortStartScheduler)
    i.xTaskCreate                            0x08008414   Section        0  tasks.o(i.xTaskCreate)
    i.xTaskGetTickCount                      0x08008474   Section        0  tasks.o(i.xTaskGetTickCount)
    i.xTaskIncrementTick                     0x08008480   Section        0  tasks.o(i.xTaskIncrementTick)
    i.xTaskResumeAll                         0x080085c8   Section        0  tasks.o(i.xTaskResumeAll)
    .constdata                               0x080086cc   Section      769  crc.o(.constdata)
    .data                                    0x20000000   Section       20  system_stm32f4xx.o(.data)
    .data                                    0x20000014   Section       16  stm32f4xx_rcc.o(.data)
    APBAHBPrescTable                         0x20000014   Data          16  stm32f4xx_rcc.o(.data)
    .data                                    0x20000024   Section       24  led.o(.data)
    cnt                                      0x20000024   Data           4  led.o(.data)
    cnt                                      0x20000028   Data           4  led.o(.data)
    cnt                                      0x2000002c   Data           4  led.o(.data)
    cnt                                      0x20000030   Data           4  led.o(.data)
    cnt                                      0x20000034   Data           4  led.o(.data)
    cnt                                      0x20000038   Data           4  led.o(.data)
    .data                                    0x2000003c   Section        4  uart.o(.data)
    DATA_LENGTH                              0x2000003c   Data           4  uart.o(.data)
    .data                                    0x20000040   Section        8  tim.o(.data)
    .data                                    0x20000048   Section        4  crc.o(.data)
    .data                                    0x2000004c   Section        8  motor.o(.data)
    .data                                    0x20000054   Section      128  friction.o(.data)
    .data                                    0x200000d4   Section       68  communicate.o(.data)
    ANO_dataid                               0x20000111   Data           1  communicate.o(.data)
    test_count                               0x20000112   Data           2  communicate.o(.data)
    len                                      0x20000114   Data           2  communicate.o(.data)
    receid                                   0x20000116   Data           2  communicate.o(.data)
    .data                                    0x20000118   Section        4  start_task.o(.data)
    .data                                    0x2000011c   Section       20  selfcheck_task.o(.data)
    dis_control_gimbal_flag                  0x20000122   Data           2  selfcheck_task.o(.data)
    dis_control_shoot_flag                   0x20000124   Data           2  selfcheck_task.o(.data)
    initTime                                 0x2000012c   Data           4  selfcheck_task.o(.data)
    .data                                    0x20000130   Section      124  gimbal_task.o(.data)
    .data                                    0x200001ac   Section       70  shoot_task.o(.data)
    powerOff_delay                           0x200001e8   Data           2  shoot_task.o(.data)
    RC_shoot_delay                           0x200001ec   Data           4  shoot_task.o(.data)
    delay                                    0x200001f0   Data           2  shoot_task.o(.data)
    .data                                    0x200001f4   Section      133  graphicssendtask.o(.data)
    seq                                      0x20000214   Data           1  graphicssendtask.o(.data)
    Frame_Length                             0x20000215   Data           1  graphicssendtask.o(.data)
    Delete_Graphic                           0x20000216   Data           2  graphicssendtask.o(.data)
    Data1000                                 0x20000218   Data           4  graphicssendtask.o(.data)
    PitchName                                0x2000021c   Data           4  graphicssendtask.o(.data)
    YawName                                  0x20000220   Data           4  graphicssendtask.o(.data)
    Gimbal_State_Name                        0x20000224   Data           4  graphicssendtask.o(.data)
    Lost_Char                                0x20000228   Data           5  graphicssendtask.o(.data)
    Normal_Char                              0x2000022d   Data          10  graphicssendtask.o(.data)
    PC_Char                                  0x20000237   Data           3  graphicssendtask.o(.data)
    Auto_Char                                0x2000023a   Data           8  graphicssendtask.o(.data)
    Fri_Name                                 0x20000242   Data           4  graphicssendtask.o(.data)
    On_Char                                  0x20000246   Data           3  graphicssendtask.o(.data)
    Off_Char                                 0x20000249   Data           4  graphicssendtask.o(.data)
    CharName1                                0x2000024d   Data           4  graphicssendtask.o(.data)
    CharName2                                0x20000251   Data           4  graphicssendtask.o(.data)
    CharName3                                0x20000255   Data           4  graphicssendtask.o(.data)
    CharName4                                0x20000259   Data           4  graphicssendtask.o(.data)
    ShootLineName1                           0x2000025d   Data           4  graphicssendtask.o(.data)
    ShootLineName2                           0x20000261   Data           4  graphicssendtask.o(.data)
    ShootLineName3                           0x20000265   Data           4  graphicssendtask.o(.data)
    ShootLineName4                           0x20000269   Data           4  graphicssendtask.o(.data)
    ShootLineName5                           0x2000026d   Data           4  graphicssendtask.o(.data)
    ShootLineName6                           0x20000271   Data           4  graphicssendtask.o(.data)
    ShootLineName7                           0x20000275   Data           4  graphicssendtask.o(.data)
    .data                                    0x2000027c   Section       52  actioncontrol_task.o(.data)
    .data                                    0x200002b0   Section       68  tasks.o(.data)
    pxDelayedTaskList                        0x200002b4   Data           4  tasks.o(.data)
    pxOverflowDelayedTaskList                0x200002b8   Data           4  tasks.o(.data)
    uxDeletedTasksWaitingCleanUp             0x200002bc   Data           4  tasks.o(.data)
    uxCurrentNumberOfTasks                   0x200002c0   Data           4  tasks.o(.data)
    xTickCount                               0x200002c4   Data           4  tasks.o(.data)
    uxTopReadyPriority                       0x200002c8   Data           4  tasks.o(.data)
    xSchedulerRunning                        0x200002cc   Data           4  tasks.o(.data)
    uxPendedTicks                            0x200002d0   Data           4  tasks.o(.data)
    xYieldPending                            0x200002d4   Data           4  tasks.o(.data)
    xNumOfOverflows                          0x200002d8   Data           4  tasks.o(.data)
    uxTaskNumber                             0x200002dc   Data           4  tasks.o(.data)
    xNextTaskUnblockTime                     0x200002e0   Data           4  tasks.o(.data)
    xIdleTaskHandle                          0x200002e4   Data           4  tasks.o(.data)
    uxSchedulerSuspended                     0x200002e8   Data           4  tasks.o(.data)
    ulTaskSwitchedInTime                     0x200002ec   Data           4  tasks.o(.data)
    ulTotalRunTime                           0x200002f0   Data           4  tasks.o(.data)
    .data                                    0x200002f8   Section        8  timers.o(.data)
    .data                                    0x20000300   Section       12  port.o(.data)
    uxCriticalNesting                        0x20000300   Data           4  port.o(.data)
    ucMaxSysCallPriority                     0x20000304   Data           1  port.o(.data)
    ulMaxPRIGROUPValue                       0x20000308   Data           4  port.o(.data)
    .data                                    0x2000030c   Section       24  heap_4.o(.data)
    xStart                                   0x2000030c   Data           8  heap_4.o(.data)
    pxEnd                                    0x20000314   Data           4  heap_4.o(.data)
    xFreeBytesRemaining                      0x20000318   Data           4  heap_4.o(.data)
    xMinimumEverFreeBytesRemaining           0x2000031c   Data           4  heap_4.o(.data)
    xBlockAllocatedBit                       0x20000320   Data           4  heap_4.o(.data)
    .data                                    0x20000328   Section       24  counter.o(.data)
    CNT_TEMP1                                0x20000330   Data           8  counter.o(.data)
    CNT_TEMP2                                0x20000338   Data           8  counter.o(.data)
    .data                                    0x20000340   Section        4  os_tick.o(.data)
    .bss                                     0x20000344   Section      457  uart.o(.bss)
    temptemp                                 0x200004fb   Data          18  uart.o(.bss)
    .bss                                     0x2000050d   Section       16  tim.o(.bss)
    .bss                                     0x20000520   Section     3695  communicate.o(.bss)
    .bss                                     0x20001390   Section       32  start_task.o(.bss)
    .bss                                     0x200013b0   Section      468  graphicssendtask.o(.bss)
    drawing                                  0x20001539   Data          15  graphicssendtask.o(.bss)
    drawing                                  0x20001548   Data          15  graphicssendtask.o(.bss)
    drawing                                  0x20001557   Data          15  graphicssendtask.o(.bss)
    drawing                                  0x20001566   Data          15  graphicssendtask.o(.bss)
    drawing                                  0x20001575   Data          15  graphicssendtask.o(.bss)
    .bss                                     0x20001584   Section       57  actioncontrol_task.o(.bss)
    .bss                                     0x200015c0   Section      740  tasks.o(.bss)
    pxReadyTasksLists                        0x200015c0   Data         640  tasks.o(.bss)
    xDelayedTaskList1                        0x20001840   Data          20  tasks.o(.bss)
    xDelayedTaskList2                        0x20001854   Data          20  tasks.o(.bss)
    xPendingReadyList                        0x20001868   Data          20  tasks.o(.bss)
    xTasksWaitingTermination                 0x2000187c   Data          20  tasks.o(.bss)
    xSuspendedTaskList                       0x20001890   Data          20  tasks.o(.bss)
    .bss                                     0x200018a4   Section    10240  heap_4.o(.bss)
    ucHeap                                   0x200018a4   Data       10240  heap_4.o(.bss)
    .bss                                     0x200040a4   Section       12  counter.o(.bss)
    STACK                                    0x200040b0   Section     2048  startup_stm32f40_41xxx.o(STACK)

    Global Symbols

    Symbol Name                              Value     Ov Type        Size  Object(Section)

    BuildAttributes$$THM_ISAv4$E$P$D$K$B$S$7EM$VFPi3$EXTD16$VFPS$VFMA$PE$A:L22UL41UL21$X:L11$S22US41US21$IEEE1$IW$USESV6$~STKCKD$USESV7$~SHL$OTIME$ROPI$IEEEX$EBA8$MICROLIB$REQ8$PRES8$EABIv2 0x00000000   Number         0  anon$$obj.o ABSOLUTE
    __ARM_use_no_argv                        0x00000000   Number         0  main.o ABSOLUTE
    _printf_a                                0x00000000   Number         0  stubs.o ABSOLUTE
    _printf_c                                0x00000000   Number         0  stubs.o ABSOLUTE
    _printf_charcount                        0x00000000   Number         0  stubs.o ABSOLUTE
    _printf_d                                0x00000000   Number         0  stubs.o ABSOLUTE
    _printf_e                                0x00000000   Number         0  stubs.o ABSOLUTE
    _printf_f                                0x00000000   Number         0  stubs.o ABSOLUTE
    _printf_flags                            0x00000000   Number         0  stubs.o ABSOLUTE
    _printf_fp_dec                           0x00000000   Number         0  stubs.o ABSOLUTE
    _printf_fp_hex                           0x00000000   Number         0  stubs.o ABSOLUTE
    _printf_g                                0x00000000   Number         0  stubs.o ABSOLUTE
    _printf_i                                0x00000000   Number         0  stubs.o ABSOLUTE
    _printf_int_dec                          0x00000000   Number         0  stubs.o ABSOLUTE
    _printf_l                                0x00000000   Number         0  stubs.o ABSOLUTE
    _printf_lc                               0x00000000   Number         0  stubs.o ABSOLUTE
    _printf_ll                               0x00000000   Number         0  stubs.o ABSOLUTE
    _printf_lld                              0x00000000   Number         0  stubs.o ABSOLUTE
    _printf_lli                              0x00000000   Number         0  stubs.o ABSOLUTE
    _printf_llo                              0x00000000   Number         0  stubs.o ABSOLUTE
    _printf_llu                              0x00000000   Number         0  stubs.o ABSOLUTE
    _printf_llx                              0x00000000   Number         0  stubs.o ABSOLUTE
    _printf_longlong_dec                     0x00000000   Number         0  stubs.o ABSOLUTE
    _printf_longlong_hex                     0x00000000   Number         0  stubs.o ABSOLUTE
    _printf_longlong_oct                     0x00000000   Number         0  stubs.o ABSOLUTE
    _printf_ls                               0x00000000   Number         0  stubs.o ABSOLUTE
    _printf_mbtowc                           0x00000000   Number         0  stubs.o ABSOLUTE
    _printf_n                                0x00000000   Number         0  stubs.o ABSOLUTE
    _printf_o                                0x00000000   Number         0  stubs.o ABSOLUTE
    _printf_p                                0x00000000   Number         0  stubs.o ABSOLUTE
    _printf_percent                          0x00000000   Number         0  stubs.o ABSOLUTE
    _printf_pre_padding                      0x00000000   Number         0  stubs.o ABSOLUTE
    _printf_return_value                     0x00000000   Number         0  stubs.o ABSOLUTE
    _printf_s                                0x00000000   Number         0  stubs.o ABSOLUTE
    _printf_sizespec                         0x00000000   Number         0  stubs.o ABSOLUTE
    _printf_str                              0x00000000   Number         0  stubs.o ABSOLUTE
    _printf_truncate_signed                  0x00000000   Number         0  stubs.o ABSOLUTE
    _printf_truncate_unsigned                0x00000000   Number         0  stubs.o ABSOLUTE
    _printf_u                                0x00000000   Number         0  stubs.o ABSOLUTE
    _printf_wc                               0x00000000   Number         0  stubs.o ABSOLUTE
    _printf_wctomb                           0x00000000   Number         0  stubs.o ABSOLUTE
    _printf_widthprec                        0x00000000   Number         0  stubs.o ABSOLUTE
    _printf_x                                0x00000000   Number         0  stubs.o ABSOLUTE
    __cpp_initialize__aeabi_                  - Undefined Weak Reference
    __cxa_finalize                            - Undefined Weak Reference
    _clock_init                               - Undefined Weak Reference
    _microlib_exit                            - Undefined Weak Reference
    __Vectors_Size                           0x00000188   Number         0  startup_stm32f40_41xxx.o ABSOLUTE
    __Vectors                                0x08000000   Data           4  startup_stm32f40_41xxx.o(RESET)
    __Vectors_End                            0x08000188   Data           0  startup_stm32f40_41xxx.o(RESET)
    __main                                   0x08000189   Thumb Code     0  entry.o(.ARM.Collect$$$$00000000)
    _main_stk                                0x08000189   Thumb Code     0  entry2.o(.ARM.Collect$$$$00000001)
    _main_scatterload                        0x0800018d   Thumb Code     0  entry5.o(.ARM.Collect$$$$00000004)
    __main_after_scatterload                 0x08000191   Thumb Code     0  entry5.o(.ARM.Collect$$$$00000004)
    _main_clock                              0x08000191   Thumb Code     0  entry7b.o(.ARM.Collect$$$$00000008)
    _main_cpp_init                           0x08000191   Thumb Code     0  entry8b.o(.ARM.Collect$$$$0000000A)
    _main_init                               0x08000191   Thumb Code     0  entry9a.o(.ARM.Collect$$$$0000000B)
    __rt_final_cpp                           0x08000199   Thumb Code     0  entry10a.o(.ARM.Collect$$$$0000000D)
    __rt_final_exit                          0x08000199   Thumb Code     0  entry11a.o(.ARM.Collect$$$$0000000F)
    SVC_Handler                              0x0800019d   Thumb Code    28  port.o(.emb_text)
    __asm___6_port_c_39a90d8d__prvStartFirstTask 0x080001bd   Thumb Code    28  port.o(.emb_text)
    __asm___6_port_c_39a90d8d__prvEnableVFP  0x080001dd   Thumb Code    16  port.o(.emb_text)
    PendSV_Handler                           0x080001f1   Thumb Code    88  port.o(.emb_text)
    vPortGetIPSR                             0x0800024d   Thumb Code     6  port.o(.emb_text)
    Reset_Handler                            0x08000255   Thumb Code     8  startup_stm32f40_41xxx.o(.text)
    ADC_IRQHandler                           0x0800026f   Thumb Code     0  startup_stm32f40_41xxx.o(.text)
    CAN1_SCE_IRQHandler                      0x0800026f   Thumb Code     0  startup_stm32f40_41xxx.o(.text)
    CAN2_SCE_IRQHandler                      0x0800026f   Thumb Code     0  startup_stm32f40_41xxx.o(.text)
    CRYP_IRQHandler                          0x0800026f   Thumb Code     0  startup_stm32f40_41xxx.o(.text)
    DCMI_IRQHandler                          0x0800026f   Thumb Code     0  startup_stm32f40_41xxx.o(.text)
    DMA1_Stream1_IRQHandler                  0x0800026f   Thumb Code     0  startup_stm32f40_41xxx.o(.text)
    DMA1_Stream3_IRQHandler                  0x0800026f   Thumb Code     0  startup_stm32f40_41xxx.o(.text)
    DMA1_Stream5_IRQHandler                  0x0800026f   Thumb Code     0  startup_stm32f40_41xxx.o(.text)
    DMA1_Stream6_IRQHandler                  0x0800026f   Thumb Code     0  startup_stm32f40_41xxx.o(.text)
    DMA2_Stream0_IRQHandler                  0x0800026f   Thumb Code     0  startup_stm32f40_41xxx.o(.text)
    DMA2_Stream3_IRQHandler                  0x0800026f   Thumb Code     0  startup_stm32f40_41xxx.o(.text)
    DMA2_Stream4_IRQHandler                  0x0800026f   Thumb Code     0  startup_stm32f40_41xxx.o(.text)
    DMA2_Stream5_IRQHandler                  0x0800026f   Thumb Code     0  startup_stm32f40_41xxx.o(.text)
    DMA2_Stream6_IRQHandler                  0x0800026f   Thumb Code     0  startup_stm32f40_41xxx.o(.text)
    ETH_IRQHandler                           0x0800026f   Thumb Code     0  startup_stm32f40_41xxx.o(.text)
    ETH_WKUP_IRQHandler                      0x0800026f   Thumb Code     0  startup_stm32f40_41xxx.o(.text)
    EXTI0_IRQHandler                         0x0800026f   Thumb Code     0  startup_stm32f40_41xxx.o(.text)
    EXTI15_10_IRQHandler                     0x0800026f   Thumb Code     0  startup_stm32f40_41xxx.o(.text)
    EXTI1_IRQHandler                         0x0800026f   Thumb Code     0  startup_stm32f40_41xxx.o(.text)
    EXTI2_IRQHandler                         0x0800026f   Thumb Code     0  startup_stm32f40_41xxx.o(.text)
    EXTI3_IRQHandler                         0x0800026f   Thumb Code     0  startup_stm32f40_41xxx.o(.text)
    EXTI4_IRQHandler                         0x0800026f   Thumb Code     0  startup_stm32f40_41xxx.o(.text)
    EXTI9_5_IRQHandler                       0x0800026f   Thumb Code     0  startup_stm32f40_41xxx.o(.text)
    FLASH_IRQHandler                         0x0800026f   Thumb Code     0  startup_stm32f40_41xxx.o(.text)
    FPU_IRQHandler                           0x0800026f   Thumb Code     0  startup_stm32f40_41xxx.o(.text)
    FSMC_IRQHandler                          0x0800026f   Thumb Code     0  startup_stm32f40_41xxx.o(.text)
    HASH_RNG_IRQHandler                      0x0800026f   Thumb Code     0  startup_stm32f40_41xxx.o(.text)
    I2C1_ER_IRQHandler                       0x0800026f   Thumb Code     0  startup_stm32f40_41xxx.o(.text)
    I2C1_EV_IRQHandler                       0x0800026f   Thumb Code     0  startup_stm32f40_41xxx.o(.text)
    I2C2_ER_IRQHandler                       0x0800026f   Thumb Code     0  startup_stm32f40_41xxx.o(.text)
    I2C2_EV_IRQHandler                       0x0800026f   Thumb Code     0  startup_stm32f40_41xxx.o(.text)
    I2C3_ER_IRQHandler                       0x0800026f   Thumb Code     0  startup_stm32f40_41xxx.o(.text)
    I2C3_EV_IRQHandler                       0x0800026f   Thumb Code     0  startup_stm32f40_41xxx.o(.text)
    OTG_FS_IRQHandler                        0x0800026f   Thumb Code     0  startup_stm32f40_41xxx.o(.text)
    OTG_FS_WKUP_IRQHandler                   0x0800026f   Thumb Code     0  startup_stm32f40_41xxx.o(.text)
    OTG_HS_EP1_IN_IRQHandler                 0x0800026f   Thumb Code     0  startup_stm32f40_41xxx.o(.text)
    OTG_HS_EP1_OUT_IRQHandler                0x0800026f   Thumb Code     0  startup_stm32f40_41xxx.o(.text)
    OTG_HS_IRQHandler                        0x0800026f   Thumb Code     0  startup_stm32f40_41xxx.o(.text)
    OTG_HS_WKUP_IRQHandler                   0x0800026f   Thumb Code     0  startup_stm32f40_41xxx.o(.text)
    PVD_IRQHandler                           0x0800026f   Thumb Code     0  startup_stm32f40_41xxx.o(.text)
    RCC_IRQHandler                           0x0800026f   Thumb Code     0  startup_stm32f40_41xxx.o(.text)
    RTC_Alarm_IRQHandler                     0x0800026f   Thumb Code     0  startup_stm32f40_41xxx.o(.text)
    RTC_WKUP_IRQHandler                      0x0800026f   Thumb Code     0  startup_stm32f40_41xxx.o(.text)
    SDIO_IRQHandler                          0x0800026f   Thumb Code     0  startup_stm32f40_41xxx.o(.text)
    SPI1_IRQHandler                          0x0800026f   Thumb Code     0  startup_stm32f40_41xxx.o(.text)
    SPI2_IRQHandler                          0x0800026f   Thumb Code     0  startup_stm32f40_41xxx.o(.text)
    SPI3_IRQHandler                          0x0800026f   Thumb Code     0  startup_stm32f40_41xxx.o(.text)
    TAMP_STAMP_IRQHandler                    0x0800026f   Thumb Code     0  startup_stm32f40_41xxx.o(.text)
    TIM1_BRK_TIM9_IRQHandler                 0x0800026f   Thumb Code     0  startup_stm32f40_41xxx.o(.text)
    TIM1_CC_IRQHandler                       0x0800026f   Thumb Code     0  startup_stm32f40_41xxx.o(.text)
    TIM1_TRG_COM_TIM11_IRQHandler            0x0800026f   Thumb Code     0  startup_stm32f40_41xxx.o(.text)
    TIM1_UP_TIM10_IRQHandler                 0x0800026f   Thumb Code     0  startup_stm32f40_41xxx.o(.text)
    TIM2_IRQHandler                          0x0800026f   Thumb Code     0  startup_stm32f40_41xxx.o(.text)
    TIM5_IRQHandler                          0x0800026f   Thumb Code     0  startup_stm32f40_41xxx.o(.text)
    TIM6_DAC_IRQHandler                      0x0800026f   Thumb Code     0  startup_stm32f40_41xxx.o(.text)
    TIM8_BRK_TIM12_IRQHandler                0x0800026f   Thumb Code     0  startup_stm32f40_41xxx.o(.text)
    TIM8_CC_IRQHandler                       0x0800026f   Thumb Code     0  startup_stm32f40_41xxx.o(.text)
    TIM8_TRG_COM_TIM14_IRQHandler            0x0800026f   Thumb Code     0  startup_stm32f40_41xxx.o(.text)
    TIM8_UP_TIM13_IRQHandler                 0x0800026f   Thumb Code     0  startup_stm32f40_41xxx.o(.text)
    USART2_IRQHandler                        0x0800026f   Thumb Code     0  startup_stm32f40_41xxx.o(.text)
    USART6_IRQHandler                        0x0800026f   Thumb Code     0  startup_stm32f40_41xxx.o(.text)
    WWDG_IRQHandler                          0x0800026f   Thumb Code     0  startup_stm32f40_41xxx.o(.text)
    __aeabi_memcpy                           0x08000279   Thumb Code    36  memcpya.o(.text)
    __aeabi_memcpy4                          0x08000279   Thumb Code     0  memcpya.o(.text)
    __aeabi_memcpy8                          0x08000279   Thumb Code     0  memcpya.o(.text)
    __aeabi_memset                           0x0800029d   Thumb Code    14  memseta.o(.text)
    __aeabi_memset4                          0x0800029d   Thumb Code     0  memseta.o(.text)
    __aeabi_memset8                          0x0800029d   Thumb Code     0  memseta.o(.text)
    __aeabi_memclr                           0x080002ab   Thumb Code     4  memseta.o(.text)
    __aeabi_memclr4                          0x080002ab   Thumb Code     0  memseta.o(.text)
    __aeabi_memclr8                          0x080002ab   Thumb Code     0  memseta.o(.text)
    _memset$wrapper                          0x080002af   Thumb Code    18  memseta.o(.text)
    __aeabi_dadd                             0x080002c1   Thumb Code   322  dadd.o(.text)
    __aeabi_dsub                             0x08000403   Thumb Code     6  dadd.o(.text)
    __aeabi_drsub                            0x08000409   Thumb Code     6  dadd.o(.text)
    __aeabi_dmul                             0x0800040f   Thumb Code   228  dmul.o(.text)
    __aeabi_ui2d                             0x080004f3   Thumb Code    26  dfltui.o(.text)
    __aeabi_d2uiz                            0x0800050d   Thumb Code    50  dfixui.o(.text)
    __aeabi_f2d                              0x0800053f   Thumb Code    38  f2d.o(.text)
    __aeabi_d2f                              0x08000565   Thumb Code    56  d2f.o(.text)
    __aeabi_llsl                             0x0800059d   Thumb Code    30  llshl.o(.text)
    _ll_shift_l                              0x0800059d   Thumb Code     0  llshl.o(.text)
    __aeabi_llsr                             0x080005bb   Thumb Code    32  llushr.o(.text)
    _ll_ushift_r                             0x080005bb   Thumb Code     0  llushr.o(.text)
    __aeabi_lasr                             0x080005db   Thumb Code    36  llsshr.o(.text)
    _ll_sshift_r                             0x080005db   Thumb Code     0  llsshr.o(.text)
    __I$use$fp                               0x080005ff   Thumb Code     0  iusefp.o(.text)
    _float_round                             0x080005ff   Thumb Code    18  fepilogue.o(.text)
    _float_epilogue                          0x08000611   Thumb Code    92  fepilogue.o(.text)
    _double_round                            0x0800066d   Thumb Code    30  depilogue.o(.text)
    _double_epilogue                         0x0800068b   Thumb Code   156  depilogue.o(.text)
    __scatterload                            0x08000729   Thumb Code    28  init.o(.text)
    __scatterload_rt2                        0x08000729   Thumb Code     0  init.o(.text)
    __decompress                             0x0800074d   Thumb Code     0  __dczerorl2.o(.text)
    __decompress1                            0x0800074d   Thumb Code    86  __dczerorl2.o(.text)
    ActionControl_task                       0x080007a5   Thumb Code    52  actioncontrol_task.o(i.ActionControl_task)
    AppReceive                               0x080007e5   Thumb Code    26  communicate.o(i.AppReceive)
    Append_CRC16_Check_Sum                   0x08000805   Thumb Code    44  crc.o(i.Append_CRC16_Check_Sum)
    Append_CRC8_Check_Sum                    0x08000835   Thumb Code    36  crc.o(i.Append_CRC8_Check_Sum)
    Auto_gimbal                              0x08000859   Thumb Code   284  gimbal_task.o(i.Auto_gimbal)
    BusFault_Handler                         0x080009e5   Thumb Code     4  stm32f4xx_it.o(i.BusFault_Handler)
    CAN1_RX0_IRQHandler                      0x080009e9   Thumb Code    48  can.o(i.CAN1_RX0_IRQHandler)
    CAN1_RX1_IRQHandler                      0x08000a1d   Thumb Code    48  can.o(i.CAN1_RX1_IRQHandler)
    CAN1_TX_IRQHandler                       0x08000a51   Thumb Code    22  can.o(i.CAN1_TX_IRQHandler)
    CAN2_RX0_IRQHandler                      0x08000a6d   Thumb Code    48  can.o(i.CAN2_RX0_IRQHandler)
    CAN2_RX1_IRQHandler                      0x08000aa1   Thumb Code    48  can.o(i.CAN2_RX1_IRQHandler)
    CAN2_TX_IRQHandler                       0x08000ad5   Thumb Code    22  can.o(i.CAN2_TX_IRQHandler)
    CAN_ClearITPendingBit                    0x08000af1   Thumb Code   162  stm32f4xx_can.o(i.CAN_ClearITPendingBit)
    CAN_DeInit                               0x08000b99   Thumb Code    50  stm32f4xx_can.o(i.CAN_DeInit)
    CAN_FilterInit                           0x08000bd1   Thumb Code   258  stm32f4xx_can.o(i.CAN_FilterInit)
    CAN_GetITStatus                          0x08000cd9   Thumb Code   284  stm32f4xx_can.o(i.CAN_GetITStatus)
    CAN_ITConfig                             0x08000df9   Thumb Code    18  stm32f4xx_can.o(i.CAN_ITConfig)
    CAN_Init                                 0x08000e0b   Thumb Code   276  stm32f4xx_can.o(i.CAN_Init)
    CAN_Receive                              0x08000f1f   Thumb Code   240  stm32f4xx_can.o(i.CAN_Receive)
    CAN_StructInit                           0x0800100f   Thumb Code    32  stm32f4xx_can.o(i.CAN_StructInit)
    CAN_Transmit                             0x0800102f   Thumb Code   294  stm32f4xx_can.o(i.CAN_Transmit)
    COUNTER_Configuration                    0x08001155   Thumb Code    74  counter.o(i.COUNTER_Configuration)
    Can1Receive0                             0x080011a9   Thumb Code   214  communicate.o(i.Can1Receive0)
    Can1Receive1                             0x08001289   Thumb Code   316  communicate.o(i.Can1Receive1)
    Can2Receive0                             0x080013d1   Thumb Code     6  communicate.o(i.Can2Receive0)
    Can2Receive1                             0x080013d9   Thumb Code   106  communicate.o(i.Can2Receive1)
    ChangeMode                               0x08001449   Thumb Code   224  actioncontrol_task.o(i.ChangeMode)
    Change_Sensitivity                       0x08001541   Thumb Code   252  actioncontrol_task.o(i.Change_Sensitivity)
    CharGraphic_Draw                         0x08001669   Thumb Code   188  graphicssendtask.o(i.CharGraphic_Draw)
    Char_Draw                                0x0800172d   Thumb Code   112  graphicssendtask.o(i.Char_Draw)
    Char_Init                                0x080017a5   Thumb Code   192  graphicssendtask.o(i.Char_Init)
    ConfigureTimeForRunTimeStatus            0x080018b1   Thumb Code    16  timers.o(i.ConfigureTimeForRunTimeStatus)
    DBGMCU_Config                            0x080018c5   Thumb Code    26  stm32f4xx_dbgmcu.o(i.DBGMCU_Config)
    DMA1_Stream0_IRQHandler                  0x080018e5   Thumb Code    44  uart.o(i.DMA1_Stream0_IRQHandler)
    DMA1_Stream2_IRQHandler                  0x08001921   Thumb Code   134  uart.o(i.DMA1_Stream2_IRQHandler)
    DMA1_Stream4_IRQHandler                  0x080019bd   Thumb Code    48  uart.o(i.DMA1_Stream4_IRQHandler)
    DMA1_Stream7_IRQHandler                  0x080019f9   Thumb Code    44  uart.o(i.DMA1_Stream7_IRQHandler)
    DMA2_Stream1_IRQHandler                  0x08001a31   Thumb Code    94  friction.o(i.DMA2_Stream1_IRQHandler)
    DMA2_Stream2_IRQHandler                  0x08001a9d   Thumb Code    32  uart.o(i.DMA2_Stream2_IRQHandler)
    DMA2_Stream7_IRQHandler                  0x08001ac9   Thumb Code    46  uart.o(i.DMA2_Stream7_IRQHandler)
    DMA_ClearFlag                            0x08001b05   Thumb Code    38  stm32f4xx_dma.o(i.DMA_ClearFlag)
    DMA_ClearITPendingBit                    0x08001b39   Thumb Code    38  stm32f4xx_dma.o(i.DMA_ClearITPendingBit)
    DMA_Cmd                                  0x08001b6d   Thumb Code    22  stm32f4xx_dma.o(i.DMA_Cmd)
    DMA_DeInit                               0x08001b85   Thumb Code   324  stm32f4xx_dma.o(i.DMA_DeInit)
    DMA_GetCurrDataCounter                   0x08001cdd   Thumb Code     8  stm32f4xx_dma.o(i.DMA_GetCurrDataCounter)
    DMA_GetFlagStatus                        0x08001ce5   Thumb Code    54  stm32f4xx_dma.o(i.DMA_GetFlagStatus)
    DMA_GetITStatus                          0x08001d29   Thumb Code    82  stm32f4xx_dma.o(i.DMA_GetITStatus)
    DMA_ITConfig                             0x08001d8d   Thumb Code    58  stm32f4xx_dma.o(i.DMA_ITConfig)
    DMA_Init                                 0x08001dc9   Thumb Code    82  stm32f4xx_dma.o(i.DMA_Init)
    DMA_SetCurrDataCounter                   0x08001e21   Thumb Code     4  stm32f4xx_dma.o(i.DMA_SetCurrDataCounter)
    DebugMon_Handler                         0x08001e25   Thumb Code     2  stm32f4xx_it.o(i.DebugMon_Handler)
    FeedForwardInit                          0x08001e29   Thumb Code   230  feedforward.o(i.FeedForwardInit)
    FeedForward_Cal                          0x08001f21   Thumb Code   142  feedforward.o(i.FeedForward_Cal)
    FloatData_Draw                           0x08001fb1   Thumb Code   250  graphicssendtask.o(i.FloatData_Draw)
    FrictionMode_Change                      0x080020b9   Thumb Code   106  graphicssendtask.o(i.FrictionMode_Change)
    Fuzzy_PID_struct_init                    0x08002139   Thumb Code   154  pid.o(i.Fuzzy_PID_struct_init)
    GM6020_Send_can1                         0x08002279   Thumb Code   162  motor.o(i.GM6020_Send_can1)
    GM6020_control                           0x0800232d   Thumb Code  1160  motor.o(i.GM6020_control)
    GPIO_Init                                0x080027c1   Thumb Code   144  stm32f4xx_gpio.o(i.GPIO_Init)
    GPIO_PinAFConfig                         0x08002851   Thumb Code    70  stm32f4xx_gpio.o(i.GPIO_PinAFConfig)
    GPIO_ResetBits                           0x08002897   Thumb Code     4  stm32f4xx_gpio.o(i.GPIO_ResetBits)
    GPIO_SetBits                             0x0800289b   Thumb Code     4  stm32f4xx_gpio.o(i.GPIO_SetBits)
    GPIO_ToggleBits                          0x0800289f   Thumb Code     8  stm32f4xx_gpio.o(i.GPIO_ToggleBits)
    Get_CRC16_Check_Sum                      0x080028a9   Thumb Code    46  crc.o(i.Get_CRC16_Check_Sum)
    Get_CRC8_Check_Sum                       0x080028dd   Thumb Code    30  crc.o(i.Get_CRC8_Check_Sum)
    Get_ZeroCheck_Value_Interface            0x08002901   Thumb Code    20  zerocheck.o(i.Get_ZeroCheck_Value_Interface)
    GimbalMode_Change                        0x08002915   Thumb Code   200  graphicssendtask.o(i.GimbalMode_Change)
    GraphicSendtask                          0x080029f5   Thumb Code   154  graphicssendtask.o(i.GraphicSendtask)
    HardFault_Handler                        0x08002aad   Thumb Code     4  stm32f4xx_it.o(i.HardFault_Handler)
    IMU_Control_Limit                        0x08002ab1   Thumb Code   152  gimbal_task.o(i.IMU_Control_Limit)
    IWDG_Config                              0x08002b61   Thumb Code    36  iwdg.o(i.IWDG_Config)
    IWDG_Enable                              0x08002b85   Thumb Code    10  stm32f4xx_iwdg.o(i.IWDG_Enable)
    IWDG_Feed                                0x08002b95   Thumb Code     8  iwdg.o(i.IWDG_Feed)
    IWDG_ReloadCounter                       0x08002b9d   Thumb Code    10  stm32f4xx_iwdg.o(i.IWDG_ReloadCounter)
    IWDG_SetPrescaler                        0x08002bad   Thumb Code     6  stm32f4xx_iwdg.o(i.IWDG_SetPrescaler)
    IWDG_SetReload                           0x08002bb9   Thumb Code     6  stm32f4xx_iwdg.o(i.IWDG_SetReload)
    IWDG_WriteAccessCmd                      0x08002bc5   Thumb Code     6  stm32f4xx_iwdg.o(i.IWDG_WriteAccessCmd)
    ImugimbalTask                            0x08002bd1   Thumb Code   298  gimbal_task.o(i.ImugimbalTask)
    JudgeReceive                             0x08002d41   Thumb Code   768  communicate.o(i.JudgeReceive)
    JudgeTask                                0x0800305d   Thumb Code    16  judge_task.o(i.JudgeTask)
    Line_Draw                                0x0800306d   Thumb Code   158  graphicssendtask.o(i.Line_Draw)
    Lost_gimbal                              0x08003111   Thumb Code   206  gimbal_task.o(i.Lost_gimbal)
    M2006_Send_Can1                          0x08003219   Thumb Code   226  motor.o(i.M2006_Send_Can1)
    M2006_control                            0x08003311   Thumb Code   308  motor.o(i.M2006_control)
    MemManage_Handler                        0x08003459   Thumb Code     4  stm32f4xx_it.o(i.MemManage_Handler)
    NMI_Handler                              0x0800345d   Thumb Code     2  stm32f4xx_it.o(i.NMI_Handler)
    NVIC_Init                                0x08003461   Thumb Code   106  misc.o(i.NVIC_Init)
    OS_TICK_Configuration                    0x080034d9   Thumb Code   104  os_tick.o(i.OS_TICK_Configuration)
    PCReceive                                0x08003545   Thumb Code   114  communicate.o(i.PCReceive)
    PCSend                                   0x080035c1   Thumb Code   206  communicate.o(i.PCSend)
    PC_gimbal                                0x080036bd   Thumb Code   884  gimbal_task.o(i.PC_gimbal)
    PID_struct_init                          0x08003ab5   Thumb Code    88  pid.o(i.PID_struct_init)
    PitchUI_Change                           0x08003b15   Thumb Code    96  graphicssendtask.o(i.PitchUI_Change)
    RCC_AHB1PeriphClockCmd                   0x08003bf1   Thumb Code    26  stm32f4xx_rcc.o(i.RCC_AHB1PeriphClockCmd)
    RCC_APB1PeriphClockCmd                   0x08003c11   Thumb Code    26  stm32f4xx_rcc.o(i.RCC_APB1PeriphClockCmd)
    RCC_APB1PeriphResetCmd                   0x08003c31   Thumb Code    26  stm32f4xx_rcc.o(i.RCC_APB1PeriphResetCmd)
    RCC_APB2PeriphClockCmd                   0x08003c51   Thumb Code    26  stm32f4xx_rcc.o(i.RCC_APB2PeriphClockCmd)
    RCC_GetClocksFreq                        0x08003c71   Thumb Code   214  stm32f4xx_rcc.o(i.RCC_GetClocksFreq)
    RC_gimbal                                0x08003d59   Thumb Code   672  gimbal_task.o(i.RC_gimbal)
    RemoteReceive                            0x0800407d   Thumb Code   452  communicate.o(i.RemoteReceive)
    SelfcheckTask                            0x08004245   Thumb Code    88  selfcheck_task.o(i.SelfcheckTask)
    Send_UIPack                              0x080042a5   Thumb Code    70  graphicssendtask.o(i.Send_UIPack)
    Send_toReferee                           0x080042f1   Thumb Code   136  graphicssendtask.o(i.Send_toReferee)
    ShootLines_Init                          0x0800447d   Thumb Code  1430  graphicssendtask.o(i.ShootLines_Init)
    ShootTask                                0x08004a45   Thumb Code  1124  shoot_task.o(i.ShootTask)
    StartTask                                0x08004ead   Thumb Code   152  start_task.o(i.StartTask)
    SysTick_Handler                          0x08004fc5   Thumb Code    46  port.o(i.SysTick_Handler)
    SystemInit                               0x08004ff9   Thumb Code    88  system_stm32f4xx.o(i.SystemInit)
    TIM3_IRQHandler                          0x08005061   Thumb Code    12  tim.o(i.TIM3_IRQHandler)
    TIM4_IRQHandler                          0x08005071   Thumb Code   644  tim.o(i.TIM4_IRQHandler)
    TIM7_IRQHandler                          0x08005319   Thumb Code    32  os_tick.o(i.TIM7_IRQHandler)
    TIM_ClearFlag                            0x08005341   Thumb Code     6  stm32f4xx_tim.o(i.TIM_ClearFlag)
    TIM_ClearITPendingBit                    0x08005347   Thumb Code     6  stm32f4xx_tim.o(i.TIM_ClearITPendingBit)
    TIM_Cmd                                  0x0800534d   Thumb Code    24  stm32f4xx_tim.o(i.TIM_Cmd)
    TIM_CtrlPWMOutputs                       0x08005365   Thumb Code    30  stm32f4xx_tim.o(i.TIM_CtrlPWMOutputs)
    TIM_DMACmd                               0x08005383   Thumb Code    18  stm32f4xx_tim.o(i.TIM_DMACmd)
    TIM_GetITStatus                          0x08005395   Thumb Code    34  stm32f4xx_tim.o(i.TIM_GetITStatus)
    TIM_ITConfig                             0x080053b7   Thumb Code    18  stm32f4xx_tim.o(i.TIM_ITConfig)
    TIM_OC1Init                              0x080053c9   Thumb Code   114  stm32f4xx_tim.o(i.TIM_OC1Init)
    TIM_OC2Init                              0x08005445   Thumb Code   154  stm32f4xx_tim.o(i.TIM_OC2Init)
    TIM_SetCompare1                          0x080054e9   Thumb Code     4  stm32f4xx_tim.o(i.TIM_SetCompare1)
    TIM_SetCompare2                          0x080054ed   Thumb Code     4  stm32f4xx_tim.o(i.TIM_SetCompare2)
    TIM_TimeBaseInit                         0x080054f1   Thumb Code   104  stm32f4xx_tim.o(i.TIM_TimeBaseInit)
    UART4_IRQHandler                         0x08005575   Thumb Code    26  uart.o(i.UART4_IRQHandler)
    UART5_IRQHandler                         0x08005595   Thumb Code    24  uart.o(i.UART5_IRQHandler)
    UI_Distance_Change                       0x080055b1   Thumb Code   476  graphicssendtask.o(i.UI_Distance_Change)
    UI_Distance_Init                         0x080057b1   Thumb Code    42  graphicssendtask.o(i.UI_Distance_Init)
    USART1_IRQHandler                        0x080057f9   Thumb Code    24  uart.o(i.USART1_IRQHandler)
    USART3_IRQHandler                        0x08005815   Thumb Code    78  uart.o(i.USART3_IRQHandler)
    USART_Cmd                                0x08005875   Thumb Code    24  stm32f4xx_usart.o(i.USART_Cmd)
    USART_DMACmd                             0x0800588d   Thumb Code    18  stm32f4xx_usart.o(i.USART_DMACmd)
    USART_GetITStatus                        0x0800589f   Thumb Code    84  stm32f4xx_usart.o(i.USART_GetITStatus)
    USART_ITConfig                           0x080058f3   Thumb Code    74  stm32f4xx_usart.o(i.USART_ITConfig)
    USART_Init                               0x0800593d   Thumb Code   204  stm32f4xx_usart.o(i.USART_Init)
    USART_SendData                           0x08005a11   Thumb Code     8  stm32f4xx_usart.o(i.USART_SendData)
    UsageFault_Handler                       0x08005a19   Thumb Code     4  stm32f4xx_it.o(i.UsageFault_Handler)
    Verify_CRC16_Check_Sum                   0x08005a1d   Thumb Code    60  crc.o(i.Verify_CRC16_Check_Sum)
    Verify_CRC8_Check_Sum                    0x08005a5d   Thumb Code    50  crc.o(i.Verify_CRC8_Check_Sum)
    YawUI_Change                             0x08005a95   Thumb Code    96  graphicssendtask.o(i.YawUI_Change)
    ZeroCheck_Init_Interface                 0x08005b05   Thumb Code    34  zerocheck.o(i.ZeroCheck_Init_Interface)
    ZeroCheck_cal                            0x08005b2d   Thumb Code   166  zerocheck.o(i.ZeroCheck_cal)
    __scatterload_copy                       0x08005bdd   Thumb Code    14  handlers.o(i.__scatterload_copy)
    __scatterload_null                       0x08005beb   Thumb Code     2  handlers.o(i.__scatterload_null)
    __scatterload_zeroinit                   0x08005bed   Thumb Code    14  handlers.o(i.__scatterload_zeroinit)
    key_refresh                              0x08005fad   Thumb Code   160  actioncontrol_task.o(i.key_refresh)
    key_rising_check                         0x08006055   Thumb Code   286  actioncontrol_task.o(i.key_rising_check)
    led_AimAssist                            0x080061c5   Thumb Code   102  led.o(i.led_AimAssist)
    led_Gimbal_powerOff                      0x08006235   Thumb Code    12  led.o(i.led_Gimbal_powerOff)
    led_IMU_Lost                             0x08006241   Thumb Code    78  led.o(i.led_IMU_Lost)
    led_Pitch_Lost                           0x08006299   Thumb Code     2  led.o(i.led_Pitch_Lost)
    led_Pluck_Lost                           0x0800629d   Thumb Code   120  led.o(i.led_Pluck_Lost)
    led_RC_Lost                              0x0800631d   Thumb Code   120  led.o(i.led_RC_Lost)
    led_YAW_Lost                             0x0800639d   Thumb Code    78  led.o(i.led_YAW_Lost)
    led_error                                0x080063f5   Thumb Code    12  led.o(i.led_error)
    led_normal                               0x08006401   Thumb Code    70  led.o(i.led_normal)
    led_selfCheck                            0x08006451   Thumb Code    12  led.o(i.led_selfCheck)
    limit_max_min                            0x080064e1   Thumb Code    40  gimbal_task.o(i.limit_max_min)
    main                                     0x08006509   Thumb Code    30  main.o(i.main)
    pid_calc                                 0x08006659   Thumb Code   186  pid.o(i.pid_calc)
    pvPortMalloc                             0x08006bc1   Thumb Code   296  heap_4.o(i.pvPortMalloc)
    pxPortInitialiseStack                    0x08006cfd   Thumb Code    38  port.o(i.pxPortInitialiseStack)
    shoot_mode_check                         0x08006f29   Thumb Code    78  actioncontrol_task.o(i.shoot_mode_check)
    uxListRemove                             0x08006f85   Thumb Code    40  list.o(i.uxListRemove)
    vCan1Config                              0x08006fad   Thumb Code   318  can.o(i.vCan1Config)
    vCan2Config                              0x080070f5   Thumb Code   306  can.o(i.vCan2Config)
    vCreateStartTask                         0x08007231   Thumb Code    24  start_task.o(i.vCreateStartTask)
    vDelayMsForInit                          0x0800725d   Thumb Code    28  main.o(i.vDelayMsForInit)
    vFrictionConfig                          0x08007279   Thumb Code   170  friction.o(i.vFrictionConfig)
    vLaserGpioConfig                         0x0800732d   Thumb Code    56  laser.o(i.vLaserGpioConfig)
    vLedGpioConfig                           0x08007369   Thumb Code   124  led.o(i.vLedGpioConfig)
    vListInitialise                          0x080073e9   Thumb Code    26  list.o(i.vListInitialise)
    vListInitialiseItem                      0x08007403   Thumb Code     6  list.o(i.vListInitialiseItem)
    vListInsert                              0x08007409   Thumb Code    52  list.o(i.vListInsert)
    vListInsertEnd                           0x0800743d   Thumb Code    24  list.o(i.vListInsertEnd)
    vNvicConfig                              0x08007455   Thumb Code   522  nvic.o(i.vNvicConfig)
    vPortEnterCritical                       0x08007661   Thumb Code    76  port.o(i.vPortEnterCritical)
    vPortExitCritical                        0x080076b5   Thumb Code    56  port.o(i.vPortExitCritical)
    vPortFree                                0x080076f1   Thumb Code   140  heap_4.o(i.vPortFree)
    vPortSetupTimerInterrupt                 0x08007785   Thumb Code    26  port.o(i.vPortSetupTimerInterrupt)
    vSystemInit                              0x080077a5   Thumb Code    68  main.o(i.vSystemInit)
    vTaskDelay                               0x080077e9   Thumb Code    82  tasks.o(i.vTaskDelay)
    vTaskDelete                              0x08007845   Thumb Code   202  tasks.o(i.vTaskDelete)
    vTaskStartScheduler                      0x08007939   Thumb Code   112  tasks.o(i.vTaskStartScheduler)
    vTaskSuspendAll                          0x080079c5   Thumb Code    12  tasks.o(i.vTaskSuspendAll)
    vTaskSwitchContext                       0x080079d5   Thumb Code   170  tasks.o(i.vTaskSwitchContext)
    vTim3Config                              0x08007aa1   Thumb Code    60  tim.o(i.vTim3Config)
    vTim4Config                              0x08007ae1   Thumb Code    60  tim.o(i.vTim4Config)
    vUart1Config                             0x08007b21   Thumb Code   442  uart.o(i.vUart1Config)
    vUart2Config                             0x08007cf1   Thumb Code   420  uart.o(i.vUart2Config)
    vUart3Config                             0x08007ea1   Thumb Code   246  uart.o(i.vUart3Config)
    vUart4Config                             0x08007fad   Thumb Code   374  uart.o(i.vUart4Config)
    vUart5Config                             0x08008139   Thumb Code   392  uart.o(i.vUart5Config)
    xPortStartScheduler                      0x080082d9   Thumb Code   288  port.o(i.xPortStartScheduler)
    xTaskCreate                              0x08008415   Thumb Code    96  tasks.o(i.xTaskCreate)
    xTaskGetTickCount                        0x08008475   Thumb Code     6  tasks.o(i.xTaskGetTickCount)
    xTaskIncrementTick                       0x08008481   Thumb Code   282  tasks.o(i.xTaskIncrementTick)
    xTaskResumeAll                           0x080085c9   Thumb Code   224  tasks.o(i.xTaskResumeAll)
    wCRC_Table                               0x080086cc   Data         512  crc.o(.constdata)
    CRC8_INIT                                0x080088cc   Data           1  crc.o(.constdata)
    CRC8_TAB                                 0x080088cd   Data         256  crc.o(.constdata)
    Region$$Table$$Base                      0x080089d0   Number         0  anon$$obj.o(Region$$Table)
    Region$$Table$$Limit                     0x080089f0   Number         0  anon$$obj.o(Region$$Table)
    SystemCoreClock                          0x20000000   Data           4  system_stm32f4xx.o(.data)
    AHBPrescTable                            0x20000004   Data          16  system_stm32f4xx.o(.data)
    accelerator1                             0x20000040   Data           2  tim.o(.data)
    accelerator2                             0x20000042   Data           2  tim.o(.data)
    _i                                       0x20000044   Data           4  tim.o(.data)
    CRC_INIT                                 0x20000048   Data           2  crc.o(.data)
    sss                                      0x2000004a   Data           2  crc.o(.data)
    test_see_left                            0x2000004c   Data           4  motor.o(.data)
    test_see_right                           0x20000050   Data           4  motor.o(.data)
    SRC_Buffer                               0x20000054   Data         128  friction.o(.data)
    MotorPositionKp                          0x200000d4   Data           2  communicate.o(.data)
    MotorPositionKi                          0x200000d6   Data           2  communicate.o(.data)
    SendToSentry                             0x200000d8   Data           8  communicate.o(.data)
    position_x                               0x200000e0   Data           4  communicate.o(.data)
    position_y                               0x200000e4   Data           4  communicate.o(.data)
    position_z                               0x200000e8   Data           4  communicate.o(.data)
    position_yaw                             0x200000ec   Data           4  communicate.o(.data)
    bulletSpeed                              0x200000f0   Data           4  communicate.o(.data)
    yaw_feedback_angle                       0x200000f4   Data           4  communicate.o(.data)
    pitch_feedback_angle                     0x200000f8   Data           4  communicate.o(.data)
    TempPitch                                0x200000fc   Data           4  communicate.o(.data)
    TempYaw                                  0x20000100   Data           4  communicate.o(.data)
    floattoshort1                            0x20000104   Data           2  communicate.o(.data)
    floattoshort2                            0x20000108   Data           4  communicate.o(.data)
    pctick                                   0x2000010c   Data           4  communicate.o(.data)
    sequ                                     0x20000110   Data           1  communicate.o(.data)
    StartTask_Handler                        0x20000118   Data           4  start_task.o(.data)
    droneState                               0x2000011c   Data           6  selfcheck_task.o(.data)
    IMU_dis                                  0x20000128   Data           4  selfcheck_task.o(.data)
    gimbalinitTime                           0x20000130   Data           4  gimbal_task.o(.data)
    LastContralMode                          0x20000134   Data           2  gimbal_task.o(.data)
    Grativity                                0x20000138   Data           4  gimbal_task.o(.data)
    set_pitch                                0x2000013c   Data           4  gimbal_task.o(.data)
    set_yaw                                  0x20000140   Data           4  gimbal_task.o(.data)
    set_yaw_Motor                            0x20000144   Data           4  gimbal_task.o(.data)
    set_pitch_Motor                          0x20000148   Data           4  gimbal_task.o(.data)
    INCAngle_Low                             0x2000014c   Data           4  gimbal_task.o(.data)
    INCAngle_High                            0x20000150   Data           4  gimbal_task.o(.data)
    RC_IMU_control                           0x20000154   Data           4  gimbal_task.o(.data)
    RC_Motor_control                         0x20000158   Data           4  gimbal_task.o(.data)
    yaw_left_limit                           0x2000015c   Data           4  gimbal_task.o(.data)
    yaw_right_limit                          0x20000160   Data           4  gimbal_task.o(.data)
    pitch_high_limit_imu                     0x20000164   Data           4  gimbal_task.o(.data)
    pitch_low_limit_imu                      0x20000168   Data           4  gimbal_task.o(.data)
    pitch_high_limit_motor                   0x2000016c   Data           4  gimbal_task.o(.data)
    pitch_low_limit_motor                    0x20000170   Data           4  gimbal_task.o(.data)
    yaw_RC_sensitivity                       0x20000174   Data           4  gimbal_task.o(.data)
    pitch_RC_sensitivity                     0x20000178   Data           4  gimbal_task.o(.data)
    yaw_RC_sensitivity_motor                 0x2000017c   Data           4  gimbal_task.o(.data)
    pitch_RC_sensitivity_motor               0x20000180   Data           4  gimbal_task.o(.data)
    yaw_PC_Mouse_sensitivity                 0x20000184   Data           4  gimbal_task.o(.data)
    pitch_PC_Mouse_sensitivity               0x20000188   Data           4  gimbal_task.o(.data)
    yaw_PC_Mouse_sensitivity_motor           0x2000018c   Data           4  gimbal_task.o(.data)
    pitch_PC_Mouse_sensitivity_motor         0x20000190   Data           4  gimbal_task.o(.data)
    yaw_PC_Keyboard_sensitivity              0x20000194   Data           4  gimbal_task.o(.data)
    pitch_PC_Keyboard_sensitivity            0x20000198   Data           4  gimbal_task.o(.data)
    yaw_PC_Keyboard_sensitivity_motor        0x2000019c   Data           4  gimbal_task.o(.data)
    pitch_PC_Keyboard_sensitivity_motor      0x200001a0   Data           4  gimbal_task.o(.data)
    a                                        0x200001a4   Data           4  gimbal_task.o(.data)
    b                                        0x200001a8   Data           4  gimbal_task.o(.data)
    pluckmotor_speed                         0x200001ac   Data           4  shoot_task.o(.data)
    plunk_inc_speed                          0x200001b0   Data           4  shoot_task.o(.data)
    FrictionWheel_speed_stable1              0x200001b4   Data           2  shoot_task.o(.data)
    FrictionWheel_speed_stable2              0x200001b6   Data           2  shoot_task.o(.data)
    shoot_period                             0x200001b8   Data           2  shoot_task.o(.data)
    pluck_stop                               0x200001ba   Data           1  shoot_task.o(.data)
    pluck_stop_position                      0x200001bc   Data           4  shoot_task.o(.data)
    shoot_flag                               0x200001c0   Data           4  shoot_task.o(.data)
    quick_shoot_period                       0x200001c4   Data           2  shoot_task.o(.data)
    friction_speed_last                      0x200001c6   Data           4  shoot_task.o(.data)
    K1                                       0x200001cc   Data           4  shoot_task.o(.data)
    A                                        0x200001d0   Data           4  shoot_task.o(.data)
    new_value                                0x200001d4   Data           4  shoot_task.o(.data)
    old_value                                0x200001d8   Data           4  shoot_task.o(.data)
    shootinitTime                            0x200001dc   Data           4  shoot_task.o(.data)
    back_distance                            0x200001e0   Data           4  shoot_task.o(.data)
    back_decrease                            0x200001e4   Data           4  shoot_task.o(.data)
    DMAsendflag                              0x200001f4   Data           1  graphicssendtask.o(.data)
    optype                                   0x200001f5   Data           1  graphicssendtask.o(.data)
    Init_Cnt                                 0x200001f6   Data           1  graphicssendtask.o(.data)
    top_distance                             0x200001f8   Data           4  graphicssendtask.o(.data)
    bottom_distance                          0x200001fc   Data           4  graphicssendtask.o(.data)
    left_distance                            0x20000200   Data           4  graphicssendtask.o(.data)
    right_distance                           0x20000204   Data           4  graphicssendtask.o(.data)
    UITask_RunTime                           0x20000208   Data           4  graphicssendtask.o(.data)
    UISendTask_high_water                    0x2000020c   Data           4  graphicssendtask.o(.data)
    last_g_rising_flag                       0x20000210   Data           2  graphicssendtask.o(.data)
    UI_Change_Mode                           0x20000212   Data           2  graphicssendtask.o(.data)
    LastCtrl                                 0x2000027c   Data           2  actioncontrol_task.o(.data)
    LastShift                                0x2000027e   Data           2  actioncontrol_task.o(.data)
    ContralMode                              0x20000280   Data           2  actioncontrol_task.o(.data)
    LastRcS1                                 0x20000284   Data           4  actioncontrol_task.o(.data)
    shoot_mode                               0x20000288   Data           4  actioncontrol_task.o(.data)
    q_rising_flag                            0x2000028c   Data           2  actioncontrol_task.o(.data)
    w_rising_flag                            0x2000028e   Data           2  actioncontrol_task.o(.data)
    e_rising_flag                            0x20000290   Data           2  actioncontrol_task.o(.data)
    r_rising_flag                            0x20000292   Data           2  actioncontrol_task.o(.data)
    a_rising_flag                            0x20000294   Data           2  actioncontrol_task.o(.data)
    s_rising_flag                            0x20000296   Data           2  actioncontrol_task.o(.data)
    d_rising_flag                            0x20000298   Data           2  actioncontrol_task.o(.data)
    f_rising_flag                            0x2000029a   Data           2  actioncontrol_task.o(.data)
    g_rising_flag                            0x2000029c   Data           2  actioncontrol_task.o(.data)
    z_rising_flag                            0x2000029e   Data           2  actioncontrol_task.o(.data)
    x_rising_flag                            0x200002a0   Data           2  actioncontrol_task.o(.data)
    c_rising_flag                            0x200002a2   Data           2  actioncontrol_task.o(.data)
    v_rising_flag                            0x200002a4   Data           2  actioncontrol_task.o(.data)
    b_rising_flag                            0x200002a6   Data           2  actioncontrol_task.o(.data)
    shift_rising_flag                        0x200002a8   Data           2  actioncontrol_task.o(.data)
    ctrl_rising_flag                         0x200002aa   Data           2  actioncontrol_task.o(.data)
    mouse_Press_l_rising_flag                0x200002ac   Data           2  actioncontrol_task.o(.data)
    mouse_Press_r_rising_flag                0x200002ae   Data           2  actioncontrol_task.o(.data)
    pxCurrentTCB                             0x200002b0   Data           4  tasks.o(.data)
    FreeRTOSRuntimeTicks                     0x200002f8   Data           8  timers.o(.data)
    LastCNT32                                0x20000328   Data           4  counter.o(.data)
    FreeRTOSRunTimeTicks                     0x20000340   Data           4  os_tick.o(.data)
    ReceiveFromRC_Buff                       0x20000344   Data          18  uart.o(.bss)
    SendToPC_Buff                            0x20000356   Data          10  uart.o(.bss)
    ReceiveFromPC_Buff                       0x20000360   Data           9  uart.o(.bss)
    SendToAno_Buff                           0x20000369   Data          30  uart.o(.bss)
    SendToSentey_Buff                        0x20000387   Data         128  uart.o(.bss)
    ReceiveFromJUD_Buff                      0x20000407   Data          45  uart.o(.bss)
    ReceiveFromApp_Buff                      0x20000434   Data          90  uart.o(.bss)
    SendToApp_Buff                           0x2000048e   Data         100  uart.o(.bss)
    tempPC                                   0x200004f2   Data           9  uart.o(.bss)
    BIT                                      0x2000050d   Data          16  tim.o(.bss)
    RC_Ctl                                   0x20000520   Data          57  communicate.o(.bss)
    PC_Recv                                  0x2000055c   Data          20  communicate.o(.bss)
    JU_Recv                                  0x20000570   Data          36  communicate.o(.bss)
    Graph_config_integer                     0x20000594   Data          15  communicate.o(.bss)
    yaw                                      0x200005a4   Data         920  communicate.o(.bss)
    pitch                                    0x2000093c   Data         920  communicate.o(.bss)
    pluck                                    0x20000cd4   Data         532  communicate.o(.bss)
    frimition                                0x20000ee8   Data        1064  communicate.o(.bss)
    imu                                      0x20001310   Data          32  communicate.o(.bss)
    SaveBuffer                               0x20001330   Data          95  communicate.o(.bss)
    User_Tasks                               0x20001390   Data          32  start_task.o(.bss)
    JudgeSend                                0x200013b0   Data         128  graphicssendtask.o(.bss)
    Char_Change_Array                        0x20001430   Data          32  graphicssendtask.o(.bss)
    Transmit_Pack                            0x20001450   Data         128  graphicssendtask.o(.bss)
    data_pack                                0x200014d0   Data         105  graphicssendtask.o(.bss)
    rc_ctrl_last                             0x20001584   Data          57  actioncontrol_task.o(.bss)
    SysTime                                  0x200040a4   Data          12  counter.o(.bss)
    __initial_sp                             0x200048b0   Data           0  startup_stm32f40_41xxx.o(STACK)



==============================================================================

Memory Map of the image

  Image Entry point : 0x08000189

  Load Region LR_IROM1 (Base: 0x08000000, Size: 0x00008d34, Max: 0x00100000, ABSOLUTE, COMPRESSED[0x00008ac0])

    Execution Region ER_IROM1 (Exec base: 0x08000000, Load base: 0x08000000, Size: 0x000089f0, Max: 0x00100000, ABSOLUTE)

    Exec Addr    Load Addr    Size         Type   Attr      Idx    E Section Name        Object

    0x08000000   0x08000000   0x00000188   Data   RO          431    RESET               startup_stm32f40_41xxx.o
    0x08000188   0x08000188   0x00000000   Code   RO         5358  * .ARM.Collect$$$$00000000  mc_w.l(entry.o)
    0x08000188   0x08000188   0x00000004   Code   RO         5676    .ARM.Collect$$$$00000001  mc_w.l(entry2.o)
    0x0800018c   0x0800018c   0x00000004   Code   RO         5679    .ARM.Collect$$$$00000004  mc_w.l(entry5.o)
    0x08000190   0x08000190   0x00000000   Code   RO         5681    .ARM.Collect$$$$00000008  mc_w.l(entry7b.o)
    0x08000190   0x08000190   0x00000000   Code   RO         5683    .ARM.Collect$$$$0000000A  mc_w.l(entry8b.o)
    0x08000190   0x08000190   0x00000008   Code   RO         5684    .ARM.Collect$$$$0000000B  mc_w.l(entry9a.o)
    0x08000198   0x08000198   0x00000000   Code   RO         5686    .ARM.Collect$$$$0000000D  mc_w.l(entry10a.o)
    0x08000198   0x08000198   0x00000000   Code   RO         5688    .ARM.Collect$$$$0000000F  mc_w.l(entry11a.o)
    0x08000198   0x08000198   0x00000004   Code   RO         5677    .ARM.Collect$$$$00002712  mc_w.l(entry2.o)
    0x0800019c   0x0800019c   0x000000b6   Code   RO         4781    .emb_text           port.o
    0x08000252   0x08000252   0x00000002   PAD
    0x08000254   0x08000254   0x00000024   Code   RO          432    .text               startup_stm32f40_41xxx.o
    0x08000278   0x08000278   0x00000024   Code   RO         5361    .text               mc_w.l(memcpya.o)
    0x0800029c   0x0800029c   0x00000024   Code   RO         5363    .text               mc_w.l(memseta.o)
    0x080002c0   0x080002c0   0x0000014e   Code   RO         5632    .text               mf_w.l(dadd.o)
    0x0800040e   0x0800040e   0x000000e4   Code   RO         5634    .text               mf_w.l(dmul.o)
    0x080004f2   0x080004f2   0x0000001a   Code   RO         5638    .text               mf_w.l(dfltui.o)
    0x0800050c   0x0800050c   0x00000032   Code   RO         5642    .text               mf_w.l(dfixui.o)
    0x0800053e   0x0800053e   0x00000026   Code   RO         5644    .text               mf_w.l(f2d.o)
    0x08000564   0x08000564   0x00000038   Code   RO         5646    .text               mf_w.l(d2f.o)
    0x0800059c   0x0800059c   0x0000001e   Code   RO         5695    .text               mc_w.l(llshl.o)
    0x080005ba   0x080005ba   0x00000020   Code   RO         5697    .text               mc_w.l(llushr.o)
    0x080005da   0x080005da   0x00000024   Code   RO         5699    .text               mc_w.l(llsshr.o)
    0x080005fe   0x080005fe   0x00000000   Code   RO         5708    .text               mc_w.l(iusefp.o)
    0x080005fe   0x080005fe   0x0000006e   Code   RO         5709    .text               mf_w.l(fepilogue.o)
    0x0800066c   0x0800066c   0x000000ba   Code   RO         5711    .text               mf_w.l(depilogue.o)
    0x08000726   0x08000726   0x00000002   PAD
    0x08000728   0x08000728   0x00000024   Code   RO         5729    .text               mc_w.l(init.o)
    0x0800074c   0x0800074c   0x00000056   Code   RO         5741    .text               mc_w.l(__dczerorl2.o)
    0x080007a2   0x080007a2   0x00000002   PAD
    0x080007a4   0x080007a4   0x00000040   Code   RO         4047    i.ActionControl_task  actioncontrol_task.o
    0x080007e4   0x080007e4   0x00000020   Code   RO         3531    i.AppReceive        communicate.o
    0x08000804   0x08000804   0x00000030   Code   RO         3355    i.Append_CRC16_Check_Sum  crc.o
    0x08000834   0x08000834   0x00000024   Code   RO         3356    i.Append_CRC8_Check_Sum  crc.o
    0x08000858   0x08000858   0x00000150   Code   RO         3752    i.Auto_gimbal       gimbal_task.o
    0x080009a8   0x080009a8   0x00000014   Code   RO         2909    i.BLUE_OFF          led.o
    0x080009bc   0x080009bc   0x00000014   Code   RO         2910    i.BLUE_ON           led.o
    0x080009d0   0x080009d0   0x00000014   Code   RO         2911    i.BLUE_TOGGLE       led.o
    0x080009e4   0x080009e4   0x00000004   Code   RO          315    i.BusFault_Handler  stm32f4xx_it.o
    0x080009e8   0x080009e8   0x00000034   Code   RO         3179    i.CAN1_RX0_IRQHandler  can.o
    0x08000a1c   0x08000a1c   0x00000034   Code   RO         3180    i.CAN1_RX1_IRQHandler  can.o
    0x08000a50   0x08000a50   0x0000001c   Code   RO         3181    i.CAN1_TX_IRQHandler  can.o
    0x08000a6c   0x08000a6c   0x00000034   Code   RO         3182    i.CAN2_RX0_IRQHandler  can.o
    0x08000aa0   0x08000aa0   0x00000034   Code   RO         3183    i.CAN2_RX1_IRQHandler  can.o
    0x08000ad4   0x08000ad4   0x0000001c   Code   RO         3184    i.CAN2_TX_IRQHandler  can.o
    0x08000af0   0x08000af0   0x000000a8   Code   RO          484    i.CAN_ClearITPendingBit  stm32f4xx_can.o
    0x08000b98   0x08000b98   0x00000038   Code   RO          486    i.CAN_DeInit        stm32f4xx_can.o
    0x08000bd0   0x08000bd0   0x00000108   Code   RO          488    i.CAN_FilterInit    stm32f4xx_can.o
    0x08000cd8   0x08000cd8   0x00000120   Code   RO          490    i.CAN_GetITStatus   stm32f4xx_can.o
    0x08000df8   0x08000df8   0x00000012   Code   RO          494    i.CAN_ITConfig      stm32f4xx_can.o
    0x08000e0a   0x08000e0a   0x00000114   Code   RO          495    i.CAN_Init          stm32f4xx_can.o
    0x08000f1e   0x08000f1e   0x000000f0   Code   RO          498    i.CAN_Receive       stm32f4xx_can.o
    0x0800100e   0x0800100e   0x00000020   Code   RO          501    i.CAN_StructInit    stm32f4xx_can.o
    0x0800102e   0x0800102e   0x00000126   Code   RO          503    i.CAN_Transmit      stm32f4xx_can.o
    0x08001154   0x08001154   0x00000054   Code   RO         4921    i.COUNTER_Configuration  counter.o
    0x080011a8   0x080011a8   0x000000e0   Code   RO         3532    i.Can1Receive0      communicate.o
    0x08001288   0x08001288   0x00000148   Code   RO         3533    i.Can1Receive1      communicate.o
    0x080013d0   0x080013d0   0x00000006   Code   RO         3534    i.Can2Receive0      communicate.o
    0x080013d6   0x080013d6   0x00000002   PAD
    0x080013d8   0x080013d8   0x00000070   Code   RO         3535    i.Can2Receive1      communicate.o
    0x08001448   0x08001448   0x000000f8   Code   RO         4048    i.ChangeMode        actioncontrol_task.o
    0x08001540   0x08001540   0x00000128   Code   RO         4049    i.Change_Sensitivity  actioncontrol_task.o
    0x08001668   0x08001668   0x000000c4   Code   RO         3920    i.CharGraphic_Draw  graphicssendtask.o
    0x0800172c   0x0800172c   0x00000078   Code   RO         3921    i.Char_Draw         graphicssendtask.o
    0x080017a4   0x080017a4   0x000000f8   Code   RO         3922    i.Char_Init         graphicssendtask.o
    0x0800189c   0x0800189c   0x00000012   Code   RO          506    i.CheckITStatus     stm32f4xx_can.o
    0x080018ae   0x080018ae   0x00000002   PAD
    0x080018b0   0x080018b0   0x00000014   Code   RO         4766    i.ConfigureTimeForRunTimeStatus  timers.o
    0x080018c4   0x080018c4   0x00000020   Code   RO          697    i.DBGMCU_Config     stm32f4xx_dbgmcu.o
    0x080018e4   0x080018e4   0x0000003c   Code   RO         3064    i.DMA1_Stream0_IRQHandler  uart.o
    0x08001920   0x08001920   0x0000009c   Code   RO         3065    i.DMA1_Stream2_IRQHandler  uart.o
    0x080019bc   0x080019bc   0x0000003c   Code   RO         3066    i.DMA1_Stream4_IRQHandler  uart.o
    0x080019f8   0x080019f8   0x00000038   Code   RO         3067    i.DMA1_Stream7_IRQHandler  uart.o
    0x08001a30   0x08001a30   0x0000006c   Code   RO         3456    i.DMA2_Stream1_IRQHandler  friction.o
    0x08001a9c   0x08001a9c   0x0000002c   Code   RO         3068    i.DMA2_Stream2_IRQHandler  uart.o
    0x08001ac8   0x08001ac8   0x0000003c   Code   RO         3069    i.DMA2_Stream7_IRQHandler  uart.o
    0x08001b04   0x08001b04   0x00000034   Code   RO          739    i.DMA_ClearFlag     stm32f4xx_dma.o
    0x08001b38   0x08001b38   0x00000034   Code   RO          740    i.DMA_ClearITPendingBit  stm32f4xx_dma.o
    0x08001b6c   0x08001b6c   0x00000016   Code   RO          741    i.DMA_Cmd           stm32f4xx_dma.o
    0x08001b82   0x08001b82   0x00000002   PAD
    0x08001b84   0x08001b84   0x00000158   Code   RO          742    i.DMA_DeInit        stm32f4xx_dma.o
    0x08001cdc   0x08001cdc   0x00000008   Code   RO          747    i.DMA_GetCurrDataCounter  stm32f4xx_dma.o
    0x08001ce4   0x08001ce4   0x00000044   Code   RO          750    i.DMA_GetFlagStatus  stm32f4xx_dma.o
    0x08001d28   0x08001d28   0x00000064   Code   RO          751    i.DMA_GetITStatus   stm32f4xx_dma.o
    0x08001d8c   0x08001d8c   0x0000003a   Code   RO          752    i.DMA_ITConfig      stm32f4xx_dma.o
    0x08001dc6   0x08001dc6   0x00000002   PAD
    0x08001dc8   0x08001dc8   0x00000058   Code   RO          753    i.DMA_Init          stm32f4xx_dma.o
    0x08001e20   0x08001e20   0x00000004   Code   RO          756    i.DMA_SetCurrDataCounter  stm32f4xx_dma.o
    0x08001e24   0x08001e24   0x00000002   Code   RO          316    i.DebugMon_Handler  stm32f4xx_it.o
    0x08001e26   0x08001e26   0x00000002   PAD
    0x08001e28   0x08001e28   0x000000f8   Code   RO         3625    i.FeedForwardInit   feedforward.o
    0x08001f20   0x08001f20   0x0000008e   Code   RO         3626    i.FeedForward_Cal   feedforward.o
    0x08001fae   0x08001fae   0x00000002   PAD
    0x08001fb0   0x08001fb0   0x00000108   Code   RO         3925    i.FloatData_Draw    graphicssendtask.o
    0x080020b8   0x080020b8   0x00000080   Code   RO         3926    i.FrictionMode_Change  graphicssendtask.o
    0x08002138   0x08002138   0x000000a4   Code   RO         3242    i.Fuzzy_PID_struct_init  pid.o
    0x080021dc   0x080021dc   0x00000052   Code   RO         3243    i.Fuzzy_pid_param_init  pid.o
    0x0800222e   0x0800222e   0x00000002   PAD
    0x08002230   0x08002230   0x00000048   Code   RO         3244    i.Fuzzy_pid_reset   pid.o
    0x08002278   0x08002278   0x000000b4   Code   RO         3409    i.GM6020_Send_can1  motor.o
    0x0800232c   0x0800232c   0x00000494   Code   RO         3410    i.GM6020_control    motor.o
    0x080027c0   0x080027c0   0x00000090   Code   RO         1184    i.GPIO_Init         stm32f4xx_gpio.o
    0x08002850   0x08002850   0x00000046   Code   RO         1185    i.GPIO_PinAFConfig  stm32f4xx_gpio.o
    0x08002896   0x08002896   0x00000004   Code   RO         1191    i.GPIO_ResetBits    stm32f4xx_gpio.o
    0x0800289a   0x0800289a   0x00000004   Code   RO         1192    i.GPIO_SetBits      stm32f4xx_gpio.o
    0x0800289e   0x0800289e   0x00000008   Code   RO         1194    i.GPIO_ToggleBits   stm32f4xx_gpio.o
    0x080028a6   0x080028a6   0x00000002   PAD
    0x080028a8   0x080028a8   0x00000034   Code   RO         3357    i.Get_CRC16_Check_Sum  crc.o
    0x080028dc   0x080028dc   0x00000024   Code   RO         3358    i.Get_CRC8_Check_Sum  crc.o
    0x08002900   0x08002900   0x00000014   Code   RO         3492    i.Get_ZeroCheck_Value_Interface  zerocheck.o
    0x08002914   0x08002914   0x000000e0   Code   RO         3927    i.GimbalMode_Change  graphicssendtask.o
    0x080029f4   0x080029f4   0x000000b8   Code   RO         3928    i.GraphicSendtask   graphicssendtask.o
    0x08002aac   0x08002aac   0x00000004   Code   RO          317    i.HardFault_Handler  stm32f4xx_it.o
    0x08002ab0   0x08002ab0   0x000000b0   Code   RO         3753    i.IMU_Control_Limit  gimbal_task.o
    0x08002b60   0x08002b60   0x00000024   Code   RO         3652    i.IWDG_Config       iwdg.o
    0x08002b84   0x08002b84   0x00000010   Code   RO         2839    i.IWDG_Enable       stm32f4xx_iwdg.o
    0x08002b94   0x08002b94   0x00000008   Code   RO         3653    i.IWDG_Feed         iwdg.o
    0x08002b9c   0x08002b9c   0x00000010   Code   RO         2841    i.IWDG_ReloadCounter  stm32f4xx_iwdg.o
    0x08002bac   0x08002bac   0x0000000c   Code   RO         2842    i.IWDG_SetPrescaler  stm32f4xx_iwdg.o
    0x08002bb8   0x08002bb8   0x0000000c   Code   RO         2843    i.IWDG_SetReload    stm32f4xx_iwdg.o
    0x08002bc4   0x08002bc4   0x0000000c   Code   RO         2844    i.IWDG_WriteAccessCmd  stm32f4xx_iwdg.o
    0x08002bd0   0x08002bd0   0x00000170   Code   RO         3754    i.ImugimbalTask     gimbal_task.o
    0x08002d40   0x08002d40   0x0000031c   Code   RO         3536    i.JudgeReceive      communicate.o
    0x0800305c   0x0800305c   0x00000010   Code   RO         3895    i.JudgeTask         judge_task.o
    0x0800306c   0x0800306c   0x000000a4   Code   RO         3929    i.Line_Draw         graphicssendtask.o
    0x08003110   0x08003110   0x00000108   Code   RO         3755    i.Lost_gimbal       gimbal_task.o
    0x08003218   0x08003218   0x000000f8   Code   RO         3411    i.M2006_Send_Can1   motor.o
    0x08003310   0x08003310   0x00000148   Code   RO         3412    i.M2006_control     motor.o
    0x08003458   0x08003458   0x00000004   Code   RO          318    i.MemManage_Handler  stm32f4xx_it.o
    0x0800345c   0x0800345c   0x00000002   Code   RO          319    i.NMI_Handler       stm32f4xx_it.o
    0x0800345e   0x0800345e   0x00000002   PAD
    0x08003460   0x08003460   0x00000078   Code   RO          438    i.NVIC_Init         misc.o
    0x080034d8   0x080034d8   0x0000006c   Code   RO         5019    i.OS_TICK_Configuration  os_tick.o
    0x08003544   0x08003544   0x0000007c   Code   RO         3538    i.PCReceive         communicate.o
    0x080035c0   0x080035c0   0x000000fc   Code   RO         3539    i.PCSend            communicate.o
    0x080036bc   0x080036bc   0x000003f8   Code   RO         3756    i.PC_gimbal         gimbal_task.o
    0x08003ab4   0x08003ab4   0x00000060   Code   RO         3245    i.PID_struct_init   pid.o
    0x08003b14   0x08003b14   0x00000070   Code   RO         3930    i.PitchUI_Change    graphicssendtask.o
    0x08003b84   0x08003b84   0x00000048   Code   RO         3757    i.Plane_ID_Init     gimbal_task.o
    0x08003bcc   0x08003bcc   0x00000024   Code   RO         3822    i.Plane_ID_Shoot_Config  shoot_task.o
    0x08003bf0   0x08003bf0   0x00000020   Code   RO         1505    i.RCC_AHB1PeriphClockCmd  stm32f4xx_rcc.o
    0x08003c10   0x08003c10   0x00000020   Code   RO         1514    i.RCC_APB1PeriphClockCmd  stm32f4xx_rcc.o
    0x08003c30   0x08003c30   0x00000020   Code   RO         1516    i.RCC_APB1PeriphResetCmd  stm32f4xx_rcc.o
    0x08003c50   0x08003c50   0x00000020   Code   RO         1517    i.RCC_APB2PeriphClockCmd  stm32f4xx_rcc.o
    0x08003c70   0x08003c70   0x000000e8   Code   RO         1526    i.RCC_GetClocksFreq  stm32f4xx_rcc.o
    0x08003d58   0x08003d58   0x000002fc   Code   RO         3758    i.RC_gimbal         gimbal_task.o
    0x08004054   0x08004054   0x00000014   Code   RO         2916    i.RED_OFF           led.o
    0x08004068   0x08004068   0x00000014   Code   RO         2917    i.RED_ON            led.o
    0x0800407c   0x0800407c   0x000001c8   Code   RO         3540    i.RemoteReceive     communicate.o
    0x08004244   0x08004244   0x00000060   Code   RO         3708    i.SelfcheckTask     selfcheck_task.o
    0x080042a4   0x080042a4   0x0000004c   Code   RO         3932    i.Send_UIPack       graphicssendtask.o
    0x080042f0   0x080042f0   0x000000a0   Code   RO         3933    i.Send_toReferee    graphicssendtask.o
    0x08004390   0x08004390   0x000000ec   Code   RO          394    i.SetSysClock       system_stm32f4xx.o
    0x0800447c   0x0800447c   0x000005c8   Code   RO         3934    i.ShootLines_Init   graphicssendtask.o
    0x08004a44   0x08004a44   0x00000468   Code   RO         3823    i.ShootTask         shoot_task.o
    0x08004eac   0x08004eac   0x00000118   Code   RO         3678    i.StartTask         start_task.o
    0x08004fc4   0x08004fc4   0x00000034   Code   RO         4782    i.SysTick_Handler   port.o
    0x08004ff8   0x08004ff8   0x00000068   Code   RO          396    i.SystemInit        system_stm32f4xx.o
    0x08005060   0x08005060   0x00000010   Code   RO         3312    i.TIM3_IRQHandler   tim.o
    0x08005070   0x08005070   0x000002a8   Code   RO         3313    i.TIM4_IRQHandler   tim.o
    0x08005318   0x08005318   0x00000028   Code   RO         5020    i.TIM7_IRQHandler   os_tick.o
    0x08005340   0x08005340   0x00000006   Code   RO         2099    i.TIM_ClearFlag     stm32f4xx_tim.o
    0x08005346   0x08005346   0x00000006   Code   RO         2100    i.TIM_ClearITPendingBit  stm32f4xx_tim.o
    0x0800534c   0x0800534c   0x00000018   Code   RO         2105    i.TIM_Cmd           stm32f4xx_tim.o
    0x08005364   0x08005364   0x0000001e   Code   RO         2107    i.TIM_CtrlPWMOutputs  stm32f4xx_tim.o
    0x08005382   0x08005382   0x00000012   Code   RO         2108    i.TIM_DMACmd        stm32f4xx_tim.o
    0x08005394   0x08005394   0x00000022   Code   RO         2126    i.TIM_GetITStatus   stm32f4xx_tim.o
    0x080053b6   0x080053b6   0x00000012   Code   RO         2130    i.TIM_ITConfig      stm32f4xx_tim.o
    0x080053c8   0x080053c8   0x0000007c   Code   RO         2134    i.TIM_OC1Init       stm32f4xx_tim.o
    0x08005444   0x08005444   0x000000a4   Code   RO         2139    i.TIM_OC2Init       stm32f4xx_tim.o
    0x080054e8   0x080054e8   0x00000004   Code   RO         2167    i.TIM_SetCompare1   stm32f4xx_tim.o
    0x080054ec   0x080054ec   0x00000004   Code   RO         2168    i.TIM_SetCompare2   stm32f4xx_tim.o
    0x080054f0   0x080054f0   0x00000084   Code   RO         2177    i.TIM_TimeBaseInit  stm32f4xx_tim.o
    0x08005574   0x08005574   0x00000020   Code   RO         3070    i.UART4_IRQHandler  uart.o
    0x08005594   0x08005594   0x0000001c   Code   RO         3071    i.UART5_IRQHandler  uart.o
    0x080055b0   0x080055b0   0x00000200   Code   RO         3935    i.UI_Distance_Change  graphicssendtask.o
    0x080057b0   0x080057b0   0x00000048   Code   RO         3936    i.UI_Distance_Init  graphicssendtask.o
    0x080057f8   0x080057f8   0x0000001c   Code   RO         3072    i.USART1_IRQHandler  uart.o
    0x08005814   0x08005814   0x00000060   Code   RO         3073    i.USART3_IRQHandler  uart.o
    0x08005874   0x08005874   0x00000018   Code   RO         2655    i.USART_Cmd         stm32f4xx_usart.o
    0x0800588c   0x0800588c   0x00000012   Code   RO         2656    i.USART_DMACmd      stm32f4xx_usart.o
    0x0800589e   0x0800589e   0x00000054   Code   RO         2659    i.USART_GetITStatus  stm32f4xx_usart.o
    0x080058f2   0x080058f2   0x0000004a   Code   RO         2661    i.USART_ITConfig    stm32f4xx_usart.o
    0x0800593c   0x0800593c   0x000000d4   Code   RO         2662    i.USART_Init        stm32f4xx_usart.o
    0x08005a10   0x08005a10   0x00000008   Code   RO         2672    i.USART_SendData    stm32f4xx_usart.o
    0x08005a18   0x08005a18   0x00000004   Code   RO          320    i.UsageFault_Handler  stm32f4xx_it.o
    0x08005a1c   0x08005a1c   0x00000040   Code   RO         3359    i.Verify_CRC16_Check_Sum  crc.o
    0x08005a5c   0x08005a5c   0x00000038   Code   RO         3360    i.Verify_CRC8_Check_Sum  crc.o
    0x08005a94   0x08005a94   0x00000070   Code   RO         3937    i.YawUI_Change      graphicssendtask.o
    0x08005b04   0x08005b04   0x00000028   Code   RO         3494    i.ZeroCheck_Init_Interface  zerocheck.o
    0x08005b2c   0x08005b2c   0x000000b0   Code   RO         3495    i.ZeroCheck_cal     zerocheck.o
    0x08005bdc   0x08005bdc   0x0000000e   Code   RO         5735    i.__scatterload_copy  mc_w.l(handlers.o)
    0x08005bea   0x08005bea   0x00000002   Code   RO         5736    i.__scatterload_null  mc_w.l(handlers.o)
    0x08005bec   0x08005bec   0x0000000e   Code   RO         5737    i.__scatterload_zeroinit  mc_w.l(handlers.o)
    0x08005bfa   0x08005bfa   0x0000002e   Code   RO         3246    i.abs_limit         pid.o
    0x08005c28   0x08005c28   0x00000010   Code   RO         3709    i.checkComponent    selfcheck_task.o
    0x08005c38   0x08005c38   0x00000034   Code   RO         3710    i.device_lost_reset  selfcheck_task.o
    0x08005c6c   0x08005c6c   0x00000340   Code   RO         3759    i.imugimbal_config  gimbal_task.o
    0x08005fac   0x08005fac   0x000000a8   Code   RO         4050    i.key_refresh       actioncontrol_task.o
    0x08006054   0x08006054   0x00000170   Code   RO         4051    i.key_rising_check  actioncontrol_task.o
    0x080061c4   0x080061c4   0x00000070   Code   RO         2919    i.led_AimAssist     led.o
    0x08006234   0x08006234   0x0000000c   Code   RO         2920    i.led_Gimbal_powerOff  led.o
    0x08006240   0x08006240   0x00000058   Code   RO         2921    i.led_IMU_Lost      led.o
    0x08006298   0x08006298   0x00000002   Code   RO         2922    i.led_Pitch_Lost    led.o
    0x0800629a   0x0800629a   0x00000002   PAD
    0x0800629c   0x0800629c   0x00000080   Code   RO         2923    i.led_Pluck_Lost    led.o
    0x0800631c   0x0800631c   0x00000080   Code   RO         2924    i.led_RC_Lost       led.o
    0x0800639c   0x0800639c   0x00000058   Code   RO         2925    i.led_YAW_Lost      led.o
    0x080063f4   0x080063f4   0x0000000c   Code   RO         2926    i.led_error         led.o
    0x08006400   0x08006400   0x00000050   Code   RO         2927    i.led_normal        led.o
    0x08006450   0x08006450   0x0000000c   Code   RO         2928    i.led_selfCheck     led.o
    0x0800645c   0x0800645c   0x00000084   Code   RO         3711    i.led_update        selfcheck_task.o
    0x080064e0   0x080064e0   0x00000028   Code   RO         3760    i.limit_max_min     gimbal_task.o
    0x08006508   0x08006508   0x0000001e   Code   RO            3    i.main              main.o
    0x08006526   0x08006526   0x00000002   PAD
    0x08006528   0x08006528   0x00000130   Code   RO         3413    i.motor_PID_cal     motor.o
    0x08006658   0x08006658   0x000000ba   Code   RO         3248    i.pid_calc          pid.o
    0x08006712   0x08006712   0x00000014   Code   RO         3249    i.pid_param_init    pid.o
    0x08006726   0x08006726   0x00000002   PAD
    0x08006728   0x08006728   0x00000034   Code   RO         3250    i.pid_reset         pid.o
    0x0800675c   0x0800675c   0x00000098   Code   RO         4445    i.prvAddCurrentTaskToDelayedList  tasks.o
    0x080067f4   0x080067f4   0x000000b8   Code   RO         4446    i.prvAddNewTaskToReadyList  tasks.o
    0x080068ac   0x080068ac   0x00000064   Code   RO         4447    i.prvCheckTasksWaitingTermination  tasks.o
    0x08006910   0x08006910   0x00000012   Code   RO         4448    i.prvDeleteTCB      tasks.o
    0x08006922   0x08006922   0x00000002   PAD
    0x08006924   0x08006924   0x0000007c   Code   RO         4858    i.prvHeapInit       heap_4.o
    0x080069a0   0x080069a0   0x00000028   Code   RO         4449    i.prvIdleTask       tasks.o
    0x080069c8   0x080069c8   0x000000b4   Code   RO         4450    i.prvInitialiseNewTask  tasks.o
    0x08006a7c   0x08006a7c   0x00000068   Code   RO         4451    i.prvInitialiseTaskLists  tasks.o
    0x08006ae4   0x08006ae4   0x00000068   Code   RO         4859    i.prvInsertBlockIntoFreeList  heap_4.o
    0x08006b4c   0x08006b4c   0x00000034   Code   RO         4453    i.prvResetNextTaskUnblockTime  tasks.o
    0x08006b80   0x08006b80   0x00000040   Code   RO         4783    i.prvTaskExitError  port.o
    0x08006bc0   0x08006bc0   0x0000013c   Code   RO         4860    i.pvPortMalloc      heap_4.o
    0x08006cfc   0x08006cfc   0x0000002c   Code   RO         4784    i.pxPortInitialiseStack  port.o
    0x08006d28   0x08006d28   0x0000010c   Code   RO         3712    i.selfCheck_update  selfcheck_task.o
    0x08006e34   0x08006e34   0x000000f4   Code   RO         3827    i.shoot_config      shoot_task.o
    0x08006f28   0x08006f28   0x0000005c   Code   RO         4052    i.shoot_mode_check  actioncontrol_task.o
    0x08006f84   0x08006f84   0x00000028   Code   RO         4242    i.uxListRemove      list.o
    0x08006fac   0x08006fac   0x00000148   Code   RO         3185    i.vCan1Config       can.o
    0x080070f4   0x080070f4   0x0000013c   Code   RO         3186    i.vCan2Config       can.o
    0x08007230   0x08007230   0x0000002c   Code   RO         3679    i.vCreateStartTask  start_task.o
    0x0800725c   0x0800725c   0x0000001c   Code   RO            4    i.vDelayMsForInit   main.o
    0x08007278   0x08007278   0x000000b4   Code   RO         3458    i.vFrictionConfig   friction.o
    0x0800732c   0x0800732c   0x0000003c   Code   RO         3044    i.vLaserGpioConfig  laser.o
    0x08007368   0x08007368   0x00000080   Code   RO         2929    i.vLedGpioConfig    led.o
    0x080073e8   0x080073e8   0x0000001a   Code   RO         4243    i.vListInitialise   list.o
    0x08007402   0x08007402   0x00000006   Code   RO         4244    i.vListInitialiseItem  list.o
    0x08007408   0x08007408   0x00000034   Code   RO         4245    i.vListInsert       list.o
    0x0800743c   0x0800743c   0x00000018   Code   RO         4246    i.vListInsertEnd    list.o
    0x08007454   0x08007454   0x0000020a   Code   RO         2889    i.vNvicConfig       nvic.o
    0x0800765e   0x0800765e   0x00000002   PAD
    0x08007660   0x08007660   0x00000054   Code   RO         4786    i.vPortEnterCritical  port.o
    0x080076b4   0x080076b4   0x0000003c   Code   RO         4787    i.vPortExitCritical  port.o
    0x080076f0   0x080076f0   0x00000094   Code   RO         4861    i.vPortFree         heap_4.o
    0x08007784   0x08007784   0x00000020   Code   RO         4788    i.vPortSetupTimerInterrupt  port.o
    0x080077a4   0x080077a4   0x00000044   Code   RO            5    i.vSystemInit       main.o
    0x080077e8   0x080077e8   0x0000005c   Code   RO         4464    i.vTaskDelay        tasks.o
    0x08007844   0x08007844   0x000000f4   Code   RO         4466    i.vTaskDelete       tasks.o
    0x08007938   0x08007938   0x0000008c   Code   RO         4479    i.vTaskStartScheduler  tasks.o
    0x080079c4   0x080079c4   0x00000010   Code   RO         4481    i.vTaskSuspendAll   tasks.o
    0x080079d4   0x080079d4   0x000000cc   Code   RO         4482    i.vTaskSwitchContext  tasks.o
    0x08007aa0   0x08007aa0   0x00000040   Code   RO         3314    i.vTim3Config       tim.o
    0x08007ae0   0x08007ae0   0x00000040   Code   RO         3315    i.vTim4Config       tim.o
    0x08007b20   0x08007b20   0x000001d0   Code   RO         3075    i.vUart1Config      uart.o
    0x08007cf0   0x08007cf0   0x000001b0   Code   RO         3076    i.vUart2Config      uart.o
    0x08007ea0   0x08007ea0   0x0000010c   Code   RO         3077    i.vUart3Config      uart.o
    0x08007fac   0x08007fac   0x0000018c   Code   RO         3078    i.vUart4Config      uart.o
    0x08008138   0x08008138   0x000001a0   Code   RO         3079    i.vUart5Config      uart.o
    0x080082d8   0x080082d8   0x0000013c   Code   RO         4790    i.xPortStartScheduler  port.o
    0x08008414   0x08008414   0x00000060   Code   RO         4484    i.xTaskCreate       tasks.o
    0x08008474   0x08008474   0x0000000c   Code   RO         4487    i.xTaskGetTickCount  tasks.o
    0x08008480   0x08008480   0x00000148   Code   RO         4489    i.xTaskIncrementTick  tasks.o
    0x080085c8   0x080085c8   0x00000104   Code   RO         4494    i.xTaskResumeAll    tasks.o
    0x080086cc   0x080086cc   0x00000301   Data   RO         3361    .constdata          crc.o
    0x080089cd   0x080089cd   0x00000003   PAD
    0x080089d0   0x080089d0   0x00000020   Data   RO         5733    Region$$Table       anon$$obj.o


    Execution Region RW_IRAM2 (Exec base: 0x10000000, Load base: 0x08008ac0, Size: 0x00000000, Max: 0x00010000, ABSOLUTE)

    **** No section assigned to this execution region ****


    Execution Region RW_IRAM1 (Exec base: 0x20000000, Load base: 0x080089f0, Size: 0x000048b0, Max: 0x00020000, ABSOLUTE, COMPRESSED[0x000000d0])

    Exec Addr    Load Addr    Size         Type   Attr      Idx    E Section Name        Object

    0x20000000   COMPRESSED   0x00000014   Data   RW          397    .data               system_stm32f4xx.o
    0x20000014   COMPRESSED   0x00000010   Data   RW         1558    .data               stm32f4xx_rcc.o
    0x20000024   COMPRESSED   0x00000018   Data   RW         2930    .data               led.o
    0x2000003c   COMPRESSED   0x00000004   Data   RW         3081    .data               uart.o
    0x20000040   COMPRESSED   0x00000008   Data   RW         3317    .data               tim.o
    0x20000048   COMPRESSED   0x00000004   Data   RW         3362    .data               crc.o
    0x2000004c   COMPRESSED   0x00000008   Data   RW         3414    .data               motor.o
    0x20000054   COMPRESSED   0x00000080   Data   RW         3459    .data               friction.o
    0x200000d4   COMPRESSED   0x00000044   Data   RW         3544    .data               communicate.o
    0x20000118   COMPRESSED   0x00000004   Data   RW         3681    .data               start_task.o
    0x2000011c   COMPRESSED   0x00000014   Data   RW         3713    .data               selfcheck_task.o
    0x20000130   COMPRESSED   0x0000007c   Data   RW         3761    .data               gimbal_task.o
    0x200001ac   COMPRESSED   0x00000046   Data   RW         3828    .data               shoot_task.o
    0x200001f2   COMPRESSED   0x00000002   PAD
    0x200001f4   COMPRESSED   0x00000085   Data   RW         3939    .data               graphicssendtask.o
    0x20000279   COMPRESSED   0x00000003   PAD
    0x2000027c   COMPRESSED   0x00000034   Data   RW         4054    .data               actioncontrol_task.o
    0x200002b0   COMPRESSED   0x00000044   Data   RW         4497    .data               tasks.o
    0x200002f4   COMPRESSED   0x00000004   PAD
    0x200002f8   COMPRESSED   0x00000008   Data   RW         4767    .data               timers.o
    0x20000300   COMPRESSED   0x0000000c   Data   RW         4791    .data               port.o
    0x2000030c   COMPRESSED   0x00000018   Data   RW         4866    .data               heap_4.o
    0x20000324   COMPRESSED   0x00000004   PAD
    0x20000328   COMPRESSED   0x00000018   Data   RW         4931    .data               counter.o
    0x20000340   COMPRESSED   0x00000004   Data   RW         5021    .data               os_tick.o
    0x20000344        -       0x000001c9   Zero   RW         3080    .bss                uart.o
    0x2000050d        -       0x00000010   Zero   RW         3316    .bss                tim.o
    0x2000051d   COMPRESSED   0x00000003   PAD
    0x20000520        -       0x00000e6f   Zero   RW         3543    .bss                communicate.o
    0x2000138f   COMPRESSED   0x00000001   PAD
    0x20001390        -       0x00000020   Zero   RW         3680    .bss                start_task.o
    0x200013b0        -       0x000001d4   Zero   RW         3938    .bss                graphicssendtask.o
    0x20001584        -       0x00000039   Zero   RW         4053    .bss                actioncontrol_task.o
    0x200015bd   COMPRESSED   0x00000003   PAD
    0x200015c0        -       0x000002e4   Zero   RW         4496    .bss                tasks.o
    0x200018a4        -       0x00002800   Zero   RW         4865    .bss                heap_4.o
    0x200040a4        -       0x0000000c   Zero   RW         4930    .bss                counter.o
    0x200040b0        -       0x00000800   Zero   RW          429    STACK               startup_stm32f40_41xxx.o


==============================================================================

Image component sizes


      Code (inc. data)   RO Data    RW Data    ZI Data      Debug   Object Name

      1236        184          0         52         57       4872   actioncontrol_task.o
       908         48          0          0          0       4822   can.o
      2330        122          0         68       3695       9728   communicate.o
        84         10          0         24         12       1684   counter.o
       292         26        769          4          0       5070   crc.o
         0          0          0          0          0       9420   event_groups.o
       390         18          0          0          0       1628   feedforward.o
       288         24          0        128          0       1909   friction.o
      3868        576          0        124          0       8231   gimbal_task.o
      4052        428          0        133        468      16687   graphicssendtask.o
       692         62          0         24      10240       7023   heap_4.o
        44          0          0          0          0       1082   iwdg.o
        16          0          0          0          0        985   judge_task.o
        60          4          0          0          0        559   laser.o
       890         90          0         24          0       8126   led.o
       148          0          0          0          0       3318   list.o
       126          0          0          0          0     328787   main.o
       120         14          0          0          0       1036   misc.o
      2232        118          0          8          0       5531   motor.o
       522          0          0          0          0        862   nvic.o
       148         12          0          4          0       1425   os_tick.o
       718         30          0          0          0       7069   pid.o
       834         78          0         12          0      10712   port.o
       564         60          0         20          0       3309   selfcheck_task.o
      1408        118          0         70          0       3988   shoot_task.o
       324        148          0          4         32       2182   start_task.o
        36          8        392          0       2048        852   startup_stm32f40_41xxx.o
      1654         22          0          0          0       7720   stm32f4xx_can.o
        32          6          0          0          0        592   stm32f4xx_dbgmcu.o
       796         86          0          0          0       7873   stm32f4xx_dma.o
       230          0          0          0          0       3533   stm32f4xx_gpio.o
        20          0          0          0          0       2977   stm32f4xx_it.o
        68         30          0          0          0       2650   stm32f4xx_iwdg.o
       360         42          0         16          0       5328   stm32f4xx_rcc.o
       564         48          0          0          0       8176   stm32f4xx_tim.o
       420          8          0          0          0       4974   stm32f4xx_usart.o
       340         32          0         20          0       1917   system_stm32f4xx.o
      2222        328          0         68        740      16495   tasks.o
       824         48          0          8         16       3086   tim.o
        20          4          0          8          0        823   timers.o
      2596        222          0          4        457      10772   uart.o
       236         16          0          0          0       2271   zerocheck.o

    ----------------------------------------------------------------------
     32742       3070       1196        836      17772     530084   Object Totals
         0          0         32          0          0          0   (incl. Generated)
        30          0          3         13          7          0   (incl. Padding)

    ----------------------------------------------------------------------

      Code (inc. data)   RO Data    RW Data    ZI Data      Debug   Library Member Name

        86          0          0          0          0          0   __dczerorl2.o
         0          0          0          0          0          0   entry.o
         0          0          0          0          0          0   entry10a.o
         0          0          0          0          0          0   entry11a.o
         8          4          0          0          0          0   entry2.o
         4          0          0          0          0          0   entry5.o
         0          0          0          0          0          0   entry7b.o
         0          0          0          0          0          0   entry8b.o
         8          4          0          0          0          0   entry9a.o
        30          0          0          0          0          0   handlers.o
        36          8          0          0          0         68   init.o
         0          0          0          0          0          0   iusefp.o
        30          0          0          0          0         68   llshl.o
        36          0          0          0          0         68   llsshr.o
        32          0          0          0          0         68   llushr.o
        36          0          0          0          0         68   memcpya.o
        36          0          0          0          0        108   memseta.o
        56          0          0          0          0         88   d2f.o
       334          0          0          0          0        148   dadd.o
       186          0          0          0          0        176   depilogue.o
        50          0          0          0          0         76   dfixui.o
        26          0          0          0          0         76   dfltui.o
       228          0          0          0          0         96   dmul.o
        38          0          0          0          0         68   f2d.o
       110          0          0          0          0        168   fepilogue.o

    ----------------------------------------------------------------------
      1374         16          0          0          0       1344   Library Totals
         4          0          0          0          0          0   (incl. Padding)

    ----------------------------------------------------------------------

      Code (inc. data)   RO Data    RW Data    ZI Data      Debug   Library Name

       342         16          0          0          0        448   mc_w.l
      1028          0          0          0          0        896   mf_w.l

    ----------------------------------------------------------------------
      1374         16          0          0          0       1344   Library Totals

    ----------------------------------------------------------------------

==============================================================================


      Code (inc. data)   RO Data    RW Data    ZI Data      Debug   

     34116       3086       1196        836      17772     509440   Grand Totals
     34116       3086       1196        208      17772     509440   ELF Image Totals (compressed)
     34116       3086       1196        208          0          0   ROM Totals

==============================================================================

    Total RO  Size (Code + RO Data)                35312 (  34.48kB)
    Total RW  Size (RW Data + ZI Data)             18608 (  18.17kB)
    Total ROM Size (Code + RO Data + RW Data)      35520 (  34.69kB)

==============================================================================

