:020000040800F2
:100000007837002005050008E1020008E302000837
:10001000E7020008EB020008EF0200080000000001
:100020000000000000000000000000009D0100082A
:10003000F302000800000000F1010008FD80000844
:100040001F0500081F0500081F0500081F05000800
:100050001F0500081F0500081F0500081F050008F0
:100060001F0500081F0500081F0500081F050008E0
:100070001F0500080D3800081F0500088D3800080E
:100080001F050008D53900081F050008793D000844
:100090008F3D0008BF3D00081F0500081F05000830
:1000A0001F0500081F0500081F0500081F050008A0
:1000B0001F0500083D400008914000081F0500088A
:1000C0001F0500081F0500081F0500081F05000880
:1000D0001F0500081F0500081F050008E735000878
:1000E0001F0500081F0500081F0500081F05000860
:1000F0001F0500081F0500081F0500081F05000850
:100100001F0500081F0500081F0500081F0500083F
:10011000F33700081F0500081F0500081F05000829
:100120001F0500084D4A0008AB3400081F050008F1
:100130001F0500081F0500081F0500084F3E0008A6
:10014000EF3D00081F3E00081F0500081F050008BE
:100150001F0500081F050008CB3400081F05000814
:100160001F0500081F0500081F0500081F050008DF
:100170001F0500081F0500081F0500081F050008CF
:100180001F0500081F050008DFF80CD008F0D6FB9B
:1001900000480047AF020008783700202A4B196852
:1001A0000868B0E8F04F80F30988BFF36F8F4FF015
:1001B000000080F3118870470000000006480068C6
:1001C000006880F3088862B661B6BFF34F8FBFF353
:1001D0006F8F00DF00BF00BF08ED00E0DFF80C000C
:1001E000016841F470010160704700BF88ED00E0D4
:1001F000EFF30980BFF36F8F134B1A681EF0100FD7
:1002000008BF20ED108A20E9F04F106008B44FF0CD
:10021000500080F31188BFF34F8FBFF36F8F06F04C
:10022000B3FE4FF0000080F3118808BC196808681D
:10023000B0E8F04F1EF0100F08BFB0EC108A80F34A
:100240000988BFF36F8F704788010020EFF30580A6
:100250007047000010B5002107E042F63C0200BFE5
:100260001300A2F10102FBD1491C8142F5DB10BD54
:1002700000B56420FFF7EEFF00BD10B502F08CFE64
:1002800002F0A2FD03F01AFB03F037F903F0D2F9F4
:1002900003F0C3FB03F036FC03F0D1FC03F0DAFEFD
:1002A00004F080FB4FF44870FFF7D4FF10BD10B589
:1002B000002006E0002100E0491CB1F57A7FFBDB5D
:1002C000401C06498842F5DBFFF7D7FFFFF7D0FF58
:1002D00005F0A7FA07F001F8002010BDA086010084
:1002E000704700BFFEE700BFFEE700BFFEE700BFAC
:1002F000FEE770470CB5002001900090764800683A
:1003000040F480307449086000BF7348006800F40E
:10031000003000900198401C0190009818B9019895
:10032000B0F5A04FF1D16C48006800F4003010B176
:100330000120009001E0002000900098012846D1A3
:1003400065484030006840F08050634940310860A3
:100350006248006840F44040604908605E480830E8
:1003600000685D49083108600846006840F40040B4
:1003700008600846006840F4A05008605848091F0B
:100380000860081F006840F08070091F086000BF07
:100390005148006800F000700028F9D040F2057064
:1003A000504908604C480830006820F003004A4972
:1003B000083108600846006840F00200086000BF8D
:1003C00045480830006800F00C000828F8D10CBD42
:1003D00010B54548006840F47000434908603E4845
:1003E000006840F001003C49086000203A490831AB
:1003F0000860394800683D490840374908603C4872
:10040000091D0860081F006820F48020091F08608B
:10041000002031490C310860FFF76CFF4FF000609D
:1004200031498039086010BD70B5002000220223D8
:1004300000240221284D08352D6805F00C0020B15C
:10044000042806D0082834D107E02A4D2A4E35600A
:1004500033E02A4D284E35602FE01F4D2D1D2D68AD
:10046000C5F380541C4D2D1D2D6805F03F0154B17E
:10047000224DB5FBF1F5184E361D3668C6F38816C9
:1004800005FB06F209E01B4DB5FBF1F5124E361DDA
:100490003668C6F3881605FB06F20F4D2D1D2D6834
:1004A000C5F301456D1C6B00B2FBF3F5124E3560D0
:1004B00003E0104D104E356000BF00BF064D0835FB
:1004C0002D68C5F303150E4E705D0B4D2D68C540AC
:1004D000094E356070BD00000038024000700040D9
:1004E00008544007003C024088ED00E0FFFFF6FEA4
:1004F000103000240024F4000000002000127A00D4
:10050000040000200648804706480047FEE7FEE753
:10051000FEE7FEE7FEE7FEE7FEE7FEE7FEE7FEE7B3
:10052000D10300088901000832490143324A1160B1
:10053000704770B5002100230F22C4781CB32E4CE5
:10054000246804F4E064C4F5E064C4F30721C1F155
:100550000404E3B20A4144789C40E1B28478144038
:1005600021430C07210E254C05786155047804F0D1
:100570001F050124AC4005786D11AD0005F1E025A3
:10058000C5F8004109E0047804F01F050124AC40DF
:100590001B4D0678761145F8264070BD194A0A4071
:1005A0000243154B1B1F1A60704739B1124A121DC6
:1005B00012680243104B1B1D1A6006E00E4A121D02
:1005C000126882430C4B1B1D1A607047042808D127
:1005D0004FF0E021096941F004014FF0E022116180
:1005E00007E04FF0E021096921F004014FF0E0221B
:1005F000116170470000FA050CED00E000E400E036
:1006000080E100E080FFFF1F10B50446FE488442F1
:1006100009D10121480601F085FA00214FF0007050
:1006200001F080FA08E00121880601F07BFA002140
:100630004FF0806001F076FA10BD30B50246002020
:100640000023146824F002041460146844F00104C8
:10065000146000E05B1C546804F001041CB94FF600
:10066000FF74A342F6D1546804F001040CB90020D1
:100670006CE08C79012C04D1146844F0800414607F
:1006800003E0146824F080041460CC79012C04D1B8
:10069000146844F04004146003E0146824F040043B
:1006A00014600C7A012C04D1146844F02004146006
:1006B00003E0146824F0200414604C7A012C04D167
:1006C000146844F01004146003E0146824F010046B
:1006D00014608C7A012C04D1146844F0080414606E
:1006E00003E0146824F008041460CC7A012C04D1CF
:1006F000146844F00404146003E0146824F0040453
:1007000014608C78A407CD7844EA05640D7944EA36
:1007100005444D7944EA05540D886D1E2C43D4617F
:10072000146824F001041460002300E05B1C54688A
:1007300004F001041CB14FF6FF74A342F6D15468D3
:1007400004F001040CB1002000E0012030BD10B520
:100750000021837A012202FA03F1AC4A126842F0C6
:100760000102AA4B1A60A94A1C3212688A43A74B9D
:100770001C331A60027BCAB9A44A0C3212688A433D
:10078000A24B0C331A604288C38842EA03439F4A53
:100790004032847A42F834300288838842EA034344
:1007A0009A4A4032847A02EBC4025360027B012AE7
:1007B00019D1964A0C3212680A43944B0C331A60D2
:1007C0004288038842EA0343904A4032847A42F8DE
:1007D0003430C288838842EA03438C4A4032847AA8
:1007E00002EBC4025360C27A3AB9884A121D1268F9
:1007F0008A43864B1B1D1A6006E0844A121D12684C
:100800000A43824B1B1D1A60028932B97F4A143297
:1008100012688A437D4B14331A600289012A06D17B
:100820007A4A143212680A43784B14331A60427BB6
:10083000012A06D1754A1C3212680A43734B1C33D5
:100840001A60724A126822F00102704B1A6010BDE1
:1008500000218171C171017241728172C172817016
:10086000C170032101710221417101210180704792
:100870006649096841F00101644A1160114609683E
:1008800043F60E729143614A11601146096841EACC
:10089000002111601146096821F0010111607047C3
:1008A00021B1026842F48032026003E0026822F45F
:1008B000803202607047E1B1026842F0800202605B
:1008C0004FF4C272125842F480734FF4C272135044
:1008D0004FF4CA72125842F480734FF4CA72135024
:1008E0004FF4D272125842F480734FF4D272135004
:1008F0001BE0026822F0800202604FF4C2721258BC
:1009000022F480734FF4C27213504FF4CA7212581B
:1009100022F480734FF4CA7213504FF4D2721258FB
:1009200022F480734FF4D2721350704710B5024610
:100930000020936803F08063B3F1806F00D110E072
:10094000936803F00063B3F1006F01D1012008E068
:10095000936803F08053B3F1805F01D1022000E07F
:100960000420042879D002F5C07303EB00131B6840
:1009700003F0010402F5C07303EB00131C600B7A53
:100980007BB94B7A0C8843EA445302F5C07404EBFC
:1009900000142468234302F5C07404EB00142360A0
:1009A00010E00B7A4C6843EAC4034C7A234302F507
:1009B000C07404EB00142468234302F5C07404EBF4
:1009C000001423608B7A03F00F038B7202F5C0735F
:1009D00003EB00135B6823F00F0402F5C07303EB15
:1009E00000135C6002F5C07303EB00135B688C7A44
:1009F000234302F5C07404EB001463608B7B1C0678
:100A00004B7B44EA034403E000640040006600407E
:100A10000B7B44EA0323CC7A234302F5C07404EB36
:100A20000014A3608B7C1C064B7C44EA03440B7CC3
:100A300044EA0323CC7B234302F5C07404EB001487
:100A4000E36002F5C07303EB00131B6843F001047D
:100A500002F5C07303EB00131C6010BD10B5024615
:100A6000002321B1012907D002290FD109E09068A4
:100A7000F94C00EA04030BE09068F84C00EA040328
:100A800006E09068F64C00EA040301E0002300BF92
:100A900000BFF44C181BA34216D007DC83B16FF0E3
:100AA0008060184470B1022818D111E0B0F5007FC1
:100AB00010D0ED4C204448B1B0F5003F0ED10BE012
:100AC00002230DE000230BE0002309E0002307E0F0
:100AD000012305E0012303E0012301E0002300BF1F
:100AE00000BFD8B210BD21B1012907D002290FD112
:100AF00009E0826842F0800282600AE0826842F483
:100B00000042826005E0826842F40002826000E0F8
:100B100000BF00BF704710B500F5D87303EB011399
:100B20001B6803F004031372137A53B900F5D873EA
:100B300003EB01131B6840F2FF7404EA5353136084
:100B400009E000F5D87303EB01131B686FF06044F4
:100B500004EAD303536000F5D87303EB01131B6859
:100B600003F00203537200F5D87303EB01135B68C3
:100B700003F00F03937200F5D87303EB01135B6866
:100B80001B0AD37400F5D87303EB01139B68D3726F
:100B900000F5D87303EB01139B681C0A147300F56E
:100BA000D87303EB01139B681C0C547300F5D873C6
:100BB00003EB01139B681B0E937300F5D87303EBD3
:100BC0000113DB68D37300F5D87303EB0113DB6803
:100BD0001C0A147400F5D87303EB0113DB681C0CBA
:100BE000547400F5D87303EB0113DB681B0E937488
:100BF00021B9C36843F02003C36003E0036943F0F5
:100C00002003036110BD21B9C26842F02002C26016
:100C100003E0026942F020020261704702460020B0
:100C200019B9D36803F0030006E0012903D1136961
:100C300003F0030000E00020704710B502460B46A9
:100C400000204FF6FF71BBB9146824F0020444F091
:100C50000104146000E0491E546804F00304012CF0
:100C600001D00029F7D1546804F00304012C01D00D
:100C7000002032E0012030E0012B13D1146824F071
:100C80000304146000E0491E546804F003040CB12E
:100C90000029F8D1546804F003040CB100201CE0D2
:100CA00001201AE0022B17D1146824F0010444F04B
:100CB0000204146000E0491E546804F00304022C8E
:100CC00001D00029F7D1546804F00304022C01D0AC
:100CD000002002E0012000E0002010BD01460020BD
:100CE0000A6822F0010242F002020A604A6802F039
:100CF0000302022A00D10120704701464FF6FF721D
:100D000000200B6823F002030B6000E0521E4B68CA
:100D100003F00203022B01D1002AF7D14B6803F044
:100D20000203022B00D001207047014600208A698F
:100D300002F070007047014600208A69100E70476B
:100D4000014600208A69C2F3074070471AB143691F
:100D50000B43436102E043698B434361704710B525
:100D60000246002001F4700343B19369C1F31304F8
:100D700023400BB101202DE000202BE001F0807317
:100D800043B15368C1F3130423400BB1012021E0A8
:100D900000201FE001F0006343B19368C1F3130426
:100DA00023400BB1012015E0002013E001F0007397
:100DB00043B1D368C1F3130423400BB1012009E010
:100DC000002007E01369C1F3130423400BB1012095
:100DD00000E0002010BD0022244B994202D10023E4
:100DE000836111E0C1F3130201F000730BB1C26023
:100DF0000AE001F080630BB1026105E001F00063DD
:100E00000BB1826000E0426070470246002002EAB7
:100E100001030BB1012000E00020704770B50446CB
:100E20000D46002660692840002872D0B5F5807F05
:100E300069D01DDC082D42D006DC012D2DD0022DFD
:100E400031D0042D7FD134E0102D3ED0202D42D062
:100E5000402D78D145E000000300000400030008A5
:100E600000000310000100080001FFF77000F030DF
:100E7000B5F5004F61D009DCB5F5007F4AD0B5F576
:100E8000806F4DD0B5F5006F5DD150E0B5F5803F76
:100E90002DD0B5F5003F56D12FE0A0685549FFF79A
:100EA000B4FF064651E0E0680321FFF7AEFF0646B7
:100EB0004BE0E0680821FFF7A8FF064645E0E06840
:100EC0001021FFF7A2FF06463FE020690321FFF74C
:100ED0009CFF064639E020690821FFF796FF064689
:100EE00033E020691021FFF790FF06462DE060688F
:100EF0000821FFF78AFF064627E060681021FFF708
:100F000084FF064621E0A0690121FFF77EFF064627
:100F10001BE01BE0A0690221FFF777FF064614E003
:100F2000A0690421FFF771FF06460EE00BE0A069FF
:100F30007021FFF76AFF064607E060680421FFF7AB
:100F400064FF064601E0002600BF00E000263046B0
:100F500070BDB1F5007F3AD00FDC202928D006DC27
:100F600001291CD004291DD0082940D11DE04029A9
:100F700021D0B1F5807F3AD126E0B1F5004F31D0D4
:100F800006DCB1F5806F25D0B1F5006F2FD124E0DC
:100F9000B1F5803F12D0B1F5003F28D111E0154ADC
:100FA000826025E00822C26022E01022C2601FE0B9
:100FB000082202611CE01022026119E0082242604E
:100FC00016E01022426013E00422426010E0042286
:100FD00042600DE0042242600AE0002282610422A5
:100FE000426005E0002282610422426000E000BF0E
:100FF00000BF704701010100016821F0010101609B
:101000000021016041608160C16001612121416175
:10101000DB49884204D13D21D94A103A91608CE0E5
:10102000D7491831884205D14FF47461D44A103A37
:10103000916082E0D2493031884205D14FF4741179
:10104000CF4A103A916078E0CD494831884205D1C5
:101050004FF07461CA4A103A91606EE0C84960313D
:10106000884204D1C749C64A103AD16065E0C449F4
:101070007831884204D1C449C14A103AD1605CE059
:10108000BF499031884204D1C049BD4A103AD1606D
:1010900053E0BB49A831884205D14FF03D51B84AD1
:1010A000103AD16049E0BA49884204D13D21B84A9A
:1010B000083A116041E0B6491831884205D14FF431
:1010C0007461B34A083A116037E0B149303188425F
:1010D00005D14FF47411AE4A083A11602DE0AC49C5
:1010E0004831884205D14FF07461A94A083A11602D
:1010F00023E0A7496031884204D1A249A44A121FC3
:1011000011601AE0A2497831884204D19E49A04A70
:10111000121F116011E09E499031884204D19B4911
:101120009B4A121F116008E09949A831884204D1F6
:101130004FF03D51964A121F1160704710B50022C2
:101140000268944B1A40CC680B6823434C692343D4
:101150008C692343CC6923430C6A23434C6A2343A1
:101160008C6A23434C6B23438C6B23431A430260EA
:10117000426922F00702D1E90B3423431A4342614A
:101180000B6943604B6883608B68C36010BD0021AE
:10119000016041608160C160016141618161C16143
:1011A000016241628162C162016341638163704790
:1011B00021B1026842F00102026003E0026822F0FD
:1011C00001020260704721B1026842F400420260ED
:1011D00003E0026822F400420260704721B1026815
:1011E00042F02002026003E0026822F02002026066
:1011F0007047416070470146486880B2704722B12D
:10120000036843F40023036003E0036823F400232E
:1012100003600161704721B1026842F480220260DC
:1012200003E0026822F48022026070470AB1016183
:1012300000E0C1607047014600200A6802F4002205
:101240000AB1012000E000207047014600200A6832
:1012500002F001020AB1012000E0002070470146BF
:1012600000204A6902F03800704730B503460A464C
:1012700000200024464DAB4202D24149103901E022
:101280004349103902F000550DB14C6800E00C687C
:10129000414D2C4004EA02050DB1012000E0002080
:1012A00030BD02463A4B9A4202D23548103801E02E
:1012B0003748103801F000531BB1374B0B40C36067
:1012C00002E0354B0B408360704710B501F080039E
:1012D0004BB122B1436943F08003436103E04369AA
:1012E00023F08003436180290BD02AB1036801F009
:1012F0001E042343036004E0036801F01E04A343BB
:10130000036010BD70B50246002000240025204E69
:10131000B24202D21A4B103B01E01D4B103B1F4E54
:101320000E4036B11E2606EAD124166806EA0405E8
:1013300002E0566906F0800501F000560EB15C68C7
:1013400000E01C68144E344004EA010616B10DB1E9
:10135000012000E0002070BD02460D4B9A4202D2EF
:101360000748103801E00A48103801F000531BB15B
:10137000094B0B40C36002E0074B0B408360704792
:10138000106002403D000020400F002000003D2082
:10139000106402403F801CF07D0F7D0F3C0F3C0F1E
:1013A00010B504469848844208D10121084600F04F
:1013B00086FB0021012000F082FB76E09348844206
:1013C00008D10121022000F07AFB0021022000F068
:1013D00076FB6AE08E48844208D10121042000F0A7
:1013E0006EFB0021042000F06AFB5EE08948844225
:1013F00008D10121082000F062FB0021082000F044
:101400005EFB52E08448844208D10121102000F0A4
:1014100056FB0021102000F052FB46E07F4884423A
:1014200008D10121202000F04AFB0021202000F0FB
:1014300046FB3AE07A48844208D10121402000F07E
:101440003EFB0021402000F03AFB2EE0754884422C
:1014500008D10121802000F032FB0021802000F023
:101460002EFB22E07048844208D10121801500F053
:1014700026FB0021A01500F022FB16E06B488442F9
:1014800008D10121401500F01AFB0021601500F081
:1014900016FB0AE06648844207D10121001500F0DE
:1014A0000EFB0021201500F00AFB10BDF0B50A4626
:1014B00000210023002400BF3DE0012505FA01F3CF
:1014C000156805EA03049C4234D105684F000326E1
:1014D000BE40B543056015794E00B54006683543FA
:1014E00005601579012D02D01579022D16D1856878
:1014F0004F000326BE40B543856055794E00B54088
:10150000866835438560456801268E40B543456051
:10151000456896798E40B6B235434560C5684F0040
:101520000326BE40B543C560D5794E00B540C668B8
:101530003543C560491C1029BFD3F0BD4FF6FF717C
:1015400001600021017141718171C171704708B55D
:101550004FF480320092009A0A430092009AC261CE
:10156000C161009AC261C2690092C269009208BD5D
:101570000246002013690B400BB1012000E000205F
:1015800070470146086980B27047024600205369DF
:101590000B400BB1012000E0002070470146486974
:1015A00080B2704701837047418370470AB101835D
:1015B00000E0418370474161704742694A4042619F
:1015C0007047F0B5002300244D07ED0E02FA05F335
:1015D000CE1000F1200555F826504E07F70E0F26C5
:1015E000BE40B543CF1000F1200646F82750CE107C
:1015F00000F1200555F8265045EA0304CE1000F10D
:10160000200545F82640F0BD0000024000040240DD
:1016100000080240000C024000100240001402408A
:1016200000180240001C024000200240002402403A
:1016300000280240F948006840F00100F7490860BE
:101640000020F64908310860F4480068F449084071
:10165000F2490860F348091D0860F348EF498431F6
:101660000860F0481038091D0860EC48006820F454
:101670008020EA4908600020E8490C310860E74909
:101680008C31086070470021E44A921C11701146A9
:101690000870704710B501460022002300204A114F
:1016A000012A02D1DD4C236808E0022A03D1DB4C79
:1016B0007034236802E0D94C7434236801F01F02AF
:1016C000012494401C400CB1012000E0002010BD1A
:1016D00038B5002000900024002500BF3120FFF71E
:1016E000D9FF05460098401C00900098B0F5A04F27
:1016F00001D0002DF2D03120FFF7CCFF08B101243A
:1017000000E00024204638BD01460020C34A10688E
:1017100020F0F80040EAC10010607047C34908603B
:1017200070470021BD4A703211701170012802D03B
:1017300004280AD104E00121B84A7032117005E092
:101740000521B64A7032117000E000BF00BF70473B
:10175000B7490860704770B5049C41EA82150126BC
:10176000C6EB530645EA0645054345EA0465AB4E1C
:10177000361D356070BDAD4908667047820142EA8A
:101780000172A64B84331A607047A8498866704777
:1017900010B5830143EA016343EA02739F4C883426
:1017A000236010BDA14908677047A049C86470470D
:1017B00002460020994B0833186820F0EC6042EA9A
:1017C00001031843954B0833186070470246002008
:1017D000924B0833186820F0784042EA010318431E
:1017E0008E4B083318607047014600208B4A083240
:1017F000106820F0030008431060704787480830E5
:10180000006800F00C00704701460020834A08324F
:10181000106820F0F0000843106070470146002077
:101820007E4A0832106820F4E05008431060704788
:1018300001460020794A0832106820F4604040EAEE
:10184000C10010607047F0B500210022002402257D
:1018500000260223714F08373F6807F00C0121B1C1
:10186000042905D0082937D105E0724F076036E01A
:10187000714F076033E0694F3F1D3F68C7F38056E3
:10188000664F3F1D3F6807F03F036EB16A4FB7FBDD
:10189000F3F7DFF888C10CF1040CDCF800C0CCF3DE
:1018A000881C07FB0CF40CE0624FB7FBF3F7DFF882
:1018B0006CC10CF1040CDCF800C0CCF3881C07FBF5
:1018C0000CF4564F3F1D3F68C7F301477F1C7D0056
:1018D000B4FBF5F7076002E0564F076000BF00BF9A
:1018E0004E4F08373F6807F0F0010909534F7A5C03
:1018F0000768D7404760494F08373F6807F4E05111
:10190000890A4E4F7A5C4768D7408760434F083753
:101910003F6807F46041490B484F7A5C4768D740FD
:10192000C760F0BD002100F44072B2F5407F0AD1DB
:101930003A4A0832116821F4F811414A0240114331
:10194000364A08321160354A70321268C0F30B0310
:101950001A43324B70331A60704735494439086076
:10196000704733494039086070473649086070470E
:1019700001460020294A8C32106820F01F004A1EC0
:101980001043264A8C321060704701460020234ADB
:101990008C32106820F4F8504A1E40EA02201F4A98
:1019A0008C3210607047014600201C4A8C3210684F
:1019B00020F4401008431060704701460020174A89
:1019C0008C32106820F440000843106070470146D4
:1019D0000020124A8C32106820F440300843106016
:1019E000704719490860704739B10C4A30321268A3
:1019F00002430A4B30331A6006E0084A303212685C
:101A00008243064B30331A607047F9B1034A3432CF
:101A100012680243014B34331A601CE00038024064
:101A2000FFFFF6EA1030002400300020000047429B
:101A3000800E47420024F40000127A0014000020B7
:101A4000FFFCFF0F5C014742E01147428F4A1268DA
:101A500082438E4B1A60704739B18C4A121D12684E
:101A600002438A4B1B1D1A6006E0884A121D126849
:101A70008243864B1B1D1A60704739B1834A0C3272
:101A800012680243814B0C331A6006E07F4A0C3225
:101A9000126882437D4B0C331A60704739B17B4A20
:101AA000103212680243794B10331A6006E0774A0D
:101AB000103212688243754B10331A60704739B187
:101AC000724A243A12680243704B243B1A6006E0C3
:101AD0006E4A243A126882436C4B243B1A6070476A
:101AE00039B16A4A203A12680243684B203B1A60B7
:101AF00006E0664A203A12688243644B203B1A6033
:101B0000704739B1614A1C3A126802435F4B1C3B73
:101B10001A6006E05D4A1C3A126882435B4B1C3B2C
:101B20001A60704739B1594A143A12680243574B48
:101B3000143B1A6006E0554A143A12688243534B2C
:101B4000143B1A60704739B1504A103A1268024388
:101B50004E4B103B1A6006E04C4A103A1268824322
:101B60004A4B103B1A60704739B1484A1C32126820
:101B70000243464B1C331A6006E0444A1C3212688A
:101B80008243424B1C331A60704739B13F4A2032BE
:101B9000126802433D4B20331A6006E03B4A203274
:101BA00012688243394B20331A60704739B1374A83
:101BB000243212680243354B24331A6006E0334A5C
:101BC000243212688243314B24331A60704739B192
:101BD0002E4A2C32126802432C4B2C331A6006E03A
:101BE0002A4A2C3212688243284B2C331A607047E1
:101BF00039B1264A303212680243244B30331A601E
:101C000006E0224A303212688243204B30331A6099
:101C10007047012808D11D493C31096841F008018D
:101C20001A4A3C32116007E018493C31096821F03A
:101C30000801164A3C321160704739B1134A273AFD
:101C400012780243114B273B1A7006E00F4A273ADD
:101C5000127882430D4B273B1A7070470B48403077
:101C6000006840F0807009494031086070470146C3
:101C70000020064A283A12680A400AB1012000E012
:101C800000207047014926390870704734380240F7
:101C900010B50446FE48844208D101210846FFF7EA
:101CA00052FF00210120FFF74EFF9DE0B4F1804F6D
:101CB00008D101210846FFF735FF00210120FFF779
:101CC00031FF91E0F348844208D101210220FFF75F
:101CD00029FF00210220FFF725FF85E0EE4884421E
:101CE00008D101210420FFF71DFF00210420FFF788
:101CF00019FF79E0E948844208D101210820FFF763
:101D000011FF00210820FFF70DFF6DE0E448844239
:101D100008D101211020FFF705FF00211020FFF757
:101D200001FF61E0DF48844208D101212020FFF754
:101D3000F9FE00212020FFF7F5FE55E0DA48844245
:101D400008D101210220FFF7FEFE00210220FFF74B
:101D5000FAFE49E0D548844209D101210804FFF781
:101D6000F2FE00214FF48030FFF7EDFE3CE0D0485A
:101D7000844209D101214804FFF7E5FE00214FF418
:101D80000030FFF7E0FE2FE0CA48844209D101216C
:101D90008804FFF7D8FE00214FF48020FFF7D3FE20
:101DA00022E0C548844208D101214020FFF7BAFE55
:101DB00000214020FFF7B6FE16E0C048844208D15B
:101DC00001218020FFF7AEFE00218020FFF7AAFE50
:101DD0000AE0BB48844207D101218015FFF7A2FE2B
:101DE0000021A015FFF79EFE10BD00220288A84B1F
:101DF00098420ED0AC4B98420BD0B0F1804F08D037
:101E0000A44B984205D0A44B984202D0A34B9842D1
:101E100004D14FF68F731A404B881A43A04B984257
:101E200007D0A04B984204D04FF6FF431A400B89CD
:101E30001A4302804B68C3620B880385944B984217
:101E400002D0994B984201D18B7A03860123838279
:101E500070474FF0FF3141600021018001814180D6
:101E6000817270470185828270470A46002101888D
:101E70004FF68F73194011430180704741627047DC
:101E8000C16270470146486A70470146088D704735
:101E900021B1028842F00202028004E002884FF67B
:101EA000FD731A400280704721B1028842F004029B
:101EB000028004E002884FF6FB731A4002807047EC
:101EC00021B1028842F08002028004E002884FF6CD
:101ED0007F731A400280704702884FF6F7731A40EA
:101EE000028002880A430280704702884FF6FF434F
:101EF0001A40028002880A430280704721B102889A
:101F000042F00102028004E002884FF6FE731A409C
:101F10000280704770B5002400220023058C4FF624
:101F2000FE7635400584028C8388048B4FF68F75CE
:101F30002C40B51E2C400D882C43751E2A408D89DF
:101F40002A434D882A43524DA84202D0564DA842FA
:101F500013D14FF6F7752A40CD892A434FF6FB750A
:101F60002A408D882A434FF6FF652B404FF6FF55D8
:101F70002B400D8A2B434D8A2B43838004838D682D
:101F80004563028470BD70B5002400220023058CD7
:101F90004FF6EF7635400584028C8388048B48F633
:101FA000FF752C404FF6FF452C400D884FF6FF760D
:101FB00006EA05252C434FF6DF752A408D8906EA8F
:101FC00005152A434D8806EA05152A43304DA842D7
:101FD00002D0354DA8421DD14FF67F752A40CD89DC
:101FE0004FF6FF7606EA05152A434FF6BF752A40DD
:101FF0008D8806EA05152A434FF6FF352B404FF230
:10200000FF752B400D8A06EA85052B434D8A06EAAB
:1020100085052B43838004838D688563028470BDAE
:1020200070B5002400220023058C4FF6FF66354072
:102030000584028C8388848B4FF68F752C404FF675
:10204000FC752C400D882C434FF6FF552A408D8996
:102050004FF6FF7606EA05252A434D8806EA052550
:102060002A430B4DA84202D00F4DA84238D14FF25F
:10207000FF752A40CD894FF6FF7606EA05252A43EB
:102080004FF6FF352A408D8806EA05252A4319E0D8
:10209000000001400004004000080040000C004027
:1020A00000100040001400400004014000400140C6
:1020B000004401400048014000180040001C00405E
:1020C000002000404EF6FF752B404DF6FF752B406B
:1020D0000D8A06EA05152B434D8A06EA05152B43A2
:1020E000838084838D68C563028470BD70B50022CF
:1020F00000230024058C4EF6FF7635400584038CC2
:102100008488828B48F6FF752A404FF6FF452A40A7
:102110000D884FF6FF7606EA05252A434DF6FF7532
:102120002B408D8906EA05352B434D8806EA053597
:102130002B43FE4DA84202D0FD4DA84208D14BF6DC
:10214000FF752C400D8A4FF6FF7606EA85152C4365
:10215000848082838D680564038470BD00210180C2
:102160004180818081608181C1810182418270478B
:1021700070B50346002000241846183001258D4014
:10218000ACB21D8CA5431D8409B108290AD100EB0E
:10219000610005684FF68F76354005600568154388
:1021A00005600FE00D1FC5F34E052844056848F68D
:1021B000FF763540056005684FF6FF7606EA022691
:1021C0003543056070BD4163704781637047C163EB
:1021D0007047016470470A460021018B4FF68F73E8
:1021E00019401143018370470A460021018B48F6CC
:1021F000FF7319404FF6FF7303EA0223194301836B
:1022000070470A460021818B4FF68F7319401143A6
:10221000818370470A460021818B48F6FF7319407D
:102220004FF6FF7303EA02231943818370470A467E
:102230000021018B4FF6F77319401143018370475A
:102240000A460021018B4FF2FF7319404FF6FF73CE
:1022500003EA02231943018370470A460021818B58
:102260004FF6F77319401143818370470A460021E6
:10227000818B4FF2FF7319404FF6FF7303EA02237D
:102280001943818370470A460021018B4FF6FB7387
:1022900019401143018370470A460021018B4FF614
:1022A000FF3319404FF6FF7303EA022319430183FA
:1022B00070470A460021818B4FF6FB73194011438A
:1022C000818370470A460021818B4FF6FF33194006
:1022D0004FF6FF7303EA02231943818370470A46CE
:1022E0000021018B4FF67F73194011430183704722
:1022F0000A460021018BC1F30E014FF6FF7303EA7A
:1023000002231943018370470A460021818B4FF64F
:102310007F7319401143818370470A460021818BE6
:10232000C1F30E014FF6FF7303EA022319438183C1
:1023300070470A460021018C4FF6FD731940114386
:10234000018470470A460021018C4FF6F77319404B
:102350001143018470470A460021018C4FF6DF7358
:1023600019404FF6FF7303EA0213194301847047C3
:102370000A460021018C4FF67F7319404FF6FF7318
:1023800003EA02131943018470470A460021018CB5
:102390004FF6FF5319404FF6FF7303EA0223194328
:1023A000018470470A460021018C4FF2FF731940E7
:1023B0004FF6FF7303EA02231943018470470A466C
:1023C0000021018C4DF6FF7319404FF6FF7303EAAD
:1023D000023319430184704730B5002301248C4037
:1023E000A3B2048C9C430484048C02FA01F5ADB2C0
:1023F0002C43048430BD30B5002304248C40A3B2A8
:10240000048C9C430484048C02FA01F5ADB22C4385
:10241000048430BD828B4FF2FF331A408283828B5B
:102420004FF6FF7303EA01231A4382837047F0B526
:102430000C461546002100220026078C4EF6FF7C34
:1024400007EA0C070784818B028C4FF6FF7707EAB7
:10245000043640F6FF4739404FF6FF7707EA052775
:1024600039434FF6FF7707EA0337394345F6FF77DD
:102470003A4046F480573A4381830284F0BD828B10
:102480004FF6F3731A408283828B0A43828370472C
:10249000F0B50C461546002100220026078C4FF6A9
:1024A000FF6C07EA0C070784818B028C4FF6FF77DD
:1024B00007EA04264FF60C7739404FF6FF7707EA14
:1024C00003172F4339434FF2FF573A4046F48077C2
:1024D0003A4381830284F0BD028B4FF2FF331A40EE
:1024E0000283028B4FF6FF7303EA01231A43028330
:1024F0007047F0B50C461546002100220026078CD7
:102500004FF6EF7C07EA0C070784018B028C4FF62D
:10251000FF7707EA041640F6FF4739404FF6FF778A
:1025200007EA033739434FF6FF7703E00000014025
:102530000004014007EA052739434FF65F773A4028
:1025400046F010073A4301830284F0BD028B4FF638
:10255000F3731A400283028B0A4302837047F0B57B
:102560000C46154600210022068C4FF6FE773E40B1
:102570000684018B028C4FF60C7631407E1C06EAF5
:1025800003162E4331434FF6F576324044F00106F0
:10259000324301830284F0BD70B505460C462088A5
:1025A00050B92389A28861882846FFF7D8FFE188BF
:1025B0002846FFF7CBFF25E0208804280AD123898D
:1025C000A28861882846FFF794FFE1882846FFF734
:1025D00083FF17E0208808280AD12389A288618810
:1025E0002846FFF755FFE1882846FFF748FF09E036
:1025F0002389A28861882846FFF719FFE1882846C9
:10260000FFF708FF70BD002101804180012181801A
:102610000021C180018170472DE9F04105460C463B
:1026200000260127608808B9022600E00026A0885D
:10263000012801D1022700E001272088A0B92389C1
:10264000A28861882846FFF78AFFE1882846FFF7BD
:102650007DFF23893A4631462846FFF74AFFE18845
:102660002846FFF739FF13E02389A28861882846AE
:10267000FFF73FFFE1882846FFF72EFF23893A4600
:1026800031462846FFF76BFFE1882846FFF75EFFDB
:10269000BDE8F0810146486B70470146886B704782
:1026A0000146C86B70470146086C70470A884B8822
:1026B0001A438B881A43CB881A430B891A434B89D8
:1026C0001A438B891A43A0F84420704700210180E7
:1026D00041808180C180018141818181704731B118
:1026E000B0F8442042F40042A0F8442005E0B0F8DD
:1026F0004420C2F30E02A0F84420704721B1828822
:1027000042F00402828004E082884FF6FB731A4094
:102710008280704721B1828842F00102828004E009
:1027200082884FF6FE731A40828070471AB18389FF
:102730000B43838102E083898B43838170478182CD
:10274000704702460020138A0B400BB1012000E0C5
:1027500000207047CA430282704730B5024600200D
:1027600000230024158A05EA0103958905EA01047E
:1027700013B10CB1012000E0002030BDCA43028239
:10278000704741EA0203A0F8483070471AB18389C4
:102790000B43838102E083898B438381704721B19E
:1027A000828842F00802828004E082884FF6F77344
:1027B0001A408280704701894FF6F87211400181FA
:1027C00070470A46002101894FF68F731940114363
:1027D0000181704730B504460D4629462046FFF773
:1027E000F0FF208940F00700208130BD2DE9F04145
:1027F00004460D4616461F46602D06D13B46012273
:1028000031462046FFF775FE05E03B460122314682
:102810002046FFF7A4FE29462046FFF7D2FF208975
:1028200040F007002081BDE8F08130B50C46002162
:102830000189C9B24FF6FF7505EA03251543254303
:102840002943018130BD2DE9F04105460E4617466A
:102850009846002443463A4631462846FFF7E5FFAE
:102860002C894FF6F870044044F007044FF68F703F
:10287000044044F070042C81BDE8F081F0B50446BA
:102880000D4616461F463B46324629462046FFF770
:10289000CCFF208940F480402081F0BD82884FF633
:1028A0008F731A40828082880A438280704702892F
:1028B0004FF6F8731A40028102890A430281704779
:1028C00002894FF67F731A40028102890A4302810E
:1028D0007047F0B50C4615461E4600210022002325
:1028E0000189028B038C4FF6F877394021434FF66C
:1028F000FC473A4040F201173A434FF6DD773B4040
:102900004FF6FF7707EA06172F433B430181028307
:102910000384F0BD21B1828842F08002828004E00D
:1029200082884FF67F731A4082807047A0F850105B
:102930007047000010B50446FA48844208D10121CE
:102940001020FFF700F900211020FFF7FCF857E0F6
:10295000F548844209D101214804FFF7E3F800213A
:102960004FF40030FFF7DEF84AE0F048844209D126
:1029700001218804FFF7D6F800214FF48020FFF7EB
:10298000D1F83DE0EA48844209D10121C804FFF7AB
:10299000C9F800214FF40020FFF7C4F830E0E54803
:1029A000844209D101210805FFF7BCF800214FF44A
:1029B0008010FFF7B7F823E0DF48844208D10121F7
:1029C0002020FFF7C0F800212020FFF7BCF817E017
:1029D000DA48844209D101218807FFF7A3F80021D2
:1029E0004FF08040FFF79EF80AE0D548844207D1B7
:1029F00001214005FFF796F800216005FFF792F8E6
:102A000010BD2DE9FF4705460E460024A14600BF34
:102A1000A046B08900B100BF2C8A24F44054F0884D
:102A200004432C82AC8941F20C608443B088318924
:102A30000843718908430443AC81AC8A24F4407490
:102A4000B0890443AC826846FEF7FDFEB548854276
:102A500002D0B948854202D1DDF80C9001E0DDF8E2
:102A60000890A88900F4004040B109EBC90000EBD0
:102A7000091031684900B0FBF1F707E009EBC90024
:102A800000EB091031688900B0FBF1F76420B7FB57
:102A9000F0F004012009642101FB1078A88900F4FA
:102AA000004040B1322000EBC800B0FBF1F000F074
:102AB0000700044308E0322000EB08106421B0FB5B
:102AC000F1F000F00F0004432C81BDE8FF874FF4C4
:102AD0001651016000218180C18001810C2141815A
:102AE00000218181704710B502460020108A20F431
:102AF00070600B884C8823438C882343CC88234305
:102B00001843108210BD0021018041808180C18066
:102B1000704721B1828942F40052828104E08289A7
:102B20004DF6FF731A4082817047028B02F47F4298
:102B30000283028B0A430283704721B1828942F4E7
:102B40000042828103E08289C2F30E0282817047D3
:102B500021B1828A42F40062828204E0828A4FF2CA
:102B6000FF731A4082827047C1F308028280704767
:102B700001468888C0F308007047028A4FF6F07358
:102B80001A400282028A0A430282704721B1828976
:102B900042F00202828104E082894FF6FD731A40FE
:102BA0008281704782894FF2FF731A408281828945
:102BB0000A4382817047028A4FF6DF731A4002820D
:102BC000028A0A430282704721B1028A42F480429B
:102BD000028204E0028A4BF6FF731A4002827047B9
:102BE000818941F001018181704721B1828A42F0DF
:102BF0000802828204E0828A4FF6F7731A408282CA
:102C00007047028BD2B20283028B42EA0122028316
:102C1000704721B1828A42F02002828204E0828AD7
:102C20004FF6DF731A408282704721B1828A42F0E8
:102C30001002828204E0828A4FF6EF731A40828289
:102C40007047828A4FF6FB731A408282828A0A4357
:102C50008282704721B1828A42F00202828204E0BD
:102C6000828A4FF6FD731A40828270471AB1838AB6
:102C70000B43838202E0838A8B4383827047F0B5E3
:102C80000346002400260025002040F66A17B942BA
:102C900000D100BF1846C1F3421401F01F060127FE
:102CA00007FA06F5012C01D10C3004E0022C01D109
:102CB000103000E014301AB107682F43076002E0BB
:102CC0000768AF430760F0BD02460020B1F5007F02
:102CD00000D100BF13880B400BB1012000E00020A1
:102CE000704701F40072B2F5007F00D100BFCA4303
:102CF0000280704770B502460024002300250020A2
:102D000040F66A16B14200D100BFC1F3421501F08E
:102D10001F03012606FA03F3012D13D196893340D0
:102D200017E000000010014000440040004800404F
:102D3000004C00400050004000140140007800406A
:102D4000007C0040022D02D1168A334001E0968AB1
:102D500033400C12012606FA04F41688344013B1ED
:102D60000CB1012000E0002070BD10B5002200234E
:102D700040F66A14A14200D100BF0A120124944017
:102D8000A3B2DC43048010BD0E49086070470D49B2
:102D9000486070470B49886070474AF6AA20094985
:102DA000086070474CF6CC40064908607047014601
:102DB0000020044AD2680A400AB1012000E0002045
:102DC000704700000030004008B53A208DF8000040
:102DD00003208DF8010002208DF8020001208DF8FB
:102DE00003006846FDF7A5FB0E208DF800000320C8
:102DF0008DF801008DF8020001208DF8030068466F
:102E0000FDF797FB11208DF8000001208DF80100DF
:102E10008DF802008DF803006846FDF78AFB272035
:102E20008DF8000001208DF8010002208DF80200CD
:102E300001208DF803006846FDF77BFB34208DF8F8
:102E4000000001208DF8010002208DF80200012011
:102E50008DF803006846FDF76CFB0D208DF800002F
:102E600001208DF801008DF802008DF803006846FE
:102E7000FDF75FFB0F208DF8000001208DF80100A9
:102E80008DF802008DF803006846FDF752FB1D2007
:102E90008DF8000001208DF8010000208DF802005F
:102EA00001208DF803006846FDF743FB39208DF8BB
:102EB000000002208DF801008DF8020001208DF83D
:102EC00003006846FDF735FB1E208DF80000012049
:102ED0008DF8010003208DF8020001208DF8030019
:102EE0006846FDF726FB14208DF8000000208DF8C1
:102EF000010002208DF8020001208DF803006846D1
:102F0000FDF717FB15208DF8000000208DF801005B
:102F100001208DF802008DF803006846FDF709FBDB
:102F200013208DF8000002208DF801008DF80200BA
:102F300001208DF803006846FDF7FBFA40208DF86C
:102F4000000000208DF8010003208DF80200012010
:102F50008DF803006846FDF7ECFA41208DF800007B
:102F600000208DF8010002208DF8020001208DF86C
:102F700003006846FDF7DDFA3F208DF800000020D1
:102F80008DF8010001208DF802008DF803006846DD
:102F9000FDF7CFFA08BD00001CB501210846FEF779
:102FA00023FD01210220FEF71FFD01210420FEF771
:102FB0001BFD4FF40050009001208DF80400032009
:102FC0008DF8050000208DF8060001208DF807001F
:102FD0006946D548FEF76AFA4FF480400090012018
:102FE0008DF8040003208DF8050000208DF8060000
:102FF00001208DF807006946CB48FEF757FA4FF4D9
:103000008041C948FEF7CEFA4FF40051C648FEF79A
:10301000C9FA1CBD10B54FF40051C348FEF7CDFAF4
:1030200010BD10B54FF48041BF48FEF7BBFA10BD8C
:1030300010B5FFF7F6FFBD480068142190FBF1F2D0
:1030400001FB120038B1B948006890FBF1F201FBB6
:103050001200022801D1FFF7DDFFB4480068401CD0
:10306000B249086008460068B149884202DD002084
:10307000AE49086010BD10B54FF48041AA48FEF774
:1030800093FA10BD10B54FF40051A748FEF78AFA25
:1030900010BD10B5FFF7F6FFFFF7EDFF10BD10B53F
:1030A0004FF40051A048FEF77FFA10BD10B5FFF7AE
:1030B000E2FFFFF7F4FF10BD10B5FFF7B2FF9D4828
:1030C00000680A2190FBF1F201FB120010B9FFF732
:1030D000E6FF0AE0974800680A2190FBF1F201FB45
:1030E0001200012801D1FFF7CDFF92480068401C73
:1030F00090490860084600688D49884202DD00203A
:103100008C49086010BD10B5FFF7BCFF8A48006805
:103110000A2190FBF1F201FB120010B9FFF7ABFF9F
:103120000AE0854800680A2190FBF1F201FB1200D9
:10313000012801D1FFF775FF7F480068401C7E49D8
:103140000860084600687A49884202DD00207A4912
:10315000086010BD704710B578480068142190FBD6
:10316000F1F201FB120010B9FFF799FF0AE0734872
:103170000068142190FBF1F201FB1200022801D13A
:10318000FFF780FF6D480068142190FBF1F201FB0E
:1031900012000A2802D1FFF76EFF0AE067480068B4
:1031A000142190FBF1F201FB12000C2801D1FFF772
:1031B00038FF62480068401C6049086008460068A3
:1031C0005B49884202DD00205C49086010BD10B5F3
:1031D0005B4800680A2190FBF1F201FB120010B974
:1031E000FFF75DFF0AE0564800680A2190FBF1F204
:1031F00001FB1200012801D1FFF744FF504800688D
:103200000A2190FBF1F201FB1200052802D1FFF721
:1032100032FF0AE04A4800680A2190FBF1F201FB04
:103220001200062801D1FFF7FCFE45480068401C4B
:1032300043490860084600683D49884202DD002095
:103240003F49086010BD10B5FFF729FFFFF7E9FE01
:1032500010BD10B5FFF7E5FE3A480068C82190FBA5
:10326000F1F201FB1200B8B13648006890FBF1F2B0
:1032700001FB12000A280FD03248006890FBF1F2DF
:1032800001FB1200142807D02E48006890FBF1F2D1
:1032900001FB12001E2801D1FFF7BCFE294800687F
:1032A000401C28490860084600682149884202DD20
:1032B00000202449086010BD10B54FF480411A4821
:1032C000FEF770F94FF400511748FEF76BF910BD87
:1032D00010B54FF480411448FEF766F94FF40051E1
:1032E0001148FEF75FF910BD10B54FF480410E484C
:1032F000FEF758F94FF400510B48FEF755F910BD91
:1033000010B54FF480410848FEF74EF94FF40051D4
:103310000548FEF749F910BD10B54FF48041024849
:10332000FEF74BF910BD0000000802402400002009
:10333000A0860100280000202C0000203000002082
:10334000340000203800002000B595B00121084667
:10335000FEF74AFB01211020FEF78FFB01218805B3
:10336000FEF742FB07220921FE48FEF72AF9072251
:103370000A21FC48FEF725F94FF4C0600F900220A7
:103380008DF8400000208DF8420003208DF84100A8
:1033900000208DF843000FA9F248FEF787F84FF49C
:1033A000E13011900020ADF84800ADF84A00ADF8CA
:1033B0004C000C20ADF84E000020ADF8500011A9D3
:1033C000E948FFF71EFB0121E748FFF7A2FB0122B6
:1033D0004021E548FFF74AFC01228021E248FFF73F
:1033E00045FCE248FDF708FE4FF000600090DE4823
:1033F000001D0190DE4802900020039020200490E0
:10340000002005904FF480600690002007900890FF
:103410004FF4807009904FF440300A9000200B90D8
:103420000C900D900E906946D048FDF787FE012262
:103430001021CE48FDF749FF0121CC48FDF7B8FE29
:10344000CA487830FDF7D8FD4FF000600090C648BC
:10345000001D0190C7480290402003901620049060
:10346000002005904FF4806006900020079008909F
:103470004FF4807009904FF440300A9000200B9078
:103480000C900D900E906946B8487830FDF756FEC6
:1034900001221021B5487830FDF717FF0021B3480D
:1034A0007830FDF785FE15B000BD10B5B249AF48C4
:1034B000FDF7DBFE012807D14FF08151AB48FDF746
:1034C000F0FEAB4801F041FF10BD10B5AB49A74875
:1034D0007830FDF717FF78B14FF02051A3487830CE
:1034E000FDF7DFFEA549A1487830FDF735FF002143
:1034F0009E487830FDF75CFE10BD00B595B0012107
:103500000220FEF771FA01218804FEF7B6FA0722BD
:103510000B219B48FEF755F84FF400600F900220F6
:103520008DF8400000208DF8420003208DF8410006
:1035300000208DF843000FA99148FDF7B7FF91488F
:1035400011900020ADF84800ADF84A004FF48060BB
:10355000ADF84C000420ADF84E000020ADF850004E
:1035600011A98948FFF74DFA012240F2244186480B
:10357000FFF785FB01218448FFF7CBFA01224021A8
:103580008148FFF773FB01214805FEF72DFA7F48BC
:10359000FDF732FD4FF0006000907B48001D019068
:1035A0007B480290002003901E200490002005908C
:1035B0004FF4806006900020079008904FF48070D0
:1035C00009904FF440300A9000200B900C900D9021
:1035D0000E9069466D48FDF7B1FD01216B48FDF77E
:1035E000E7FD15B000BD10B540F224416648FFF775
:1035F00081FBF0B1644800886348001D0088002109
:103600006248FDF7D5FD6148FDF7F5FDC0F11E00EC
:103610006049086008460068122802D15C4801F041
:10362000F3FA1E215948FDF7E4FD01215748FDF743
:10363000BFFD10BD00B595B001210420FEF7D4F9FF
:103640000121C804FEF719FA08220A215248FDF7A1
:10365000B8FF08220B215048FDF7B3FF4FF440603C
:103660000F9002208DF8400000208DF842000320CA
:103670008DF8410000208DF843000FA94648FDF762
:1036800015FF4FF4E13011900020ADF84800ADF87F
:103690004A00ADF84C000C20ADF84E000020ADF80B
:1036A000500011A93D48FFF7ACF9012240F2244136
:1036B0003A48FFF7E4FA01213848FFF72AFA0122D5
:1036C00040213648FFF7D2FA012280213348FFF724
:1036D000CDFA01214805FEF787F92C481830FDF78F
:1036E0008BFC4FF0006000902C48001D01902C488E
:1036F00002900020039008200490002005904FF4D1
:10370000806006900020079008904FF48070099028
:103710004FF440300A9000200B900C900D900E90CA
:1037200069461A481830FDF709FD01221021174893
:103730001830FDF7CAFD012114481830FDF738FD97
:1037400001214805FEF750F910484830FDF754FCB8
:103750004FF0006000901148001D01901148029048
:10376000402021E00000024000100140406402407F
:103770004A0200203402002000802010008000282F
:1037800000040240A086010000480040286002407A
:10379000040200205400002000080240004C0040B9
:1037A000440000203C0000200390082004900020EA
:1037B00005904FF4806006900020079008904FF429
:1037C000807009904FF440300A9000200B900C90CC
:1037D0000D900E906946BB48FDF7B0FC0122102108
:1037E000B848FDF772FD0021B648FDF7E1FC15B0C1
:1037F00000BD10B540F22441B348FFF77BFA20B179
:10380000B1480088B048001D008810BD70B5AF49B0
:10381000AC483038FDF776FD002836D0AC48AD49CD
:103820000A6882604968C16000241AE0A848005D07
:10383000212814D1002506E02819A549085CA649CD
:103840004855681C05B2082DF6DB0621A248401C2D
:1038500000F0D0FD10B1A04801F0B7FA03E0601C01
:1038600004B2082CE2DB00BF4FF08151954830389C
:10387000FDF717FD954993483038FDF76DFD9448E5
:1038800001468A680260C968416070BD10B59349FD
:103890008C48FDF7EAFC01280FD100218948FDF78B
:1038A00087FC08218748FDF7A4FC8D498548FDF772
:1038B000F8FC8A498348FDF74FFD10BD00B595B06F
:1038C00001210846FEF790F801214804FEF7D5F8DB
:1038D000072202218348FDF774FE07220321814855
:1038E000FDF76FFE04200F9002208DF840000020AD
:1038F0008DF8420003208DF8410000208DF8430030
:103900000FA97848FDF7D2FD08200F9000208DF810
:10391000400003208DF8410000208DF843000FA9DE
:103920007048FDF7C3FD7048FFF704F84FF4E1302D
:1039300011900020ADF84800ADF84A00ADF84C00F9
:103940000C20ADF84E000020ADF8500011A96648DB
:10395000FFF757F801216448FFF7DBF801228021C7
:103960006148FFF783F901214805FEF73DF8554806
:103970003030FDF741FB4FF0006000905A48001DC9
:1039800001905A480290402003901E20049000208D
:1039900005904FF4806006900020079008900990F1
:1039A0004FF440300A9000200B900C900D900E9038
:1039B000694644483030FDF7C1FB012210214148DF
:1039C0003030FDF782FC00213E483030FDF7F0FB3F
:1039D00015B000BD10B546493A483030FDF745FCFA
:1039E00001280ED1002137483030FDF7E1FB414975
:1039F00034483030FDF755FC3D4932483030FDF752
:103A0000ABFC10BD00BF3C4A128802F04002002A05
:103A1000F9D0C2B2384B9A80704700B587B0012107
:103A20000420FDF7E1FF01210820FDF7DDFF012162
:103A30000805FEF722F8082202213048FDF7C1FDF3
:103A400008220C212E48FDF7BCFD4FF48050019058
:103A500002208DF8080000208DF80A0003208DF860
:103A6000090000208DF80B0001A92548FDF71EFD77
:103A70000420019000208DF8080003208DF8090033
:103A800000208DF80B0001A91C48FDF70FFD4FF435
:103A9000E13003900020ADF81000ADF81200ADF851
:103AA00014000C20ADF816000020ADF8180003A992
:103AB0001148FEF7A6FF01210F48FFF72AF807B0CB
:103AC00000BD000070600240004C004000802010EB
:103AD0006A020020440000204C00002020800020CA
:103AE0002000002000000240004400401602002098
:103AF000008020200000202000500040000C0240E8
:103B00000008024000B589B001210220FDF76CFFDA
:103B100001214806FDF7B1FF09220821D148FDF730
:103B200050FD09221146CF48FDF74BFD4FF4407080
:103B3000009002208DF804008DF8050000208DF81B
:103B4000060001208DF807006946C648FDF7AEFC67
:103B5000C548FCF759FD06A8FCF77AFE00208DF851
:103B60001E0001208DF81F008DF820008DF8210027
:103B700000208DF8220001208DF8230000208DF810
:103B80001A008DF81B0008208DF81C0003208DF80A
:103B90001D00ADF8180006A9B348FCF74EFD002043
:103BA0008DF8120001208DF8130000208DF814000C
:103BB00044F2A000ADF8080044F2C000ADF80A00DD
:103BC00044F2E000ADF80C004FF48240ADF80E0076
:103BD0000020ADF8100001208DF8150002A8FCF7B8
:103BE000B6FD01208DF812008DF813008DF8140039
:103BF00044F22000ADF808000020ADF80A0044F2BD
:103C00004000ADF80C000020ADF80E000120ADF82A
:103C100010008DF8150002A8FCF799FD0122022181
:103C20009148FDF793F8012210218F48FDF78EF897
:103C3000012211468C48FDF789F809B000BD00B596
:103C400089B001210220FDF7CFFE01218806FDF792
:103C500014FF09220D218348FDF7B3FC09220C2132
:103C60008048FDF7AEFC4FF44050009002208DF8E4
:103C700004008DF8050000208DF8060001208DF865
:103C8000070069467748FDF711FC7848FCF7BCFC53
:103C900006A8FCF7DDFD00208DF81E0001208DF840
:103CA0001F008DF820008DF8210000208DF82200E3
:103CB00001208DF8230000208DF81A008DF81B00DC
:103CC00008208DF81C0003208DF81D00ADF81800A9
:103CD00006A96648FCF7B1FC0F208DF81200012000
:103CE0008DF8130000208DF8140044F22000ADF888
:103CF000080044F24000ADF80A0044F26000ADF85C
:103D00000C004FF48140ADF80E000020ADF810001B
:103D100001208DF8150002A8FCF719FD10208DF880
:103D2000120001208DF813008DF814004003ADF847
:103D300008000020ADF80A0042F22000ADF80C00A7
:103D40000020ADF80E000120ADF810008DF8150030
:103D500002A8FCF7FCFC012202214448FCF7F6FF14
:103D6000012210214148FCF7F1FF012211463F4892
:103D7000FCF7ECFF09B000BD10B501213A48FDF792
:103D80004DF818B101213848FDF7E3F810BD00B532
:103D900087B002213448FDF741F870B10221324862
:103DA000FDF7D7F802AA00212F48FCF7B4FE0698C9
:103DB000009002A80FC801F076F807B000BD00B56A
:103DC00087B010212848FDF729F870B11021264846
:103DD000FDF7BFF802AA01212348FCF79CFE0698D4
:103DE000009002A80FC801F0BEF807B000BD00B5F2
:103DF00087B002211D48FDF711F870B102211B4860
:103E0000FDF7A7F802AA00211848FCF784FE0698DF
:103E1000009002A80FC801F0DEF807B000BD00B5A1
:103E200087B010211148FCF7F9FF70B110210F483D
:103E3000FDF78FF802AA01210C48FCF76CFE0698EA
:103E4000009002A80FC801F0C9F807B000BD10B576
:103E500001210648FCF7E2FF18B101210348FDF7F4
:103E600078F810BD00040240006400400068004083
:103E7000D0ED000AF4EEC00AF1EE10FA01DD80ED9B
:103E8000000AD0ED000AB1EE401AF4EEC10AF1EEDC
:103E900010FA03D2F1EE400AC0ED000A7047036445
:103EA000C263816380ED000AC0ED010A80ED021A51
:103EB000704780ED000AC0ED010A80ED021ADFEDC7
:103EC0004D1AC0ED081ADFED4B1AC0ED091ADFEDEF
:103ED000491AC0ED0A1ADFED471AC0ED0B1A7047F8
:103EE00010B52DED028B0446B0EE408AF0EE608AEC
:103EF00084ED048AC4ED038A38EEC80A84ED050A0D
:103F000094ED0C0AD4ED050A30EE200A84ED0C0A7B
:103F1000D4ED100AF8EE600AB0EE600A04F1300049
:103F2000FFF7A6FF94ED000AD4ED050A20EE200A63
:103F300084ED080A94ED010AD4ED0C0A20EE200A63
:103F400084ED090A94ED050AD4ED060A30EE600A04
:103F5000D4ED020A20EE200A84ED0A0A94ED080A44
:103F6000D4ED090A30EE200AD4ED0A0A30EE200A18
:103F700084ED0B0A94ED050A84ED060AD4ED0F0AD0
:103F8000F8EE600AB0EE600A04F12C00FFF770FF53
:103F900094ED0B0ABDEC028B10BD2DE9F0412DED27
:103FA000048B04460D4616461F46B0EE408AF0EEDE
:103FB000608AB0EE419A104860641048A064B0EE88
:103FC000491AF0EE680AB0EE480A3B4632462946E6
:103FD0002046D4F844C0E047B0EE491AF0EE680A33
:103FE000B0EE480A2046A16C8847BDEC048BBDE8C2
:103FF000F0810000000000009F3E0008B33E000872
:104000000EB501210220FDF738FD5320ADF8000068
:104010000020ADF80200312001900020ADF808002A
:104020006946BC48FDF7E1FE0121BA48FEF792FB64
:1040300001221146B748FEF779FB0EBD10B50121EC
:10404000B448FEF78AFB20B1B3480068401CB2496F
:10405000086010BD0EB501210420FDF70EFD032000
:10406000ADF800000020ADF80200292001900020EA
:10407000ADF808006946A948FDF7B7FE0121A74839
:10408000FEF768FB01221146A448FEF74FFB0EBD68
:1040900010B50121A148FEF760FB00287ED0002169
:1040A0009E48FDF72BFF002201219C48FEF73EFBB6
:1040B0009B480088002801DC002009E0984800881F
:1040C000B0F5FA6F02DB4FF4FA6001E09448008823
:1040D0009349088093480088002801DC002009E00B
:1040E00090480088B0F5FA6F02DB4FF4FA6001E007
:1040F0008C4800888B49088089480088C0F380205C
:104100008949087086480088C0F340204870844878
:104110000088C0F30020887081480078C0F3C01088
:10412000C8707F480078C0F3801008717C48007820
:10413000C0F3401048717A480078C0F300108871CD
:1041400077480078C0F3C000C87175480078C0F3A4
:104150008000087272480078C0F3400048727048CE
:10416000007800F0010088720020C87208460078CC
:10417000097948406C49097A48406B4908730846F8
:104180004078497948406849497A484066494873C7
:104190000846807889794840634900E0B9E0897A27
:1041A0004840614988730846C078C97948405E49EB
:1041B000C97A48405C49C87300205C49086013E034
:1041C00059485A490968405C012801D1172000E08C
:1041D0000C20564909684900554A42F821005348C5
:1041E0000068401C51490860504800681028E7DB0F
:1041F0004C480088C0F380204B490870494800882B
:10420000C0F34020487047480088C0F30020887001
:1042100044480078C0F3C010C87042480078C0F32A
:10422000801008713F480078C0F3401048713D4845
:104230000078C0F3001088713A480078C0F3C000DD
:10424000C87138480078C0F380000872354800789B
:10425000C0F3400048723348007800F001008872D3
:104260000020C87208460078097948402E49097A2A
:1042700048402D49087308464078497948402A4902
:10428000497A4840284948730846807889794840E7
:104290002549897A4840244988730846C078C979F5
:1042A00048402149C97A48401F49C87300201F4926
:1042B000086014E01C481D490968405C012801D1D0
:1042C000172100E00C21194800684000401C184AE2
:1042D00042F8201015480068401C14490860134833
:1042E00000681028E6DB13491348FCF7DAFF0122C7
:1042F00011021248FEF74AFA012210210E48FCF77B
:10430000E4FF01210C48FCF753FF01210348FEF7AD
:1043100035FA10BD0004004058000020000800409D
:104320005C0000205E0000207A0200206000002077
:1043300068000020000800102864024000040140CA
:1043400030B5034613B94FF6FF7030BD09E013F8DE
:10435000014B82EA0400C0B23C4D35F8100080EAFF
:1043600022220800A1F10101F1D11046EDE770B55C
:1043700005460C4600260DB1022C01D8002070BD68
:10438000A11E334802882846FFF7DAFF0646F1B23D
:10439000A01E285C814206D1601E285CB0EB162F5F
:1043A00001D10120EBE70020E9E770B505460C4696
:1043B00000260DB1022C00D870BDA11E2448028831
:1043C0002846FFF7BDFF0646A01E2E54310A601E88
:1043D000295400BFF0E730B5034605E013F8010BA0
:1043E00080EA02041B48025D0800A1F10101F5D139
:1043F000104630BD70B505460C4600260DB1022CA6
:1044000001D8002070BD611EFF222846FFF7E3FFA0
:10441000064611490880601E285CB04201D1012087
:10442000F0E70020EEE770B505460C4600260DB11A
:10443000022C00D870BD611EFF222846FFF7CBFF7B
:104440000646601E2E5400BFF4E70000A695000843
:1044500064000020A79700086600002070B52DEDCD
:10446000048B06460D46B0EE408AF0EE608AB0EE50
:10447000419A144624B9B0EE480ABDEC048B70BDD5
:10448000012C07D1F0EE480AB0EE680A3046FFF77B
:1044900027FDF2E7022C07D1F0EE480AB0EE490AF8
:1044A0002846FFF71DFDE8E7032C10D1F0EE480A7F
:1044B000B0EE490A2846FFF713FDF0EE409AF0EE01
:1044C000690AB0EE680A3046FFF70AFDD5E7042C0A
:1044D00016D1FD48D0ED010AB0EE600AF0EE480AB0
:1044E0002846FFF7FDFCF0EE409AF748D0ED030AAE
:1044F000B0EE600AF0EE690A3046FFF7F1FCBCE767
:10450000052C16D1F048D0ED000AB0EE600AF0EEAE
:10451000480A2846FFF7E4FCF0EE409AEA48D0ED5E
:10452000020AB0EE600AF0EE690A3046FFF7D8FCE6
:10453000A3E79FEDE60AA0E700B585B0E448006870
:1045400001283DD1E348027BD0ED081AB0EE611A94
:10455000B0F9240001EE900AF8EEE11AF0EE610ADB
:10456000DC48D0ED0A1AB0EE610A00F178012C3077
:10457000FFF774FFBDEEC00A10EE100A00B2D54975
:104580008882D548027BD0ED081AB0EE611AB0F9E6
:10459000240001EE900AF8EEE11AF0EE610ACE482E
:1045A000D0ED0A1AB0EE610A00F178012C30FFF765
:1045B00055FFBDEEC00A10EE100A00B2C64988824F
:1045C000C348006802283FD1C248027BD0ED081AD8
:1045D000B0EE611AB0F9240001EE900AF8EEE11A8B
:1045E000F0EE610ABB48D0ED0A1AB0EE610A00F5A0
:1045F000D47100F5AE70FFF731FFBDEEC00A10EECA
:10460000100A00B2B3498882B348027BD0ED081A81
:10461000B0EE611AB0F9240001EE900AF8EEE11A4A
:10462000F0EE610AAC48D0ED0A1AB0EE610A00F56E
:10463000D47100F5AE70FFF711FFBDEEC00A10EEA9
:10464000100A00B2A4498882A148006803283DD11D
:10465000A048027BD0ED081AB0EE611AB0F9240030
:1046600001EE900AF8EEE11AF0EE610A9948D0EDF9
:104670000A1AB0EE610A00F58871C430FFF7EEFE49
:10468000BDEEC00A10EE100A00B29249888292482C
:10469000027BD0ED081AB0EE611AB0F9240001EEE9
:1046A000900AF8EEE11AF0EE610A8B48D0ED0A1A92
:1046B000B0EE610A00F58871C430FFF7CFFEBDEEA1
:1046C000C00A10EE100A00B28349888200208DF8DB
:1046D00008008DF8090008208DF80A0040F2FF104C
:1046E00000907C48B0F914007C49884201DC0846FF
:1046F0000BE07848B0F9140047F23051884201DBF2
:10470000084602E07348B0F9140072498882724882
:10471000B0F914007149884201DC08460BE06E488C
:10472000B0F9140047F23051884201DB084602E03C
:104730006948B0F91400684988820846806840F2E8
:104740000621884216D163488068491C884211D1ED
:104750006148808A000A8DF80B005F48017D8DF862
:104760000C105C48808A010A8DF80D105948017DB3
:104770008DF80E1069465A48FCF7D8F805B000BD10
:104780001CB50024FF208DF800008DF80100FE20EC
:104790008DF8020002208DF8030005208DF804003A
:1047A000FA208DF8050000BF0DE01DF804104D48FB
:1047B000FEF7DAF900BF40214A48FEF785FA0128E2
:1047C000F9D1601CC4B2052CEFDD1CBD7FB50446D9
:1047D0000025FF208DF800008DF80100FE208DF8E7
:1047E000020005208DF8030004208DF804001E202F
:1047F0008DF80500E0B28DF8060020128DF8070054
:104800009DF802009DF8031008449DF80410084428
:104810009DF8051008449DF8061008449DF80710FF
:104820000844C043C0B28DF8080000BF0DE01DF879
:1048300005102C48FEF798F900BF40212948FEF7E3
:1048400043FA0128F9D1681CC5B2082DEFDD7FBD00
:104850001FB50024FF208DF800008DF80100FE2018
:104860008DF8020004208DF8030003208DF8040069
:1048700004208DF8050010208DF806009DF8020038
:104880009DF8031008449DF8041008449DF8051095
:1048900008449DF806100844C043C0B28DF80700D4
:1048A00000BF0DE01DF804100E48FEF75DF900BFD3
:1048B00040210C48FEF708FA0128F9D1601CC4B267
:1048C000072CEFDD1FBD00002C08002000000000B9
:1048D0002C010020100300202C050020D08AFFFFAF
:1048E000006400400044004000B585B02A48027BC7
:1048F000D0ED081AB0EE611AB0F9240001EE900A6A
:10490000F8EEE11AF0EE610A2348D0ED0A1AB0EE93
:10491000610A00F178012C30FFF7A0FDBDEEC00A5E
:1049200010EE100A00B21C49888200208DF80800A1
:104930008DF8090008208DF80A00800100900846D3
:10494000B0F914001549884201DC08460BE0124812
:10495000B0F9140042F21071884201DB084602E00F
:104960000D48B0F914000C49888208468068A0F20E
:10497000012048B90846808A000A8DF80B000846D5
:10498000017D8DF80C1000BF00BF69460448FBF79D
:10499000CDFF05B000BD000048070020F0D8FFFFA4
:1049A0000064004000B58BB001210220FDF776F8CD
:1049B00001210420FDF718F84FF4C070099002207F
:1049C0008DF828008DF82B0000208DF82A00032098
:1049D0008DF8290009A94348FCF768FD0322072147
:1049E0004048FCF7EEFD032208213E48FCF7E9FDB4
:1049F000A720ADF804000020ADF8060044F62060C2
:104A000002900020ADF80C0001A93748FDF7EDF940
:104A10007020ADF810000120ADF812004FF47A704C
:104A2000069004A93048FDF7FBFA6020ADF81000AD
:104A300004A92D48FDF7A7FA01212B48FDF75EFADE
:104A400001212948FDF74BFE0BB000BD10B52749E9
:104A50002748FCF70AFC012826D10022010222483F
:104A6000FDF794FE002210212148FCF72EFC0021C6
:104A70001F48FCF79DFB00211B48FDF7A6FB00210A
:104A80001948FDF7A4FB01211A48FDF737FA012167
:104A90001848FDF75FFE012211461648FDF746FE55
:104AA00012491348FCF758FC10BD002801DC002215
:104AB00006E0B0F5FA6F02DB4FF4FA6200E002465E
:104AC0001046002901DC002206E0B1F5FA6F02DB96
:104AD0004FF4FA6200E00A461146074B1880074B74
:104AE000198070470008024000040140008800104F
:104AF00028640240000800405C0000205E000020A6
:104B0000F0EE400AC0ED040A90ED040A90ED031A9D
:104B100030EE410A80ED050A90ED040A80ED030AAB
:104B200090ED050A90ED021ADFED341A21EE211AFC
:104B3000B4EEC10AF1EE10FA0FDD90ED050A90ED2A
:104B4000021A30EE410A80ED050A90ED010AB7EE37
:104B5000001A30EE010A80ED010A90ED050A90ED91
:104B6000021ADFED271A21EE211AB4EEC10AF1EE86
:104B700010FA0FD290ED050A90ED021A30EE010AFC
:104B800080ED050A90ED010AB7EE001A30EE410AF9
:104B900080ED010A90ED040A90ED011AD0ED021AA1
:104BA00001EE610A704700B50146B0EE402AB0EE52
:104BB000420A0846FFF7A4FF00BDC0ED040A80EDDD
:104BC000020A9FED101A80ED031A9FED0E1A80ED78
:104BD000051A9FED0C1A80ED011A704700B50146C9
:104BE00091ED020AF0EE401ADFED060AB0EE610A1E
:104BF0000846FFF7E2FFB7EE000A00BD3333333F4C
:104C0000333333BF0000000010B5044620786178CC
:104C100040EA0120C0F30A00FC4908806078C01017
:104C2000A17840EA4110C0F30A00F8494880A07812
:104C30008011E17840EA8100217940EA8120C0F3C7
:104C40000A00F249888020794010617940EAC11059
:104C5000C0F30A00ED49C8806079C0F301100881F3
:104C600060798009488108460088A0F580600F2897
:104C700009DA08460088A0F5806010F10F0F02DD08
:104C80004FF480600880E1484088A0F580600F28DC
:104C90000ADADE484088A0F5806010F10F0F03DDCE
:104CA0004FF48060D9494880D8488088A0F580605A
:104CB0000A280ADAD5488088A0F5806010F10A0F2A
:104CC00003DD4FF48060D1498880D048C088A0F5CA
:104CD00080600A280ADACD48C088A0F5806010F10B
:104CE0000A0F03DD4FF48060C849C880A079E179DC
:104CF00040EA012000B2C5498881207A617A40EA01
:104D0000012001B2C148C181A07AE17A40EA0120C4
:104D100001B2BE480182217B8174617BC174A07B9A
:104D200000F00100B9498882A07BC0F34001B74878
:104D3000C182A07BC0F38001B4480183A07BC0F393
:104D4000C001B2484183A07BC0F30011AF48018687
:104D5000A07BC0F34011AD484186A07BC0F3801119
:104D6000AA488183A07BC109A848C183E07B00F0E9
:104D70000101A6480184E07BC0F34001A3484184BF
:104D8000E07BC0F38001A1488184E07BC0F3C001D7
:104D90009E48C184E07BC0F300119C480185E07B04
:104DA000C0F3401199484185E07BC0F380119748DA
:104DB0008185E07BC1099548C1850020934908871A
:104DC00002F0FEFA9149486310BD10B504466078C0
:104DD00048BBE078A17840EA012000B200EE100A5A
:104DE000B8EEC00ADFED8A0A80EE201A894880ED0D
:104DF000001A6079217940EA012000B200EE100A21
:104E0000B8EEC00ADFED820A80EE201AB1EE410A48
:104E1000804880ED010A02F0D3FA7E490861084615
:104E2000C068401CC86000207A49088110BD10B5D8
:104E30002DED028B78497948FCF733FA2120784927
:104E4000087000204870774890ED010AB0EE408A63
:104E50009FED6F0A28EE000ABDEEC00A10EE100AA0
:104E600004B2200A8870CC706E4890ED000AF0EE13
:104E7000408A9FED670A28EE800ABDEEC00A10EE58
:104E8000100A04B2200A08714C712320C87106214F
:104E90006348401CFFF7C7FA01216048FCF788F916
:104EA000BDEC028B10BD0FB410B50298A0F2052026
:104EB00010B1012853D124E09DF814009DF813107F
:104EC00040EA01205849C8839DF818109DF8170042
:104ED00041EA00205449C8840846C08B00EE900A7D
:104EE000F8EE600AB0EE600A01F5FA70FFF75BFEBB
:104EF0004D4880ED080A02F063FA4B49C1F81402EC
:104F00002DE09DF814009DF8131040EA0120474958
:104F1000C8839DF816109DF8150041EA002000B2E4
:104F2000424988849DF818109DF8170041EA002036
:104F30003E49C8840846C08B00EE900AF8EE600A2D
:104F4000B0EE600A01F5FA70FFF72DFE374880EDEC
:104F5000080A02F035FA3549C1F8140200BF00BF53
:104F600010BC5DF814FB0FB410B50298A0F201203C
:104F700068BB9DF814009DF8131040EA01202C49ED
:104F8000C8839DF816109DF8150041EA002000B274
:104F9000274988849DF818109DF8170041EA0020E1
:104FA0002349C8840846C08B00EE900AF8EE600AD8
:104FB000B0EE600A01F1C400FFF7F5FD1C4880ED7A
:104FC000080A02F0FDF91A49C1F8DC0000BF00BF71
:104FD00010BC5DF814FB00BF00BF70470FB410B5E4
:104FE0000298B0F5807F03D0A0F2011068B921E0EB
:104FF0000C48DDF8131041600146DDF81700C86069
:1050000002F0DEF90749886121E020E08C020020EF
:105010000000C842C802002020000020706002404A
:105020003C0000202C0800202C050020100300204C
:1050300048070020FD48DDF8131001600146DDF847
:105040001700886002F0BCF9F849886100BF00BF12
:1050500010BC5DF814FB10B504460021F448FCF7C1
:10506000A7F82146F248FCF7C4F80121F048FCF704
:105070009FF810BD10B504460021EE48FCF798F8E3
:105080002146EC48FCF7B5F80121EA48FCF790F816
:1050900010BDF0B52DED068B85B00024002500274E
:1050A000002004900390029001900090E248007864
:1050B000012804D0022867D0032864D1C7E0002467
:1050C0000027AA222146641CDC48425405222146BE
:1050D000641C4254AF222146641C4254D6480078D6
:1050E000F030C2B22146641CD4484254641CCF48FC
:1050F00090ED000A5FED3A0A20EE200ABDEEC00AEC
:1051000010EE100A00B204909DF811202146641C94
:10511000CA4842549DF810202146641C4254C3489A
:1051200090ED010A5FED460A20EE200ABDEEC00AAE
:1051300010EE100A00B203909DF80D202046611C6D
:10514000CCB2BE490A549DF80C202146601CC4B262
:10515000BA484254601FB94908710025002005E093
:10516000B649095C2944CDB2411CC8B2B34909799A
:10517000491D8142F4DC2046611CCCB2AF490D547C
:105180002046FFF777FFD0E00024AA222146641CC6
:10519000AA48425405222146641C4254AF222146AB
:1051A000641C4254A4480078F030C2B22146641C0A
:1051B000A2484254641CA24890ED010A5FED6C0ABB
:1051C00020EE200ABDEEC00A10EE100A00B20290D6
:1051D0009DF809202146641C984842549DF80820F7
:1051E0002146641C4254964890ED000A5FED780A0F
:1051F00020EE200ABDEEC00A10EE100A00B20190A7
:105200009DF805202046611CCCB28C490A549DF8BB
:1052100004202046611CCCB288490A54601F0871E2
:105220000025002005E08549095C2944CDB2411CD8
:10523000C8B282490979491D8142F4DC2046611CCB
:10524000CCB27E490D542046FFF714FF6DE00024D8
:105250007C480088401C7B490880AA222146641CA7
:105260007648425405222146641C4254AF2221460E
:10527000641C425470480078F030C2B22146641C6D
:105280006E484254641C6F48008800EE100AB8EE65
:10529000400ADFED6D0A20EE200ADFED6C0A80EE99
:1052A000201A11EE106A304603F09BF941EC1A0BFC
:1052B000B0EE4A0AF0EE6A0A03F0FAFBB0EE409A4A
:1052C000F0EE609A9FED620B53EC102B51EC190B32
:1052D00003F0F6F841EC180B03F064F900B200900B
:1052E0009DF801202146641C544842549DF800203A
:1052F0002146641C4254601F50490871002500205B
:1053000005E04E49095C2944CDB2411CC8B24B4965
:105310000979491D8142F4DC2046611CCCB2474921
:105320000D542046FFF7A6FE00BF00BF424800789C
:10533000401C4149087008460078042801DB012020
:10534000087005B0BDEC068BF0BD2DE9F0410746B5
:1053500000240025202239463F4803F07DF800BF95
:105360007EE13D482038005DA5287BD13A492039AF
:1053700008190521FFF73EF80128F6D136492039F2
:10538000A01D0E5C601D085C40EA0626A01C0D5C9A
:10539000601C085C40EA052540F2012086420BD1E2
:1053A000081905F10901FEF7E2FF28B12A49203961
:1053B000E01D085C2949087040F2032086427DD137
:1053C00025492039081905F10901FEF7D0FF002809
:1053D00074D02149203904F10A00085C2049086092
:1053E0001D49203904F10900085C1D49096840EA9B
:1053F00001201B4908601849203904F10800085CA5
:105400001749096840EA0120154908601249203906
:10541000E01D085C1249096840EA01201049086053
:105420000D49203904F10E00085C1CE02C08002016
:10543000B8640240A0600240FC0000201602002078
:10544000C8020020FE000020C3F54840000034439D
:1054500000000000000059406C080020DC02002021
:10546000E8000020FAE0C7490860C74904F10D00D0
:10547000085CC449096840EA0120C2490860C24981
:1054800004F10C00085CBF49096840EA0120BD49ED
:105490000860BD4904F10B00085CBA49096840EA9C
:1054A0000120B8490860B84904F11200085CB74906
:1054B0000860B54904F11100085C00E055E0B3490B
:1054C000096840EA0120B1490860AF4904F11000C1
:1054D000085CAE49096840EA0120AC490860AA4965
:1054E00004F10F00085CA949096840EA0120A749B6
:1054F0000860A54904F11600085CA5490860A249A6
:1055000004F11500085CA249096840EA0120A0499D
:1055100008609D4904F11400085C9D49096840EA4F
:1055200001209B490860984904F11300085C9849E0
:10553000096840EA012096490860964890ED000A03
:10554000954880ED010A8F4890ED000A924880ED61
:10555000020A8E4890ED000A8F4880ED030A084643
:1055600090ED000A8C4880ED040A40F20520864246
:105570001BD18549081905F10901FEF7F8FEA0B114
:10558000814904F10800085C834988827E49E01D56
:10559000085C8149097D40EA01207F4988827A4977
:1055A00004F10900085C7C49887540F207208642B6
:1055B0003AD17549081905F10901FEF7D8FE98B3EB
:1055C0007149E01D085C01282ED104F10800085C37
:1055D000714908766C4904F10C00085C6F49086059
:1055E000694904F10B00085C6C49096840EA012034
:1055F0006A490860644904F10A00085C674909685F
:1056000040EA0120654908605F4904F10900085C2F
:105610006249096840EA012060490860084690ED47
:10562000000A5D4880ED070AB6F5027F16D156499B
:10563000081905F10901FEF79AFE78B1524904F103
:105640000800085C544908844F49E01D085C524931
:1056500091F8201040EA01204F490884601C04B2F0
:10566000202CFFF67EAE202247492031464802F02A
:10567000F3FEBDE8F0812DE9F0410546132640F226
:10568000013740F2011844480478062C03D14FF446
:105690008370434908806A2C03D14FF4B5704049A8
:1056A0000880A5203F4908704E70300A887000209D
:1056B000C87005213B48FEF7B6FE3A494F71380ADB
:1056C000887181F807804FEA182008724C72200A0E
:1056D000887233480078C87231480088000A08731D
:1056E000012D46D16520304948706E2088700846EB
:1056F000C07820F00700801CC8700846C07820F0F1
:1057000038003030C8700846B0F8030020F47070DC
:105710004030A1F803000846007920F03C001C301E
:10572000087114212048808861F38E101E498880FA
:105730000846B0F807006FF30900801CA1F80700C5
:1057400096211948008961F38C001749088164216A
:105750001548B0F8090061F34F101349A1F809008A
:105760000D48808AC1F80B000F220E480D3002F060
:1057700073FE1E210B48FEF718FE1E20FFF76BFC80
:10578000BDE8F081EC0000204C080020F000002073
:10579000F4000020E8000020DC020020F8000020D7
:1057A00000010020340200200003002070B50546EF
:1057B0000C4645F25550FDF7E7FA2846FDF7E7FAA3
:1057C0002046FDF7E7FAFDF7E8FAFDF7EBFA70BDC2
:1057D00010B5FDF7E2FA10BD1CB5044617480421C8
:1057E00000238022CDE9001015A1194801F023F80B
:1057F0001848012100238022CDE9001016A1194884
:1058000001F019F81848012100238022CDE9001089
:1058100016A1194801F00FF81848006801F059F86E
:105820001CBD1CB51548042100238022CDE90010C1
:1058300013A1AFF25B0000F0FEFF1CBD08010020C9
:1058400053656C66636865636B205461736B00001D
:10585000A75A00080C010020446562756720546156
:10586000736B00006D650008100100204A756467C5
:1058700065205461736B0000ED6500080401002091
:1058800053797374656D53746172740010B500F0D0
:105890002AFE90B1AB480088401C00B2A94908809C
:1058A000A948007800F0030010B9A84801F011F8E9
:1058B000A74801F00EF8012010BD0020FCE71CB540
:1058C000A148007800F0030000B109E0A1480521DB
:1058D00000238022CDE900109FA19C4800F0ABFF7F
:1058E000A248052100238022CDE90010A0A19848FC
:1058F00000F0A1FF1CBD10B59348008810282CD0E3
:1059000005DC50B1012822D004282FD122E0402804
:1059100026D0B0F5807F29D125E08B48807828B942
:105920008948C07810B9FDF783FB0FE0864880787E
:1059300030B98548C078012802D1FDF78AFC05E01E
:1059400081488078012801D1FDF77DFC11E0FDF749
:10595000B3FB0EE0FDF7FFFB0BE0FDF7D4FB08E027
:10596000FDF7F8FB05E0FDF732FC02E0FDF791FBE7
:1059700000BF00BF10BD0346581A904201D9012054
:1059800070470020FCE710B501F01AFD04467A4884
:10599000642281692046FFF7EEFF6B49097860F3C6
:1059A00001016948017075486422D0F8141220463C
:1059B000FFF7E1FF6449097860F30511624801705F
:1059C0006F486422D0F814122046FFF7D4FF5E49D6
:1059D000097860F387115C4801706A48416B4FF4A5
:1059E0007A722046FFF7C7FF5749097860F38301B1
:1059F0005548017064486422D0F8DC102046FFF757
:105A0000BAFF514948705F480089022802D101203D
:105A1000887002E000204C4988705C48C822016907
:105A20002046FFF7A8FF484908710846007800F0B3
:105A30000300012801D15049087743480078C0F39A
:105A40000110012802D14D4981F818023E48007822
:105A50000121B1EB901F03D10120494981F81802BF
:105A600039480078C0F38100012802D1454981F806
:105A70003A003548407800F00300012802D142493D
:105A800081F8E00010BD01203B4908773B4981F8CF
:105A900018023B4981F818023A4981F83A003A491C
:105AA00081F8E000704701F08BFC39490860FDF790
:105AB000FDFA40F214514020FFF778FE06E0FFF7B0
:105AC00062FFFFF785FE012001F033F901F078FC59
:105AD0002F490968401AB0F5487FF0D31A4800886A
:105AE00008B9FFF7D0FF1848008800B104E0FFF7BD
:105AF000E6FE00202749088000BFFFF744FFFFF7BC
:105B0000FAFE1148008848B922480088012805D1CA
:105B1000FFF7D5FE00201F4908800CE00A480088E6
:105B200048B11C48008830B900BFFFF7AFFE10B184
:105B3000012018490880FFF74BFE642001F0F9F8B6
:105B4000DBE70000220100201C0100200D5E0008A0
:105B50004362000814010020496D7520636F747260
:105B60006F6C2067696D62616C0000001801002095
:105B700073686F6F740000002C0800201003002071
:105B80002C0500208C02002048070020C8020020BD
:105B90002401002028010020FE48408D01280FD15B
:105BA000FD48008860B9FD480088022802D1002025
:105BB000FA490880F948008810B90220F74908809E
:105BC000F448408D00B2F4490880F248C08C0128A6
:105BD00010D1F348008868B9F0480088022802D143
:105BE0000120EE490880ED480088012802D10220FA
:105BF000EA490880E748C08C00B2E9490880E948D2
:105C00000068032806D1E3480089012802D1022058
:105C1000E2490880E3480068012806D1DD48008990
:105C2000032802D10120DD490880DE4800680228EF
:105C300006D0D8480089022802D10020D749088020
:105C4000D4480089022806D0D6480068022802D12C
:105C50000120D2490880CF480089D24908607047A6
:105C600010B50020D049087040F20720886008462F
:105C7000C08B00EE100AB8EE400AF0EE400A9FED2D
:105C8000CB0A01F5FA70FEF798FF0520C6490873A4
:105C90009FEDC71ADFEDC70A9FEDC70A642347F2DD
:105CA00030520121C0482C30FEF777F99FEDC31A1E
:105CB000DFEDC20A9FEDC20A642347F23052012190
:105CC000B9487830FEF769F99FEDBC1ADFEDBB0AE1
:105CD0009FEDBC0A642347F230520121BA48FEF717
:105CE0005CF99FEDB31ADFEDB90A9FEDB90A6423A1
:105CF00047F230520121B4484C38FEF74EF99FED7F
:105D0000B51ADFEDB50A9FEDB50A642347F23052AC
:105D10000121AD489838FEF740F99FEDA51ADFED57
:105D2000AB0A9FEDAB0A642347F2305201219E4833
:105D3000C430FEF732F90020A949087040F206206D
:105D400088600846C08B00EE100AB8EE400AF0EEFC
:105D5000400A9FED960A01F5FA70FEF72EFF042027
:105D60009F4908739FED9F1ADFED940A9FED9E0AED
:105D7000642347F23052012199482C30FEF70DF987
:105D8000B0EE0C1ADFED990AB7EE000A642347F271
:105D90003052012192487830FEF7FFF89FED851AC6
:105DA000DFED840AB8EE000A642347F23052012185
:105DB0008F48FEF7F2F89FED8F1ADFED800A9FED16
:105DC0008E0A642347F23052012189484C38FEF78D
:105DD000E4F8BBEE041ADFED890AB8EE000A64238A
:105DE00047F23052012182489838FEF7D6F89FEDED
:105DF000811ADFED720A9FED800A642347F2305268
:105E000001217748C430FEF7C8F810BDFFF728FF1E
:105E100001F0D6FA7A4908600EE07A4890ED000A5F
:105E2000794880ED000A774890ED010A774880EDC7
:105E3000000A012000F07DFF01F0C2FA70490968F4
:105E4000401AB0F5FA7FE8D300BFFFF7A5FE53482C
:105E5000008800287ED051480088022858D16C481C
:105E60000068401C6A4908604A48B0F90E0000EE1C
:105E7000100AF8EEC00A654890ED000A9FED651A19
:105E800000EEC10A80ED000A4248B0F90C0000EEB5
:105E9000100AF8EEC00A5C4890ED000A9FED5D1A0A
:105EA00000EEC10A80ED000A3A48808A00EE100A2E
:105EB000F8EE400A554890ED000A9FED571A00EEA3
:105EC000810A3448C08A00EE900AF8EE600A9FED1D
:105ED000521A00EEC10A4D4880ED000A2D48408B51
:105EE00000EE100AF8EE400A474890ED000A9FEDD8
:105EF0004A1A00EEC10A2748008B00EE900AF8EE1D
:105F0000600A9FED451A00EE810A3F4880ED000AC5
:105F10002248008803280CD1404890ED010A3A48F5
:105F200080ED000A3D4890ED000A384880ED000AF7
:105F3000C4E01A480088012874D1354800686428F4
:105F400027D33348006840F2DC51884221D83448D6
:105F5000008800E0ECE0012803D103200F4908800D
:105F600012E02F48008803280ED101200B49088039
:105F7000244890ED000A244880ED000A214890ED65
:105F8000010A224880ED000A0448B0F900002449C3
:105F9000088048E08C020020500100202C010020E5
:105FA000520100204C0100201003002000F8FF45A2
:105FB00000401CC5000000800000FAC40000000082
:105FC0009A99993F9A99193FB8040020A69BC4BB9F
:105FD0000080D4C49A99993E6F12833BCDCC4C3E3D
:105FE0002C0500200080BB4400401C458FC2753C3E
:105FF000D40600200000C8420000C843CDCCCCBD70
:10600000340100202C0800205C0100204401002005
:10601000300100206F12833A0AD7233CC8020020C7
:10602000380100204AE000205649086056480088A0
:10603000A0F580600A280ADA53480088A0F580603D
:1060400010F10A0F03DD4FF480604F4908804E487D
:106050004088A0F580600A280ADA4B484088A0F5FD
:10606000806010F10A0F03DD4FF4806046494880DC
:106070004548008800EE100AB8EE400ADFED430AFA
:1060800070EE600A424890ED000A9FED421A00EE61
:10609000C10A80ED000A3C48408800EE100AB8EEC4
:1060A000400ADFED3A0A70EE600A3B4890ED000AC4
:1060B0009FED3A1A00EEC10A80ED000A384890EDD3
:1060C000080ADFED380A30EE600A3748D0ED000AE2
:1060D00080EE201A354890ED000A31EE400A34482F
:1060E00080ED000A334890ED080ADFED330A30EE08
:1060F000600A3248D0ED000A80EE201A2B4890ED5D
:10610000010A31EE400A2E4880ED000A204890ED49
:10611000000A234880ED0A0A1F4890ED000A25482E
:1061200080ED0A0A01F0A7FFFEF706FA01F0CAFFA8
:106130002448008858B91D4890ED000A144880EDA5
:10614000000A1A4890ED010A134880ED000AFEF794
:106150006EFE012000F0EDFD77E690ED001AB4EE42
:10616000C01AF1EE10FA02DD80ED000A08E090EDB1
:10617000001AB4EEE01AF1EE10FA01D2C0ED000AF6
:1061800070470000300100208C0200200000804495
:106190005C01002017B7D1384401002082A8FB37EA
:1061A0001003002000600345540100202C0800204B
:1061B0003C0100202C05002000E07C455801002017
:1061C000400100202C01002010B59FEDD00AD048DE
:1061D00080ED330A0320CE49087340F20120886025
:1061E0000846C08B00EE100AB8EE400AF0EE400AF6
:1061F0009FEDC60A01F1C400FEF7DFFCC44890ED34
:10620000080A80ED0A0A9FEDC31ADFEDC20AB3EE59
:10621000040A4FF4FA7342F2107201212C30FDF798
:10622000BCFE9FEDBD1ADFEDBB0A9FEDBC0A4FF42B
:10623000FA7342F210720121B5487830FDF7ADFED5
:1062400010BDFFF7C1FF00BFB548006800287CD033
:10625000B4480088002878D1B1480068022850D19D
:10626000B148007880B9B148408C01280CD1B048C1
:10627000007810B90120AE490870AD4800780128B7
:1062800002D10020AA490870A84890F82200A64927
:106290000870A848B0F90010A748FBF796FFA74878
:1062A000B0F90010A448FBF792FFA048807C0128B9
:1062B0000FD19F48007801280BD1954890ED0A0A2C
:1062C0009F48D0ED000A30EE200A914880ED0A0A7E
:1062D00012E09748007878B99A48007860B99348F6
:1062E000807C012808D18A4890ED0A0ADFED960AE1
:1062F00030EE200A80ED0A0A8C48807C91490870B3
:106300007EE08748006801287AD1884840890228C1
:106310000AD14FF47A718848FBF757FF4FF47A712E
:106320008548FBF754FF6BE080484089032813D170
:1063300086480068401C854908607E48B0F9001016
:106340007D48FBF742FF7D4800E086E0B0F9001091
:106350007948FBF73CFF53E07448408901284FD14E
:106360007A480068642813DB7848006840F2DC5102
:1063700088420DDC6E48007818B901206C4908701D
:1063800006E06B480078012802D1002068490870B7
:1063900000206E4908606E4800686E49098888428E
:1063A0000EDD6348007858B9594890ED0A0ADFEDD0
:1063B000660A30EE200A80ED0A0A0020644908606F
:1063C0005B48007801280AD1514890ED0A0A5C48E0
:1063D000D0ED000A30EE200A4D4880ED0A0A5548FB
:1063E000B0F900105448FBF7F0FE5448B0F9001023
:1063F0005148FBF7ECFE56480068401C54490860C1
:1064000001F039FEFEF770FA01F05CFE5248B0F977
:106410000000002863DD9FED511ADFED500AB2EE57
:10642000000A4FF4FA7342F21072012138482C30FE
:10643000FDF7B3FD9FED371ADFED490AB5EE000A0F
:106440004FF4FA7342F21072012131487830FDF7AF
:10645000A4FD00204049088041E03448008902281A
:1064600002D030480088D0B33B48B0F90000B0F506
:10647000FA6F34DA264890ED080A80ED0A0A90EDAA
:106480000B0ADFED380A80EE201A90ED0B0A30EE91
:10649000410A80ED0B0A90ED0C0ADFED320A80EE26
:1064A000201A90ED0C0A30EE410A80ED0C0A90EDB6
:1064B0000D0ADFED2C0A80EE201A90ED0D0A30EE69
:1064C000410A80ED0D0A01F0D6FDFEF70DFA01F04C
:1064D000F9FD21480088401C00B21F4908800120B6
:1064E00000F027FCB0E62048B0F90000142807DAD5
:1064F0001D480088401C00B21B49088000207047DE
:106500000020194908800120F9E7000000F8FF4544
:1065100048070020000000003333333F8B6C673E98
:106520002C0100201C010020650100208C020020AD
:10653000660100206C010020000401406E01002073
:106540006801002064010020006ED1466001002037
:1065500080010020700100207C01002000000080EC
:10656000CDCC4C3D0000FA44840100209AB000BF1D
:1065700000F026FF199000BFFEF78BFD0D48008844
:10658000401C0C49088008460088B0F5FA7F0BDBF8
:1065900000200880684601F0D4F907A002F04AFA0A
:1065A000694610A002F046FA022119A800F05DFB2E
:1065B000E2E70000860100207461736B206E616D5C
:1065C000650909092072756E2074696D650920746A
:1065D000696D6574696D652070657263656E740DB3
:1065E0000A00000025730D0A0000000008B500BF76
:1065F00000F0E6FE009000BF0120FFF73CF84FF4EA
:106600007A71684600F031FBF6E700F1080141605D
:106610004FF0FF31816000F10801C160016100218C
:106620000160704700210161704742684A609368C9
:106630008B60936859609160086103685B1C03601C
:10664000704710B502460B685C1C0CB9106907E076
:1066500002F1080000E04068446824689C42FAD9CE
:1066600044684C604C68A160886041600A611468AD
:10667000641C146010BD01460A69D1E901309860BC
:10668000D1E9010358605068884201D188685060A0
:10669000002008611068401E1060106870470000FC
:1066A00010B5002407E004EB8401FC4A02EB8100F2
:1066B000FFF7ABFF641C202CF5D3F948FFF7A5FFCB
:1066C000F848FFF7A2FFF848FFF79FFFF748FFF7EA
:1066D0009CFFF748FFF799FFF148F6490860F14839
:1066E000F549086010BD10B5044601F0C4FCF3483C
:1066F0000068401CF1490860F148006840B9F04862
:1067000004600846006801280DD1FFF7C9FF0AE0C0
:10671000EC48006838B9EA480068C06AE16A884213
:1067200001D8E7480460E8480068401CE649086072
:1067300008460068606494F82C1001208840E34902
:1067400009680843E1490860E16A01EB8101D34A25
:1067500002EB8100211DFFF768FF01F0B3FCD9486F
:10676000006868B1D6480068C06AE16A884207D20A
:106770004FF08050D6490860BFF34F8FBFF36F8F43
:1067800010BD2DE9F05F82460E4617469B46DDF8A8
:1067900028800C9CB900A522206B01F06FFE781EAA
:1067A000216B01EB800929F0070909F0070008B9FE
:1067B000012000E0002050B900BF502080F3118874
:1067C000BFF34F8FBFF36F8F00BF00BFFEE7002501
:1067D00007E0715D04F134004155705D00B902E0DD
:1067E0006D1C102DF5D300BF002143200155B8F1D9
:1067F000200F01D34FF01F08C4F82C80201DFFF795
:1068000011FF04F11800FFF70DFF2461C8F120000B
:10681000A06164620020E064206584F854005A4658
:106820005146484601F062FB20600B9808B10B9876
:106830000460BDE8F09F2DE9FF4F85B08046894692
:106840001746DDE912ABB80001F019FD064656B156
:10685000582001F014FD04460CB1266304E03046D4
:1068600001F0A1FD00E000247CB10020CDE900ABE7
:10687000CDE902403A4649464046089BFFF781FF72
:106880002046FFF730FF012501E04FF0FF35284695
:1068900009B0BDE8F08F87490968096809B9012185
:1068A00000E0002121B14FF0FF318A4A116006E07B
:1068B00080490968C968C868864A4168116070479C
:1068C00010B50446206B01F06EFD204601F06BFD13
:1068D00010BD70B5054601F0CEFB15B978480068CB
:1068E00000E028460446201DFFF7C5FE78B9E06A9F
:1068F00000EB8000694951F8200040B994F82C1051
:106900000120884071490968814370480160A06A8C
:1069100018B104F11800FFF7AEFE6B480068401C88
:106920006949086066480068844209D1211D5F48B2
:10693000FFF77BFE68480068401C6749086009E073
:106940005E480068401E5D4908602046FFF7B8FFBA
:10695000FFF7A1FF01F0B6FB5A480068E8B15848BC
:106960000068844219D15D48006808B9012000E040
:10697000002050B900BF502080F31188BFF34F8F23
:10698000BFF36F8F00BF00BFFEE74FF0805050494C
:106990000860BFF34F8FBFF36F8F70BD2DE9F041DB
:1069A0004FF000084D480068002876D14C48006838
:1069B000451C4B48056015BB3E480068006808B997
:1069C000012000E0002050B900BF502080F3118862
:1069D000BFF34F8FBFF36F8F00BF00BFFEE7354897
:1069E00007683548006833490860334807603D4808
:1069F0000068401C3B490860FFF74DFF00BF354869
:106A0000006885423CD300BF2A480068006808B986
:106A1000012000E0002020B14FF0FF302D49086038
:106A20002DE024480068C068C4686668B54202D298
:106A30002848066023E0201DFFF71DFEA06A18B15C
:106A400004F11800FFF717FE94F82C10012088407D
:106A50001E49096808431D490860E16A01EB81018C
:106A60000E4A02EB8100211DFFF7DFFD1449E06AA9
:106A70000968C96A8842C7D34FF00108C4E700BF5C
:106A80000F480068C06A00EB8000044951F82000FC
:106A9000012801D94FF001082BE025E094080020DF
:106AA000140B0020280B00203C0B0020500B002072
:106AB000640B00208C010020900100209801002030
:106AC00088010020A4010020B4010020A0010020C2
:106AD00004ED00E0B801002094010020C001002076
:106AE0009C010020B0010020FE480068401CFD49C8
:106AF0000860FD48006808B14FF001084046BDE855
:106B0000F08170B500240026F848006850B900BF35
:106B1000502080F31188BFF34F8FBFF36F8F00BFFA
:106B200000BFFEE701F0A7FAF0480068401EEF49F9
:106B300008600846006800284FD1ED48006800282A
:106B40004BD024E0EB48C068C46804F11800FFF79C
:106B500092FD201DFFF78FFD94F82C100120884036
:106B6000E54909680843E4490860E16A01EB8101ED
:106B7000E24A02EB8100211DFFF757FDE049E06A80
:106B80000968C96A884202D30120D7490860D948F8
:106B9000006808B9012000E000200028D2D00CB124
:106BA000FFF779FECF48056865B100BFFFF7F6FE35
:106BB00010B10120CC4908606D1E002DF6D10020D7
:106BC000C8490860C848006838B101263007CD4977
:106BD0000860BFF34F8FBFF36F8F01F073FA304639
:106BE00070BD2DE9F04105460E46C7480768C44808
:106BF0000068001DFFF73FFD50B9C148006890F8DC
:106C00002C1001208840BC4909688143BA480160C2
:106C1000681C38B936B1BA480168091DBB48FFF78E
:106C200004FD1AE07C19B64800684460BC4207D2F3
:106C3000B3480168091DB6480068FFF702FD0CE083
:106C4000AF480168091DB3480068FFF7FAFCB24875
:106C50000068844201D2B0480460BDE8F081A348D6
:106C60000068401CA149086070472DE9F0470446C0
:106C70000F464FF0000954B900BF502080F311882F
:106C8000BFF34F8FBFF36F8F00BF00BFFEE70FB1A1
:106C9000012000E0002050B900BF502080F311888F
:106CA000BFF34F8FBFF36F8F00BF00BFFEE78F486A
:106CB000006808B9012000E0002050B900BF502052
:106CC00080F31188BFF34F8FBFF36F8F00BF00BFFA
:106CD000FEE7FFF7C4FF8C4806682068C5192068E6
:106CE000B04207D92068A8420BD9B54209D94FF064
:106CF000010906E02068A84201D8B54201D94FF049
:106D000001092560B9F1000F03D0A81B0021FFF78E
:106D100068FFFFF7F6FE8046B8F1000F07D14FF08D
:106D2000805078490860BFF34F8FBFF36F8FBDE885
:106D3000F08770B504460025D4B16C48006808B9E6
:106D4000012000E0002050B900BF502080F31188DE
:106D5000BFF34F8FBFF36F8F00BF00BFFEE7FFF79A
:106D60007EFF00212046FFF73CFFFFF7CAFE0546E5
:106D70003DB94FF0805063490860BFF34F8FBFF3B8
:106D80006F8F70BD2DE9F04107463E4656B900BFF2
:106D9000502080F31188BFF34F8FBFF36F8F00BF78
:106DA00000BFFEE756480068864201D100241EE07D
:106DB00001F061F9756901F085F95648006885426E
:106DC00003D053480068854201D102240FE04F48A8
:106DD000854205D1B06A08B9032408E0022406E020
:106DE0004E48854200D00DB9042400E0012420461D
:106DF000BDE8F08170B5044601F03DF914B9404892
:106E0000006800E020460646F56A01F05BF9284676
:106E100070BD2DE9F041054601F088F900BF502111
:106E2000EFF3118081F31188BFF34F8FBFF36F8FA2
:106E300000BF044615B93248006800E028460746FE
:106E4000FE6A00BF84F3118800BF3046BDE8F081C0
:106E50002DE9F04780460D464FF00009202D01D264
:106E6000012000E0002050B900BF502080F31188BD
:106E7000BFF34F8FBFF36F8F00BF00BFFEE7202D22
:106E800000D31F2501F0F7F8B8F1000F02D11C481C
:106E9000006800E040460446E66AAE4270D0B54263
:106EA0000BD91748006884420DD015480068C06AA5
:106EB000A84208D84FF0010905E011480068844253
:106EC00001D14FF00109E76AE562A06900F00040D6
:106ED00010B9C5F12000A06107EB8701074A02EB5A
:106EE00081011DE0A8010020AC010020C0010020AC
:106EF000980100203C0B0020A001002094080020F5
:106F00008801002004ED00E09C010020640B0020BB
:106F1000900100208C010020B8010020500B0020BF
:106F20006069884201D1012000E00020E0B1201D0D
:106F3000FFF7A1FB30B90120B840FB490968814344
:106F4000F948016094F82C1001208840F64909683E
:106F50000843F5490860E16A01EB8101F34A02EB5D
:106F60008100211DFFF761FBB9F1000F07D04FF041
:106F70008050EF490860BFF34F8FBFF36F8F00BFA2
:106F800001F0A0F8BDE8F087EA48006818B10120D8
:106F9000E94908604CE00020E7490860E7480068DC
:106FA000E749086008460068E649096888420BD945
:106FB000E549096801F14C00C96CE14A1268E14BEE
:106FC0001B68D21A11440160DD480068DD49086081
:106FD000D5480068B0FA80F0C0F11F0101EB8100D4
:106FE000D24A52F8200008B1012000E0002050B938
:106FF00000BF502080F31188BFF34F8FBFF36F8F16
:1070000000BF00BFFEE701EB8102C84B03EB82002B
:1070100042685268426000F108024368934202D11C
:107020004268526842604268D268C74B1A6000BF2B
:10703000704770B5054601F01EF815B9C2480068E2
:1070400000E028460446201DFFF715FB78B9E06AEA
:1070500000EB8000B54951F8200040B994F82C109D
:1070600001208840B04909688143AF480160A06AA7
:1070700018B104F11800FFF7FEFA211DB348FFF71D
:10708000D4FA01F01FF8B248006828B100F0F3FF0D
:10709000FFF701FC01F016F8AB480068844229D1E3
:1070A000AB480068D0B1A348006808B9012000E0EF
:1070B000002050B900BF502080F31188BFF34F8FDC
:1070C000BFF36F8F00BF00BFFEE74FF080509849BD
:1070D0000860BFF34F8FBFF36F8F0BE09B480068D2
:1070E0009C490968884203D100209749086001E063
:1070F000FFF74AFF70BD10B502460020114652B995
:1071000000BF502383F31188BFF34F8FBFF36F8FFE
:1071100000BF00BFFEE78D4C4B69A34201D10123A4
:1071200000E0002373B18C4C8B6AA34201D1012390
:1071300000E0002333B98B6A0BB9012300E0002380
:1071400003B1012010BD70B505462C4655B900BFEE
:10715000502080F31188BFF34F8FBFF36F8F00BFB4
:1071600000BFFEE774B37848006884422AD000F07C
:1071700082FF2046FFF7BFFF10B3201DFFF77BFA09
:1071800094F82C1001208840674909680843664933
:107190000860E16A01EB8101644A02EB8100211D74
:1071A000FFF743FA6849E06A0968C96A884207D369
:1071B0004FF080505E490860BFF34F8FBFF36F8F71
:1071C00000F080FF70BD2DE9F041064600273446EF
:1071D00056B900BF502080F31188BFF34F8FBFF323
:1071E0006F8F00BF00BFFEE700F0A0FF00BF50217F
:1071F000EFF3118081F31188BFF34F8FBFF36F8FCF
:1072000000BF05462046FFF776FF20B349480068D7
:10721000E0B94D49E06A0968C96A884200D301278C
:10722000201DFFF728FA94F82C10012088403E49D1
:10723000096808433C490860E16A01EB81013B4A67
:1072400002EB8100211DFFF7F0F904E004F11801C1
:107250004148FFF7EAF900BF85F3118800BF3846BF
:10726000BDE8F08170B523E0FFF7F9FC3B4800680A
:1072700008B9012000E000200546FFF742FCBDB937
:1072800000F0F9FE3548C068C468201DFFF7F3F927
:1072900030480068401E2F49086031480068401E91
:1072A0002F49086000F00EFF2046FFF709FB00BFE2
:1072B0002B4800680028D7D170BD00BFFFF7D2FF70
:1072C0001A4800680128F9D94FF080501849086021
:1072D000BFF34F8FBFF36F8FF0E71CB5214800213C
:1072E0000B468022CDE900101FA12148FFF7A3FA29
:1072F0000446012C42D100BF502080F31188BFF317
:107300004F8FBFF36F8F00BF4FF0FF3019490860F8
:1073100001200F49086000201749086000F0BEFDF9
:1073200000F004FE3BE00000A001002094080020D3
:1073300004ED00E0C0010020AC0100205800002056
:10734000C8010020C401002088010020640B002037
:10735000A4010020980100203C0B0020500B0020CD
:1073600094010020BC01002049444C45000000006D
:10737000BB720008B80100209C010020601C08B10D
:10738000012000E0002050B900BF502080F3118898
:10739000BFF34F8FBFF36F8F00BF00BFFEE71CBD71
:1073A00010B500BF502080F31188BFF34F8FBFF39B
:1073B0006F8F00BF0020FB49086000F047FE10BD42
:1073C000F9490868704770B500F0B0FE0025F6482E
:1073D0000468204670BDF54800687047014611B941
:1073E000F348006800E00846024652B900BF50204A
:1073F00080F31188BFF34F8FBFF36F8F00BF00BFC3
:10740000FEE702F1340070470246002101E0521C01
:10741000491C1078A528FAD0890888B270472DE950
:10742000F04107460C4690461E4617B9E0480068F2
:1074300000E038460546256005F134006060E86AE2
:107440002061286BE061686CA060207B032807D175
:10745000FFF705FCA86A08B102202073FFF751FB73
:1074600000206061E86CA061052E01D0267303E066
:107470003846FFF787FC2073B8F1000F04D0286B63
:10748000FFF7C2FF208401E000202084BDE8F081E6
:107490002DE9F04707460C4690460026206848B381
:1074A000204641684968416000F1080142688A420B
:1074B00002D14168496841604168D1F80C9000BF31
:1074C000204641684968416000F1080142688A42EB
:1074D00002D14168496841604168CD6806EBC60049
:1074E00007EB8001434601222846FFF798FF761CF0
:1074F0004D45E5D13046BDE8F0872DE9F041054620
:107500008846164600242027FFF7A9FBA7480068F5
:1075100080453AD300BF7F1E07EB8702A54B03EBE4
:10752000820104EBC40205EB82000122FFF7B0FFE9
:107530000444002FEFD104EBC40105EB81000222CB
:107540009D490968FFF7A4FF044404EBC40105EB5F
:107550008100022299490968FFF79AFF044404EB6D
:10756000C40105EB810004229549FFF791FF044413
:1075700004EBC40105EB810003229249FFF788FF69
:10758000044416B1904800683060FFF7BAFA20460C
:10759000BDE8F08170B504460D4654B900BF5020D7
:1075A00080F31188BFF34F8FBFF36F8F00BF00BF11
:1075B000FEE77F48016818312046FFF742F80121B5
:1075C0002846FFF70EFB70BD70B504460D46164603
:1075D00054B900BF502080F31188BFF34F8FBFF321
:1075E0006F8F00BF00BFFEE77848006808B1012038
:1075F00000E0002050B900BF502080F31188BFF395
:107600004F8FBFF36F8F00BF00BFFEE745F0004014
:107610006749096888616648016818312046FFF7A4
:1076200004F801213046FFF7DCFA70BD70B506465C
:10763000F068C46854B900BF502080F31188BFF3CC
:107640004F8FBFF36F8F00BF00BFFEE704F118003C
:10765000FFF711F85D480068A8B9201DFFF70BF887
:1076600094F82C100120884059490968084358496A
:107670000860E16A01EB81014E4A02EB8100211DA5
:10768000FEF7D3FF04E004F118015248FEF7CDFFE6
:107690004749E06A0968C96A884204D9012501207E
:1076A0004D49086000E00025284670BD2DE9F041F5
:1076B00005460F464548006808B1012000E000205B
:1076C00050B900BF502080F31188BFF34F8FBFF334
:1076D0006F8F00BF00BFFEE747F000402860EC68F6
:1076E00054B900BF502080F31188BFF34F8FBFF310
:1076F0006F8F00BF00BFFEE72846FEF7BCFF201DCE
:10770000FEF7B9FF94F82C10012088403049096831
:1077100008432F490860E16A01EB8101254A02EB29
:107720008100211DFEF781FF2149E06A0968C96ACD
:10773000884204D9012601202749086000E000267C
:107740003046BDE8F08150B900BF502181F3118867
:10775000BFF34F8FBFF36F8F00BF00BFFEE71F491E
:1077600009680160104909684160704770B50446B6
:107770000D4654B900BF502080F31188BFF34F8FDE
:10778000BFF36F8F00BF00BFFEE755B900BF5020A9
:1077900080F31188BFF34F8FBFF36F8F00BF00BF1F
:1077A000FEE71DE0A40100209C01002098010020BC
:1077B00088010020940800208C0100209001002006
:1077C000500B0020640B002058000020C001002056
:1077D000A00100203C0B0020AC010020B0010020E3
:1077E00000F049FCF74803682868401C08B90026E7
:1077F00019E0F54920680968884204D06068984219
:1078000001D801260FE06068181A2968884209D259
:1078100028686168591A401A28602046FFF793FFCC
:10782000002600E0012600F04DFC304670BD01202E
:10783000E64908607047014611B10A46906C00E0C5
:107840000020704708B102469164704770B5054644
:107850000E463146284600F02AFE284600F020FE5B
:10786000044602E020202855641C0F2CFAD3002087
:107870002855281970BD7FB5054600202870D448CA
:1078800000680390D249096801EBC101880000F04B
:10789000F6FC0446002C53D0002220460399FFF743
:1078A0002CFE03900020029043E0029800EBC00001
:1078B00004EB8000007B012806D0022806D00328B4
:1078C00006D0042808D105E0522607E0422605E04C
:1078D000532603E0442601E0002600BF00BF0298C3
:1078E00000EBC00004EB800041682846FFF7AEFFC4
:1078F0000546029800EBC00004EB80008068029906
:1079000001EBC10104EB8101098CCDE90010029863
:1079100000EBC00004EB80003246AEA103692846AC
:1079200001F098F8284600F0BBFD05440298401C81
:107930000290DDE902018842B7D3204600F033FD12
:107940007FBDFEB5054600202870A1480068029062
:107950009F49096801EBC101880000F090FC0446D2
:10796000002C48D06A4620460299FFF7C6FD0290D7
:1079700064210098B0FBF1F000900098002837D007
:107980000020019030E0019800EBC00004EB800083
:1079900080690099B0FBF1F6019800EBC00004EBA0
:1079A000800041682846FFF751FF05465EB1019807
:1079B00000EBC00004EB800033468AA182692846B0
:1079C00001F048F809E0019800EBC00004EB8000EA
:1079D00087A18269284601F03DF8284600F060FD45
:1079E00005440198401C0190DDE901018842CAD399
:1079F000204600F0D8FCFEBD8049096888697F49AF
:107A00000968C96AC1F120017C4A12689161704716
:107A100070B506460D4600F02EFB78480068006DF4
:107A200088B901207549096881F854005DB10121C8
:107A30002846FFF7D6F84FF0805071490860BFF331
:107A40004F8FBFF36F8F00F03DFB00F014FB6B48CE
:107A50000068046D4CB126B10020684909680865CA
:107A600003E0601E654909680865002063490968EC
:107A700081F8540000F026FB204670BD2DE9F0414E
:107A80000746884614461D4600F0F5FA5B48006834
:107A900090F85400022818D05849096801F15000A4
:107AA000096DB943016001205449096881F8540007
:107AB0005DB101212846FFF794F84FF080505049FE
:107AC0000860BFF34F8FBFF36F8F00F0FBFA00F039
:107AD000D2FA1CB149480068006D20604748006830
:107AE00090F85400012801D1002608E043490968B4
:107AF00001F15000096D21EA080101600126002012
:107B00003E49096881F8540000F0DCFA3046BDE8CF
:107B1000F0812DE9F04706460D46174698464FF08E
:107B2000010A56B900BF502080F31188BFF34F8F70
:107B3000BFF36F8F00BF00BFFEE7344600F09BFA33
:107B4000B8F1000F02D0206DC8F8000094F85490EE
:107B5000022084F85400052F17D2DFE807F0150340
:107B6000070B0D00206D284320650EE0206D401CA2
:107B700020650AE0256508E0B9F1020F01D025650E
:107B800001E04FF0000A00E000BF00BFB9F1010FB3
:107B900057D1201DFEF76FFD94F82C10012088406E
:107BA00018490968084317490860E16A01EB810137
:107BB000154A02EB8100211DFEF737FDA06A28BBA4
:107BC000012024E09C010020B0010020AC01002035
:107BD0009801002009256309257509257509257572
:107BE0000D0A00000925750909257525250D0A00CE
:107BF00009257509093C3125250D0A008801002059
:107C000004ED00E0A001002094080020002050B9FD
:107C100000BF502080F31188BFF34F8FBFF36F8FE9
:107C200000BF00BFFEE79649E06A0968C96A88425A
:107C300007D94FF0805093490860BFF34F8FBFF3CF
:107C40006F8F00F03FFA5046BDE8F0872DE9F84FFE
:107C500007460E4690469946DDF828B00120009070
:107C600057B900BF502080F31188BFF34F8FBFF387
:107C70006F8F00BF00BFFEE700F058FA3C4600BF20
:107C80005021EFF3118081F31188BFF34F8FBFF3C1
:107C90006F8F00BF0546B9F1000F02D0206DC9F803
:107CA000000094F854A0022084F85400B8F1050FA5
:107CB00017D2DFE808F01503070B0D00206D3043E5
:107CC00020650EE0206D401C20650AE0266508E076
:107CD000BAF1020F01D0266501E00020009000E01B
:107CE00000BF00BFBAF1010F3ED1A06A08B9012060
:107CF00000E0002050B900BF502080F31188BFF38E
:107D00004F8FBFF36F8F00BF00BFFEE75E48006874
:107D1000A8B9201DFEF7AFFC94F82C100120884074
:107D20005A490968084359490860E16A01EB810131
:107D3000574A02EB8100211DFEF777FC04E004F1B5
:107D400018015448FEF771FC4D49E06A0968C96A98
:107D5000884209D9BBF1000F03D00120CBF8000005
:107D600002E001204C49086000BF85F3118800BF84
:107D70000098BDE8F88F2DE9F04105460F4655B94A
:107D800000BF502080F31188BFF34F8FBFF36F8F78
:107D900000BF00BFFEE700F0C9F92C4600BF50212C
:107DA000EFF3118081F31188BFF34F8FBFF36F8F13
:107DB00000BF064694F85480022084F85400206DD9
:107DC000401C2065B8F1010F3BD1A06A08B9012021
:107DD00000E0002050B900BF502080F31188BFF3AD
:107DE0004F8FBFF36F8F00BF00BFFEE726480068CC
:107DF000A8B9201DFEF73FFC94F82C100120884004
:107E000022490968084321490860E16A01EB8101C0
:107E10001F4A02EB8100211DFEF707FC04E004F17C
:107E200018011C48FEF701FC1549E06A0968C96A97
:107E3000884206D917B10120386002E001201649B6
:107E4000086000BF86F3118800BFBDE8F08170B5FF
:107E5000054615B90A48006800E02846064600F0C5
:107E60000AF996F85400022804D1002086F854003C
:107E7000012400E0002400F025F9204670BD000038
:107E80008801002004ED00E0C0010020A0010020D6
:107E9000940800203C0B0020AC01002010B500210C
:107EA000024A11605160FCF7ABF810BDD001002010
:107EB000B9480068401C08B9012000E0002050B912
:107EC00000BF502080F31188BFF34F8FBFF36F8F37
:107ED00000BF00BFFEE700BF502080F31188BFF352
:107EE0004F8FBFF36F8F00BF00BFFEE7001F4FF043
:107EF00080730360001F21F001030360001FA74B84
:107F0000036014380260001F6FF002030360203822
:107F10007047A34800684FF47A71B0FBF1F0401E3F
:107F20004FF0E02148610720086170471CB59D486B
:107F300000689D49884201D0012000E0002050B92E
:107F400000BF502080F31188BFF34F8FBFF36F8FB6
:107F500000BF00BFFEE7934800689349491E88426E
:107F600001D0012000E0002050B900BF502080F374
:107F70001188BFF34F8FBFF36F8F00BF00BFFEE7C5
:107F80008A49084600780190FF200A46107008468A
:107F9000007800909DF8000000F0F0009DF80020AF
:107FA000904201D1012000E0002050B900BF5020D4
:107FB00080F31188BFF34F8FBFF36F8F00BF00BFF7
:107FC000FEE79DF8000000F05000794A107007208D
:107FD000784A106009E077480068401E754A1060D2
:107FE0009DF800004006000E00909DF8000000F093
:107FF00080008028EFD06F48006800026D4A106052
:108000001046008800F4E0601060684A0198107023
:1080100064482030006840F47000624920310860F4
:108020000846006840F070400860FFF772FF0020CB
:1080300059490860F8F7D2F85F48006840F04040BE
:108040005D490860F8F7BAF800201CBD5248006886
:10805000B0F57A7F01D1012000E0002050B900BFC7
:10806000502080F31188BFF34F8FBFF36F8F00BF95
:1080700000BFFEE7704700BF502080F31188BFF3B8
:108080004F8FBFF36F8F00BF43480068401C4249C9
:10809000086008460068012813D14248001D0068A6
:1080A000C0B208B9012000E0002050B900BF502044
:1080B00080F31188BFF34F8FBFF36F8F00BF00BFF6
:1080C000FEE770473448006850B900BF502080F385
:1080D0001188BFF34F8FBFF36F8F00BF00BFFEE764
:1080E0002D480068401E2C4908600846006820B9E9
:1080F000002080F3118800BF00BF704710B500BF9B
:10810000502080F31188BFF34F8FBFF36F8F00BFF4
:10811000FEF744FC20B14FF080502249091D086051
:1081200000BF002080F3118800BF10BD70B5F8F7C4
:108130008DF80446102C16D304F1E02090F8F0538B
:108140001B480078854201DB012000E0002050B987
:1081500000BF502080F31188BFF34F8FBFF36F8FA4
:1081600000BF00BFFEE70F480C30006800F4E0607D
:1081700010490968884201D8012000E0002050B968
:1081800000BF502080F31188BFF34F8FBFF36F8F74
:1081900000BF00BFFEE770BDD8010020B17E00081F
:1081A0000000002000ED00E071C20F4100E400E09B
:1081B000DC010020E001002034EF00E010B50146B2
:1081C0009F4800E0006803688B42FBD30246436887
:1081D00013448B4204D143684C68234443600146F6
:1081E0000A464B6813440468A34211D1954C0368B6
:1081F0002468A34208D04B680468646823444B6039
:1082000003681B680B6005E08E4B1B680B6001E088
:1082100003680B60884200D0016010BD30B54FF498
:108220002053894800F007042CB1C01D20F007003E
:10823000854C041B1B1B0246814C22600024804D90
:108240006C60D018083820F007007E4C20600024B5
:108250007C4D2D686C607B4D2D682C601146441A56
:108260004C60784C24680C60784D4C682C60784DDC
:108270004C682C604FF00044764D2C6030BD2DE9E9
:10828000F04104464FF00008FEF7E9FC6D48006835
:1082900008B9FFF7C3FF6F480068204000286BD182
:1082A000D4B1083404F00700B0B104F00700C0F105
:1082B0000800044404F0070008B9012000E0002091
:1082C00050B900BF502080F31188BFF34F8FBFF328
:1082D0006F8F00BF00BFFEE7002C4DD05C480068E8
:1082E000844249D8564E3046056801E02E462D6836
:1082F0006868A04202D228680028F7D15148006877
:10830000854239D0306800F1080828683060686814
:10831000001B102819D92F1907F0070008B90120F0
:1083200000E0002050B900BF502080F31188BFF357
:108330004F8FBFF36F8F00BF00BFFEE76868001B61
:1083400078606C603846FFF739FF41496868096812
:10835000081A3F490860084600683C490968884295
:1083600003D23B480068394908603A49686809689F
:108370000843686000202860FEF7C3FB08F0070090
:1083800008B9012000E0002050B900BF502080F360
:108390001188BFF34F8FBFF36F8F00BF00BFFEE7A1
:1083A0004046BDE8F08170B506463546002E3FD008
:1083B000083D2C46274960680968084008B101203B
:1083C00000E0002050B900BF502080F31188BFF3B7
:1083D0004F8FBFF36F8F00BF00BFFEE7206808B963
:1083E000012000E0002050B900BF502080F3118828
:1083F000BFF34F8FBFF36F8F00BF00BFFEE715497C
:1084000060680968084098B1206888B911496068B7
:10841000096888436060FEF722FC0D4960680968BE
:1084200008440B4908602046FFF7C8FEFEF769FBC9
:1084300070BD07480068704704480068704770477F
:10844000E4010020EC010020780B0020F401002062
:10845000F0010020F801002040EA01039B0703D04F
:1084600009E008C9121F08C0042AFAD203E011F873
:10847000013B00F8013B521EF9D27047D2B201E035
:1084800000F8012B491EFBD270470022F6E710B519
:1084900013460A4604461946FFF7F0FF204610BD72
:1084A000421C10F8011B0029FBD1801A70470346BB
:1084B00011F8012B00F8012B002AF9D1184670475A
:1084C0002DE9FE4F81EA030404F0004421F000414D
:1084D00000944FF0000B23F0004350EA01045ED0FB
:1084E00052EA03045BD0C3F30A54C1F30A552C4487
:1084F000A4F2F3340194A0FB0254C1F3130141F43C
:108500008011C3F3130343F4801301FB024400FB07
:10851000034E840A970A44EA815447EA8357A4FB2E
:10852000076802958D0A05FB07854FEA932C04FB2B
:108530000C542705029D4FEA065847EA1637B5EB5B
:1085400008056EEB070C870E920E47EA811742EA88
:108550008312A7FB0201B6EB0B0164EB00042B0DA9
:1085600043EA0C335E1844EB1C50DA465146E7FBF5
:108570000201C5F313044FEA0B3343EA14534FEAE5
:108580000432019C43EA0603A4F10C040294009C0B
:10859000CDE900B400F06DF803B0BDE8F08F002025
:1085A0000146F9E770B5C1F30A5201F00045002415
:1085B000C1F3130140F2FF3341F480119A4201DA12
:1085C000002070BD40F233439A42A2F2334203DCF2
:1085D000524200F02FF800E090402C43F1D040428E
:1085E00070BD00F0004230F000400AD0C10D01F52E
:1085F0006071C0F3160042EA0151C20840071143FE
:10860000704700200146704730B50B4601460020F8
:108610002022012409E021FA02F59D4205D303FA44
:1086200002F5491B04FA02F52844151EA2F10102C5
:10863000F1DC30BD202A04DB203A21FA02F00021CF
:10864000704721FA02F3D040C2F120029140084362
:108650001946704710B5141E73F1000408DA401C67
:1086600041F1000192185B411A4301D120F0010051
:1086700010BD2DE9F04D92469B4611B1B1FA81F241
:1086800002E0B0FA80F22032904600F069F9044628
:108690000F4640EA0A0041EA0B0153465A46084396
:1086A00013D0114653EA010019D0C8F140025046D8
:1086B000FFF7C0FF05460E4650465946424600F0B9
:1086C0004FF9084305D0012004E020463946BDE8B3
:1086D000F08D0020054346EAE0762C4337430A98A4
:1086E0006305E40AA0EB08000022FD0A44EA4754AF
:1086F0000A3002D500200146E9E701051019694159
:10870000DDE9084500196941BDE8F04DA2E72DE912
:10871000FE4F804681EA0300C00F0C46009021F016
:10872000004123F00045B8EB0200A94105D24046C4
:10873000214690461C460B46024623F0004010435B
:1087400047D0270DC7F30A00C3F30A510290401A1D
:10875000019040286BDAC3F3130040F4801B0098AB
:10876000924620B10023D2EB030A63EB0B0B019876
:108770005946C0F14002504600F0F2F806460D4658
:1087800050465946019A00F0FAF810EB0800614192
:10879000002487EA115284EAE7731A4340D0009A12
:1087A00062B3019A012A4FEA075215DC001B61EB04
:1087B00002014FF0004202EA0752CDE90042001CDC
:1087C00041F5801132462B46FFF753FF03B0BDE859
:1087D000F08F40462146F9E7001B61EB0201001CC7
:1087E00041F5801300185B412018A2F5001747EBF4
:1087F000030140EAD570B6196D4111E06D084FEAEA
:10880000360645EAC0754FEA0752001B61EB0201CC
:10881000001C41F5801149084FEA30000019514110
:1088200032462B4603B0BDE8F04FFFF713BF009868
:10883000012240000023D0EB020263EBE0730098BA
:1088400021464FEAE074B8EB000061EB0401E9E770
:1088500083F000435BE781F0004158E72DE9F04DDC
:1088600081EA030404F0004B21F0004514464FF068
:10887000000A23F0004150EA050220D054EA010228
:108880001DD0C5F30A570246C5F31303C1F3130005
:10889000C1F30A5640F4801543F48013A7EB060891
:1088A000101BD64608F2FD3873EB050002D308F121
:1088B000010801E092185B41B8F1000F03DA0020D3
:1088C0000146BDE8F08D00204FF480110646844635
:1088D0000EE0171B73EB050705D3121B63EB0503B3
:1088E00006434CEA010C49084FEA300092185B41FC
:1088F00050EA0107EDD152EA030012D082EA0400E7
:1089000083EA0501084305D0101BAB4106D20122C2
:10891000002306E000224FF0004302E06FF0010266
:1089200053101AEB06004CEB085110EB0A0041EB18
:108930000B01BDE8F04DFFF78DBE0000064C074D62
:1089400006E0E06840F0010394E80700984710341F
:10895000AC42F6D3F7F71CFCC8990008E899000868
:10896000202A04DB203A00FA02F1002070479140EF
:10897000C2F1200320FA03F3194390407047202AE4
:1089800006DBCB17203A41FA02F043EAE07306E037
:1089900041FA02F3D040C2F1200291400843194647
:1089A00070470EB5C10F80EAE0700844CA07002185
:1089B00040F233438DE80E000A460B46FFF759FE9E
:1089C00003B000BD0EB540F2334102910021CDE964
:1089D00000110A460B46FFF74CFE03B000BD70B510
:1089E0008C1810F8015B15F0070301D110F8013B5A
:1089F0002A1106D110F8012B03E010F8016B01F8E1
:108A0000016B5B1EF9D12B0705D40023521E0DD438
:108A100001F8013BFAE710F8013BCB1A921C03E086
:108A200013F8015B01F8015B521EF9D5A142D8D3BE
:108A3000002070BD0FB4054B10B503A9044A02987D
:108A400000F0C4FC10BC5DF814FB0000053A0008FF
:108A5000FC0100200FB4084B10B504A902AA03982A
:108A600000F0B4FC044602A9002000F08BFD204673
:108A700010BC5DF814FB00008595000803B4019854
:108A80004100009850EAC12018BF04204A0D18BFC9
:108A900040F0010040F2FF72B2EB515F08BF40F0BE
:108AA0000200012808BF052002B070470000000046
:108AB00010B52F499FED2C1B2DED020B84B00598AE
:108AC00020F000408842DCBF00209DED040B32DD29
:108AD0002849884209D1049840B94FF0010000F0BC
:108AE0006FFC00F03DFC06B010BD05DB9DED040BF6
:108AF00000F02AFC06B010BD68469DED040B00F0A6
:108B00003BF810F0030011D0012818D09DED021B96
:108B10009DED000B02281AD000F04AFA51EC100B20
:108B200081F0004106B041EC100B10BD9DED021B21
:108B30009DED000B012000F06FFB06B010BD9DED18
:108B4000021B9DED000B00F033FA06B010BD0120B2
:108B500000F062FB51EC100B81F0004106B041ECDB
:108B6000100B10BD0000000000000000000000001D
:108B7000FB21E93F0000F07F2DE9F14F04462DED88
:108B8000020B2DED088B8AB09FEDE70B80ED020BF9
:108B9000139EE74826F0004585420ADC9DED120B46
:108BA000002084ED000B0AB0BDEC088B03B0BDE8DB
:108BB000F08FE0489FEDE0AB9FEDE1BBA84247DDC1
:108BC000E14F9FEDE39B9FEDE48B9DED120B53EC8A
:108BD0001A2B51EC100B002E1CDDFFF739FE41EC77
:108BE000100BBD4208D053EC1B2B51EC100BFFF7C0
:108BF0002FFEC4E900010BE053EC192B51EC100BD4
:108C0000FFF726FE53EC182BFFF722FEC4E9000104
:108C10000120C8E7FFF77BFD41EC100BBD4208D0F7
:108C200053EC1B2B51EC100BFFF771FDC4E9000155
:108C30000BE053EC192B51EC100BFFF768FD53ECD4
:108C4000182BFFF764FDC4E900014FF0FF30AAE7DD
:108C5000C348A84279DB9DED120B51EC100B00F0DC
:108C600096FC41EC180B9FEDC00B53EC102BFFF75B
:108C700027FC9FEDBF1B53EC112BFFF748FDFFF7BF
:108C800091FC0746FFF78DFE41EC190B53EC1A2BB4
:108C9000FFF716FC53EC182BFFF7DDFD41EC180B2A
:108CA00053EC1B2B51EC190BFFF70AFCDFF8C8A2A1
:108CB00041EC100B4FEA15580125FA4453EC102BE8
:108CC00051EC180BFFF7C4FD032DC4E900013DD0A2
:108CD000C1F30A5005EB4511A8EB000011398142A0
:108CE00034DA0AEB051BB0EE48AA9BED000BF0EE60
:108CF00068AA53EC102B51EC190BFFF7E1FB41EC88
:108D00001B0B51EC1A0B53EC1B2BFFF7A1FD41EC95
:108D1000180B51EC1A0B53EC182BFFF799FD53EC81
:108D20001B2BFFF795FD9BED020B41EC1A0B53EC4F
:108D3000102B51EC190BFFF7C3FB53EC1A2BFFF769
:108D400087FD41EC100B6D1CB8E70EE0002EA8BFAC
:108D50003846BFF628AF94ED000B51EC100B81F0B4
:108D60000041C4E9000178421DE7C6F3130040F456
:108D7000801EC6F30A50A0F2F530471100F01F051F
:108D8000C5F12000DDF848B008900020069007905B
:108D90000520EC467949002D07EB0002794408BF15
:108DA00051F8221009D051F8223001EB8201AB407A
:108DB0004A68089922FA01F11943A1FB0E26A1FB8A
:108DC0000B131A449A4234BF0123002303EB060815
:108DD0000CEB8003D3E901A60E448E4234BF01217F
:108DE000002192448A4411B1924502D903E0924590
:108DF00001D2012100E00021C3E901A641444CF861
:108E00002010011EA0F10100C4DC029800F1005006
:108E1000850F0298DDE903678000DDF81480FFF715
:108E2000C0FD41EC1A0B3046FFF7CCFD9FED541B03
:108E300053EC112BFFF744FB41EC1B0B3846FFF7BB
:108E4000C1FD9FED511B53EC112BFFF739FB41EC9A
:108E5000180B4046FFF7B6FD9FED4D1B53EC112B51
:108E6000FFF72EFB41EC190B51EC180B53EC192BAF
:108E7000FFF74DFC53EC1B2BFFF749FC53EC1A2B6F
:108E8000FFF745FCCDE90801002008909DED080B97
:108E900053EC1A2B51EC100BFFF7DAFC53EC1B2BA5
:108EA000FFF7D6FC53EC182BFFF7D2FC53EC192B31
:108EB000FFF7D1FC9FED381B53EC112BFFF700FBA4
:108EC0009FED370B41EC180B53EC102B9DED080B6D
:108ED00051EC100BFFF7F4FA53EC182BFFF717FCCB
:108EE0009FED310B41EC180B53EC102B9DED080B53
:108EF00051EC100BFFF7E4FA53EC182BFFF707FCCB
:108F000041EC100B139810F0004F06D06D4251EC5D
:108F1000100B81F0004141EC100B284684ED000B52
:108F200041E600000000000000000000000000001A
:108F3000FB21E93F7CD9024000004054FB21F93F6E
:108F40003163621A61B4D03DFB21F93F000000009B
:108F50000000601A61B4D03D7370032E8A19A33BE0
:108F6000FB2139410000000083C8C96D305FE43F38
:108F7000000000000000E03F1A0C0000680B000039
:108F8000000000000000103E000000000000103C47
:108F9000000000000000103A182D4454FB21F93D58
:108FA0003326A611460B113C00000054FB21F93D6D
:108FB00010B52DED040B2DED088B82B0B0EE419A6B
:108FC000F0EE619A0B9820F000449FED4BABB4F1AA
:108FD000795F11DA9DED0A0B51EC100BFFF7E2FA05
:108FE000002801BFB0EE4A0AF0EE6A0A02B0BDECFA
:108FF000088B04BF04B010BD9DED0A0B53EC102B81
:1090000051EC100BFFF75CFA41EC180B3C480621C1
:10901000B0EE480AF0EE680A784400F081F853ECAC
:10902000182B51EC100BFFF74BFA9DED0A0B41EC9E
:109030001B0B53EC192B51EC100BFFF741FA41ECD1
:10904000190B53EC1B2B51EC180BFFF739FA53ECAF
:10905000192BFFF7FDFB9FED2C0B41EC190B53EC8B
:10906000102B51EC180BFFF72BFA41EC100B284892
:10907000844210DA53EC192B51EC100BFFF7E8FB8C
:1090800053EC1A2BFFF7E7FB41EC100B02B0BDECE1
:10909000088B04B010BD1F48A042BCBF9FED1E1B33
:1090A0008DED001B06DBA4F5001001900020009060
:1090B0009DED001B51EC100B53EC112BFFF7C8FB7F
:1090C0009DED000B41EC180B53EC102B51EC1A0BDF
:1090D000FFF7BEFB41EC1A0B53EC192B51EC180BAC
:1090E000FFF7B6FB53EC1A2BFFF7B5FB41EC100B67
:1090F000CCE7000000000000000000000000F03F8E
:109100008C08000000000000000000000000E03FAC
:109110003333D33F0000E93F000000000000D23F9E
:1091200070B504462DED028B4D1E00EBC500B0EE70
:10913000408AF0EE608A90ED000B35F0060017D003
:1091400053EC182B51EC100BFFF7BAF941EC100B54
:109150006D1E04EBC50090ED001B51EC100B53ECA1
:10916000112BFFF7D4FA41EC100B35F00600E7D1D4
:10917000022D36D0042D1CD0062D1CBFBDEC028B59
:1091800070BD53EC182B51EC100BFFF799F994EDCF
:109190000A1B53EC112BFFF7BAFA53EC182BFFF70D
:1091A0008FF994ED081B53EC112BFFF7B0FA41EC4B
:1091B000100B53EC182B51EC100BFFF781F994EDC9
:1091C000061B53EC112BFFF7A2FA53EC182BFFF7F9
:1091D00077F994ED040B53EC102BFFF798FA41EC60
:1091E000100B53EC182B51EC100BFFF769F994EDB1
:1091F000021B53EC112BFFF78AFA53EC182BFFF7E5
:109200005FF994ED001B53EC112BFFF780FABDECD6
:10921000028B41EC100B70BD31B504462DED040BF3
:109220002DED0A8BB0EE41BAF0EE61BA0B989DEDD0
:109230000A0B20F00040B0F1795F0DDA51EC100B11
:10924000FFF71CFC042808BF00F09AF89DED0A0BFC
:10925000BDEC0A8B05B030BD53EC102B51EC100B5C
:10926000FFF72EF941EC180B9DED0A0B53EC182B70
:1092700051EC100BFFF724F941EC190B2C48B0EE20
:10928000480AF0EE680A05217844FFF749FF9FED90
:109290002ACBB0EE40AAF0EE60AA9CB353EC1C2B94
:1092A00051EC190BFFF70CF941EC1C0B53EC1A2B8A
:1092B00051EC190BFFF704F99FED210B41EC190B51
:1092C00053EC102B51EC1B0BFFF7FAF853EC192B56
:1092D000FFF7BEFA53EC182BFFF7F2F853EC1B2BF9
:1092E000FFF7B6FA53EC1C2BFFF7B2FA9DED0A1B01
:1092F00053EC112BFFF7AFFABDEC0A8B05B041EC34
:10930000100B30BDFFE753EC1A2B51EC180BFFF795
:10931000D7F853EC1C2BFFF7FAF953EC192BFFF796
:10932000CFF89DED0A1B53EC112BFFF7F0F9E3E7A3
:109330001407000000000000495555555555C5BF9C
:10934000000000000000E03F10B553EC102B51EC82
:10935000100BFFF7DCF941EC100B10BD0000000012
:109360009FED050B10B553EC102B51EC100BFFF7D4
:1093700075FA41EC100B10BD000000000000000069
:109380009FED050B10B553EC102B51EC100BFFF7B4
:1093900097F841EC100B10BD000000000000001019
:1093A00002E008C8121F08C1002AFAD170477047AE
:1093B000002001E001C1121F002AFBD1704700000C
:1093C0000149086070470000000200202DE9FF4FAE
:1093D0008BB09A460F460546002606E025280BD09E
:1093E00052460D9990476D1C761C28780028F5D1BF
:1093F0000FB03046BDE8F08F0024A046012260493E
:1094000000E0044315F8013F203B02FA03F0084254
:10941000F7D128782E2817D115F8010F44F004044D
:109420002A280ED06FF02F022878A0F130010929E8
:109430000AD808EB880102EB410100EB01086D1C22
:10944000F2E757F8048B6D1C287869283ED006DCBB
:109450000028CDD063280BD0642804D136E07328CF
:1094600010D075284BD052460D999047761C85E058
:1094700017F8040B8DF8000000208DF80100E94674
:10948000012003E057F8049B4FF0FF3061074FF0D5
:10949000000401D40AE0641C44450DDA8442FADB7E
:1094A00019F804100029F6D106E0641C8442FCDBA4
:1094B00019F804100029F8D1264404E019F8010B2A
:1094C00052460D999047641EF8D257E001CF4FF0F5
:1094D0000A0B002802DA40422D2102E0210504D5C2
:1094E0002B218DF82410012103E0E10705D0202174
:1094F000F7E70DF1200908910CE00021F9E701CF11
:109500004FF00A0BF9E75946FFF77EF801F13002F8
:1095100009F8012D0028F6D1ADEB090000F1200B70
:10952000600701D44FF00108D84502DDA8EB0B001D
:1095300000E000208046002406E009A85246005DB5
:109540000D999047641C761C08988442F5DB04E072
:10955000302052460D999047761CB8F10001A8F1D1
:109560000108F5DC05E019F8010B52460D9990470A
:10957000761CBBF10001ABF1010BF4DC6D1C34E790
:10958000092801000A68531C0B601070704782B0F4
:10959000CDE9000121F0004001909DED000B02B0EB
:1095A00051EC100B70470000891112239B322446A6
:1095B000AD573665BF74488CC19D5AAFD3BE6CCAD7
:1095C000E5DB7EE9F7F88110080193331A22A556EE
:1095D0002C47B7753E64C99C408DDBBF52AEEDDAB7
:1095E00064CBFFF976E802218B30100299132667CD
:1095F000AF763444BD554AADC3BC588ED19F6EEB97
:10960000E7FA7CC8F5D983310A2091121803A777AD
:109610002E66B5543C45CBBD42ACD99E508FEFFB76
:1096200066EAFDD874C904428D5316619F70200408
:10963000A9153227BB364CCEC5DF5EEDD7FC688856
:10964000E1997AABF3BA85520C4397711E60A1146D
:109650002805B3373A26CDDE44CFDFFD56ECE99836
:109660006089FBBB72AA06638F7214409D5122254C
:10967000AB343006B9174EEFC7FE5CCCD5DD6AA916
:10968000E3B8788AF19B87730E6295501C41A3352D
:109690002A24B1163807CFFF46EEDDDC54CDEBB9F6
:1096A00062A8F99A708B088481951AA793B62CC288
:1096B000A5D33EE1B7F04008C919522BDB3A644EFE
:1096C000ED5F766DFF7C899400859BB712A6ADD2C5
:1096D00024C3BFF136E0C1184809D33B5A2AE55EDE
:1096E0006C4FF77D7E6C0AA583B4188691972EE3A4
:1096F000A7F23CC0B5D14229CB38500AD91B666FBE
:10970000EF7E744CFD5D8BB502A499961087AFF384
:1097100026E2BDD034C1C3394A28D11A580BE77F9D
:109720006E6EF55C7C4D0CC685D71EE597F42880DF
:10973000A1913AA3B3B2444ACD5B5669DF78600C7D
:10974000E91D722FFB3E8DD604C79FF516E4A99044
:109750002081BBB332A2C55A4C4BD7795E68E11C5D
:10976000680DF33F7A2E0EE787F61CC495D52AA123
:10977000A3B03882B193466BCF7A5448DD59622D3D
:10978000EB3C700EF91F8FF706E69DD414C5ABB104
:1097900022A0B9923083C77B4E6AD5585C49E33D1D
:1097A0006A2CF11E780FFF005EBCE2613FDD83C2D0
:1097B0009C7E20A3FD1F419DC3217FFCA2401E5F14
:1097C00001E3BD3E6082DC237D9FC1421CFEA0E11F
:1097D000BF5D0380DE3C62BEE0025CDF81633D7CF6
:1097E00022C09E1D43A1FF4618FAA427799BC58479
:1097F000DA3866E5BB5907DB856739BAE4065819DC
:1098000047A5FB7826C49A653BD987045AB8E6A7D2
:10981000F91B45C6987A24F8A6441A99C7257B3ABD
:109820006486D85B05E7B98CD2306EEDB3510F4E2C
:1098300010F2AC2F7193CD114FADF3702ECC92D3AB
:109840008D6F31B2EC0E50AFF1134DCE90722C6D86
:1098500033D18F0C52B0EE326C8ED0530DEFB1F08D
:10986000AE4C1291CF2D73CA947628ABF5174908E8
:1098700056B4EA6937D58B5709EBB536688AD49563
:10988000CB2977F4AA4816E9B7550B88D6346A2B4A
:109890007597C94A14F6A8742AC896154BA9F7B645
:1098A000E80A54D7896B35004C5555555555A53F99
:1098B0007751C1166CC156BF9015CB19A001FA3E65
:1098C000AD529C804F7E92BEC4B1B4BD9EEE213E8F
:1098D000D43888BEE9FAA8BD00004054FB21F93F06
:1098E0003163621A61B4D03D0000601A61B4D03DAA
:1098F0007370032E8A19A33B0000002E8A19A33B24
:10990000C14920259A837B39000000000000000037
:109910006E83F9A22915444ED15727FCC0DD34F5DA
:10992000999562DB4190433CAB6351FE61C5BBDE60
:109930003A6E24B7E0D24D42EA2E49061C92D10974
:109940001CEB1DFE3EA729B1F53582E88444BB2EF1
:1099500026709CE9417E5FB439D69139F43953833E
:109960008B5F849C3B28F9BDFF97F81F0F9805DE9D
:109970008B112FEF1F6D0A5ACF7E366DB709CB279B
:10998000663F464F2DEA5F9EC7BA27757BF1E5EB30
:10999000F739073DEA92528AB15FFB6B085D8D1F74
:1099A000A6F810111111813FD561C119A0012ABF7C
:1099B0007DFEB157E31DC73EEB9C2B8AE6E55ABE00
:1099C0007CD5CF5A3AD9E53DE8990008000000203F
:1099D00004020000DE8900082C9A0008040200201E
:1099E00074350000B093000811847A030A680901F5
:1099F000020304060708090CA910013C23FFFF32EB
:109A00000C32170976080114022B01292CA9300900
:109A1000123C92034BB8C104C1000966C843AA05B1
:0C9A2000AA05BC021AAA010128000000DF
:040000050800018965
:00000001FF
