:020000040800F2
:10000000600400203D0400081102000813020008EB
:10001000170200081B0200081F0200080000000071
:1000200000000000000000000000000023020008A3
:10003000250200080000000027020008290200082D
:100040005704000857040008570400085704000824
:100050005704000857040008570400085704000814
:1000600057040008B9250008570400085704000881
:1000700057040008570400085704000857040008F4
:1000800057040008570400085704000857040008E4
:1000900057040008570400085704000857040008D4
:1000A00057040008570400085704000857040008C4
:1000B0005704000861280008570400085704000886
:1000C00057040008570400085704000857040008A4
:1000D0005704000857040008570400085704000894
:1000E0005704000857040008570400085704000884
:1000F0005704000857040008570400085704000874
:100100005704000857040008570400085704000863
:100110005704000857040008570400085704000853
:100120005704000857040008C327000857040008B4
:100130005704000857040008570400085704000833
:100140005704000857040008570400085704000823
:100150005704000857040008570400085704000813
:100160005704000857040008570400085704000803
:1001700057040008570400085704000857040008F3
:100180005704000857040008DFF80CD002F0ECFC1C
:10019000004800479D010008600400204FF4A06063
:1001A00000F05EF902F020FA02F064F940F2473103
:1001B00040F2CF7002F02AFC40F2473140F2CF709B
:1001C00002F06FFC012002F081F90B4801780B4826
:1001D00001F075FB0A4801780A4801F06CFB09E060
:1001E00009480178054801F06AFB0848017805488C
:1001F00001F061FBF4E7000030000020000800403F
:1002000031000020000C00403600002037000020A4
:10021000704700BFFEE700BFFEE700BFFEE700BF7C
:10022000FEE7704770477047704700000CB500202C
:10023000019000907648006840F48030744908606E
:1002400000BF7348006800F4003000900198401C23
:100250000190009818B90198B0F5A04FF1D16C4801
:10026000006800F4003010B10120009001E000208F
:1002700000900098012846D165484030006840F061
:1002800080506349403108606248006840F4404053
:10029000604908605E48083000685D4908310860C0
:1002A0000846006840F4004008600846006840F4D2
:1002B000A05008605848091F0860081F006840F0F7
:1002C0008070091F086000BF5148006800F000708E
:1002D0000028F9D040F20570504908604C480830B9
:1002E000006820F003004A490831086008460068A9
:1002F00040F00200086000BF45480830006800F088
:100300000C000828F8D10CBD10B54548006840F431
:100310007000434908603E48006840F001003C49D5
:10032000086000203A4908310860394800683D49B2
:100330000840374908603C48091D0860081F0068EC
:1003400020F48020091F0860002031490C3108602A
:10035000FFF76CFF4FF0006031498039086010BD35
:1003600070B500200022022300240221284D083508
:100370002D6805F00C0020B1042806D0082834D1DF
:1003800007E02A4D2A4E356033E02A4D284E35606D
:100390002FE01F4D2D1D2D68C5F380541C4D2D1DC4
:1003A0002D6805F03F0154B1224DB5FBF1F5184E13
:1003B000361D3668C6F3881605FB06F209E01B4DAC
:1003C000B5FBF1F5124E361D3668C6F3881605FBEF
:1003D00006F20F4D2D1D2D68C5F301456D1C6B00F8
:1003E000B2FBF3F5124E356003E0104D104E356050
:1003F00000BF00BF064D08352D68C5F303150E4E2E
:10040000705D0B4D2D68C540094E356070BD000014
:10041000003802400070004008544007003C024091
:1004200088ED00E0FFFFF6FE103000240024F40009
:100430003800002000127A003C0000200648804767
:1004400006480047FEE7FEE7FEE7FEE7FEE7FEE7B9
:10045000FEE7FEE7FEE7FEE7090300088901000862
:1004600032490143324A1160704770B500210023C0
:100470000F22C4781CB32E4C246804F4E064C4F545
:10048000E064C4F30721C1F10404E3B20A414478F3
:100490009C40E1B28478144021430C07210E254C86
:1004A00005786155047804F01F050124AC400578F7
:1004B0006D11AD0005F1E025C5F8004109E00478B3
:1004C00004F01F050124AC401B4D0678761145F859
:1004D000264070BD194A0A400243154B1B1F1A6083
:1004E000704739B1124A121D12680243104B1B1D8E
:1004F0001A6006E00E4A121D126882430C4B1B1D47
:100500001A607047042808D14FF0E021096941F0D2
:1005100004014FF0E022116107E04FF0E02109698A
:1005200021F004014FF0E022116170470000FA054C
:100530000CED00E000E400E080E100E080FFFF1F40
:10054000016821F0010101600021016041608160CA
:10055000C160016121214161DB49884204D13D2113
:10056000D94A103A91608CE0D7491831884205D1B8
:100570004FF47461D44A103A916082E0D24930312C
:10058000884205D14FF47411CF4A103A916078E057
:10059000CD494831884205D14FF07461CA4A103ABA
:1005A00091606EE0C8496031884204D1C749C64AAB
:1005B000103AD16065E0C4497831884204D1C44919
:1005C000C14A103AD1605CE0BF499031884204D101
:1005D000C049BD4A103AD16053E0BB49A8318842B6
:1005E00005D14FF03D51B84A103AD16049E0BA49BF
:1005F000884204D13D21B84A083A116041E0B64929
:100600001831884205D14FF47461B34A083A116039
:1006100037E0B1493031884205D14FF47411AE4A08
:10062000083A11602DE0AC494831884205D14FF0BD
:100630007461A94A083A116023E0A74960318842F1
:1006400004D1A249A44A121F11601AE0A2497831CC
:10065000884204D19E49A04A121F116011E09E49B0
:100660009031884204D19B499B4A121F116008E0D7
:100670009949A831884204D14FF03D51964A121F42
:100680001160704710B500220268944B1A40CC6884
:100690000B6823434C6923438C692343CC69234370
:1006A0000C6A23434C6A23438C6A23434C6B2343D9
:1006B0008C6B23431A430260426922F00702D1E99E
:1006C0000B3423431A4342610B6943604B688360D8
:1006D0008B68C36010BD0021016041608160C16012
:1006E000016141618161C161016241628162C162F6
:1006F000016341638163704721B1026842F00102E6
:10070000026003E0026822F001020260704721B13A
:10071000026842F40042026003E0026822F40042F0
:100720000260704721B1026842F02002026003E0DB
:10073000026822F020020260704741607047014663
:10074000486880B2704722B1036843F40023036015
:1007500003E0036823F4002303600161704721B1C3
:10076000026842F48022026003E0026822F48022E0
:10077000026070470AB1016100E0C1607047014644
:1007800000200A6802F400220AB1012000E00020E3
:100790007047014600200A6802F001020AB10120F8
:1007A00000E000207047014600204A6902F038004E
:1007B000704730B503460A4600200024464DAB4240
:1007C00002D24149103901E04349103902F0005585
:1007D0000DB14C6800E00C68414D2C4004EA020564
:1007E0000DB1012000E0002030BD02463A4B9A4294
:1007F00002D23548103801E03748103801F0005374
:100800001BB1374B0B40C36002E0354B0B4083609C
:10081000704710B501F080034BB122B1436943F03A
:100820008003436103E0436923F08003436180292F
:100830000BD02AB1036801F01E042343036004E0D7
:10084000036801F01E04A343036010BD70B50246A7
:10085000002000240025204EB24202D21A4B103B49
:1008600001E01D4B103B1F4E0E4036B11E2606EA1E
:10087000D124166806EA040502E0566906F08005F0
:1008800001F000560EB15C6800E01C68144E344064
:1008900004EA010616B10DB1012000E0002070BD90
:1008A00002460D4B9A4202D20748103801E00A482E
:1008B000103801F000531BB1094B0B40C36002E03C
:1008C000074B0B4083607047106002403D000020E2
:1008D000400F002000003D20106402403F801CF0CB
:1008E0007D0F7D0F3C0F3C0F002041490860091D22
:1008F0000860091D0860091D08603E483C49143124
:100900000860704700213A498279002A3AD00A46A5
:10091000126803689A430B461A600A1D126803683E
:100920009A430B1D1A60027911440A6803681A433E
:100930000A602F4A0832126803689A432C4B083326
:100940001A601A1D126803689A43294B0C331A6007
:100950004279102A0ED11A1F126803681A43244BD9
:1009600008331A601A1D126803681A43204B0C33AF
:100970001A600DE01E49427911440A6803681A435F
:100980000A6005E0027911440A6803689A430A6024
:1009900070470021016001710C21417100218171BA
:1009A00070471349103109680143114A1032116030
:1009B0007047014600200E4A143212680A400AB1FC
:1009C000012000E000207047094914310860704799
:1009D00001460020064A143212680A400AB101207A
:1009E00000E00020704702491431086070470000A1
:1009F000003C0140FFFF7F0010B504469848844248
:100A000008D10121084600F086FB0021012000F0FA
:100A100082FB76E09348844208D10121022000F055
:100A20007AFB0021022000F076FB6AE08E488442C7
:100A300008D10121042000F06EFB0021042000F009
:100A40006AFB5EE08948844208D10121082000F059
:100A500062FB0021082000F05EFB52E084488442E3
:100A600008D10121102000F056FB0021102000F0D9
:100A700052FB46E07F48844208D10121202000F04B
:100A80004AFB0021202000F046FB3AE07A488442ED
:100A900008D10121402000F03EFB0021402000F061
:100AA0003AFB2EE07548844208D10121802000F0F5
:100AB00032FB0021802000F02EFB22E070488442AF
:100AC00008D10121801500F026FB0021A01500F0BF
:100AD00022FB16E06B48844208D10121401500F04A
:100AE0001AFB0021601500F016FB0AE066488442FC
:100AF00007D10121001500F00EFB0021201500F0A8
:100B00000AFB10BDF0B50A4600210023002400BFF7
:100B10003DE0012505FA01F3156805EA03049C424E
:100B200034D105684F000326BE40B54305601579F2
:100B30004E00B5400668354305601579012D02D099
:100B40001579022D16D185684F000326BE40B543A6
:100B5000856055794E00B5408668354385604568A7
:100B600001268E40B5434560456896798E40B6B201
:100B700035434560C5684F000326BE40B543C56098
:100B8000D5794E00B540C6683543C560491C10296B
:100B9000BFD3F0BD4FF6FF710160002101714171BB
:100BA0008171C171704708B54FF480320092009A8C
:100BB0000A430092009AC261C161009AC261C2698F
:100BC0000092C269009208BD0246002013690B40E2
:100BD0000BB1012000E0002070470146086980B297
:100BE00070470246002053690B400BB1012000E022
:100BF000002070470146486980B270470183704702
:100C0000418370470AB1018300E04183704741612D
:100C1000704742694A4042617047F0B500230024A2
:100C20004D07ED0E02FA05F3CE1000F1200555F840
:100C300026504E07F70E0F26BE40B543CF1000F1E9
:100C4000200646F82750CE1000F1200555F8265012
:100C500045EA0304CE1000F1200545F82640F0BD1A
:100C6000000002400004024000080240000C024064
:100C7000001002400014024000180240001C024014
:100C8000002002400024024000280240F948006889
:100C900040F00100F74908600020F649083108607B
:100CA000F4480068F4490840F2490860F348091D17
:100CB0000860F348EF4984310860F0481038091D96
:100CC0000860EC48006820F48020EA4908600020B1
:100CD000E8490C310860E7498C3108607047002111
:100CE000E44A921C117011460870704710B5014615
:100CF0000022002300204A11012A02D1DD4C236882
:100D000008E0022A03D1DB4C7034236802E0D94C9E
:100D10007434236801F01F02012494401C400CB17C
:100D2000012000E0002010BD38B500200090002414
:100D3000002500BF3120FFF7D9FF05460098401C71
:100D400000900098B0F5A04F01D0002DF2D03120D6
:100D5000FFF7CCFF08B1012400E00024204638BD95
:100D600001460020C34A106820F0F80040EAC100A4
:100D700010607047C349086070470021BD4A703257
:100D800011701170012802D004280AD104E0012159
:100D9000B84A7032117005E00521B64A7032117000
:100DA00000E000BF00BF7047B7490860704770B5EA
:100DB000049C41EA82150126C6EB530645EA064526
:100DC000054345EA0465AB4E361D356070BDAD493F
:100DD00008667047820142EA0172A64B84331A60AA
:100DE0007047A8498866704710B5830143EA0163DC
:100DF00043EA02739F4C8834236010BDA149086701
:100E00007047A049C864704702460020994B0833D8
:100E1000186820F0EC6042EA01031843954B083350
:100E20001860704702460020924B0833186820F083
:100E3000784042EA010318438E4B0833186070472C
:100E4000014600208B4A0832106820F00300084356
:100E50001060704787480830006800F00C00704749
:100E600001460020834A0832106820F0F000084351
:100E700010607047014600207E4A0832106820F456
:100E8000E05008431060704701460020794A08325C
:100E9000106820F4604040EAC10010607047F0B56F
:100EA000002100220024022500260223714F08376A
:100EB0003F6807F00C0121B1042905D0082937D17A
:100EC00005E0724F076036E0714F076033E0694F0D
:100ED0003F1D3F68C7F38056664F3F1D3F6807F0D0
:100EE0003F036EB16A4FB7FBF3F7DFF888C10CF12F
:100EF000040CDCF800C0CCF3881C07FB0CF40CE0FD
:100F0000624FB7FBF3F7DFF86CC10CF1040CDCF8AF
:100F100000C0CCF3881C07FB0CF4564F3F1D3F6804
:100F2000C7F301477F1C7D00B4FBF5F7076002E0C3
:100F3000564F076000BF00BF4E4F08373F6807F0AD
:100F4000F0010909534F7A5C0768D7404760494F61
:100F500008373F6807F4E051890A4E4F7A5C4768CA
:100F6000D7408760434F08373F6807F46041490B1B
:100F7000484F7A5C4768D740C760F0BD002100F455
:100F80004072B2F5407F0AD13A4A0832116821F422
:100F9000F811414A02401143364A08321160354A7D
:100FA00070321268C0F30B031A43324B70331A606D
:100FB0007047354944390860704733494039086003
:100FC000704736490860704701460020294A8C3234
:100FD000106820F01F004A1E1043264A8C32106011
:100FE000704701460020234A8C32106820F4F850E4
:100FF0004A1E40EA02201F4A8C32106070470146A8
:1010000000201C4A8C32106820F440100843106005
:10101000704701460020174A8C32106820F44000C7
:1010200008431060704701460020124A8C32106855
:1010300020F4403008431060704719490860704739
:1010400039B10C4A3032126802430A4B30331A600D
:1010500006E0084A303212688243064B30331A6089
:101060007047F9B1034A343212680243014B3433FA
:101070001A601CE000380240FFFFF6EA103000243E
:101080000030002000004742800E47420024F40058
:1010900000127A004C000020FFFCFF0F5C01474269
:1010A000E01147428F4A126882438E4B1A607047A4
:1010B00039B18C4A121D126802438A4B1B1D1A60FB
:1010C00006E0884A121D12688243864B1B1D1A6077
:1010D000704739B1834A0C3212680243814B0C339A
:1010E0001A6006E07F4A0C32126882437D4B0C3353
:1010F0001A60704739B17B4A103212680243794B4B
:1011000010331A6006E0774A103212688243754B3A
:1011100010331A60704739B1724A243A1268024398
:10112000704B243B1A6006E06E4A243A12688243F0
:101130006C4B243B1A60704739B16A4A203A1268F6
:101140000243684B203B1A6006E0664A203A126868
:101150008243644B203B1A60704739B1614A1C3AA4
:10116000126802435F4B1C3B1A6006E05D4A1C3A62
:10117000126882435B4B1C3B1A60704739B1594A75
:10118000143A12680243574B143B1A6006E0554A62
:10119000143A12688243534B143B1A60704739B1BA
:1011A000504A103A126802434E4B103B1A6006E058
:1011B0004C4A103A126882434A4B103B1A607047FF
:1011C00039B1484A1C3212680243464B1C331A603C
:1011D00006E0444A1C3212688243424B1C331A60B8
:1011E000704739B13F4A2032126802433D4B2033E9
:1011F0001A6006E03B4A203212688243394B2033A2
:101200001A60704739B1374A243212680243354BAD
:1012100024331A6006E0334A243212688243314B89
:1012200024331A60704739B12E4A2C3212680243B7
:101230002C4B2C331A6006E02A4A2C321268824367
:10124000284B2C331A60704739B1264A3032126865
:101250000243244B30331A6006E0224A30321268CF
:101260008243204B30331A607047012808D11D4952
:101270003C31096841F008011A4A3C32116007E02C
:1012800018493C31096821F00801164A3C321160C6
:10129000704739B1134A273A12780243114B273B62
:1012A0001A7006E00F4A273A127882430D4B273B0B
:1012B0001A7070470B484030006840F08070094950
:1012C00040310860704701460020064A283A1268FB
:1012D0000A400AB1012000E0002070470149263988
:1012E000087070473438024010B501218803FFF7B9
:1012F00056FF00214FF48040FFF751FF10BD1C49FD
:10130000086070471B490862704730B500228B07A0
:101310001C0F0F2303FA04F2154B08338C1053F8FB
:1013200024309343124C08348D1044F82530234662
:101330008C1053F824308C07240F00FA04F4234354
:101340000B4C08348D1044F8253030BD0949DC3190
:101350000860704708490860704700200449203140
:10136000096801F4807109B1012000E00020704794
:1013700000380140000027420004274210B504460F
:10138000FE48844208D101210846FFF708FF0021EA
:101390000120FFF704FF9DE0B4F1804F08D1012147
:1013A0000846FFF7EBFE00210120FFF7E7FE91E082
:1013B000F348844208D101210220FFF7DFFE00211B
:1013C0000220FFF7DBFE85E0EE48844208D10121D0
:1013D0000420FFF7D3FE00210420FFF7CFFE79E0C1
:1013E000E948844208D101210820FFF7C7FE002107
:1013F0000820FFF7C3FE6DE0E448844208D10121D4
:101400001020FFF7BBFE00211020FFF7B7FE61E0C0
:10141000DF48844208D101212020FFF7AFFE0021E0
:101420002020FFF7ABFE55E0DA48844208D10121C5
:101430000220FFF7B4FE00210220FFF7B0FE49E0D2
:10144000D548844209D101210804FFF7A8FE0021F4
:101450004FF48030FFF7A3FE3CE0D048844209D12E
:1014600001214804FFF79BFE00214FF40030FFF7F5
:1014700096FE2FE0CA48844209D101218804FFF773
:101480008EFE00214FF48020FFF789FE22E0C54840
:10149000844208D101214020FFF770FE0021402046
:1014A000FFF76CFE16E0C048844208D1012180207D
:1014B000FFF764FE00218020FFF760FE0AE0BB48D2
:1014C000844207D101218015FFF758FE0021A015A5
:1014D000FFF754FE10BD00220288A84B98420ED0A0
:1014E000AC4B98420BD0B0F1804F08D0A44B98423F
:1014F00005D0A44B984202D0A34B984204D14FF69A
:101500008F731A404B881A43A04B984207D0A04BC8
:10151000984204D04FF6FF431A400B891A430280C9
:101520004B68C3620B880385944B984202D0994B59
:10153000984201D18B7A03860123838270474FF052
:10154000FF3141600021018001814180817270473B
:101550000185828270470A46002101884FF68F7309
:10156000194011430180704741627047C162704762
:101570000146486A70470146088D704721B10288CC
:1015800042F00202028004E002884FF6FD731A4026
:101590000280704721B1028842F00402028004E018
:1015A00002884FF6FB731A400280704721B102880F
:1015B00042F08002028004E002884FF67F731A40F6
:1015C0000280704702884FF6F7731A400280028843
:1015D0000A430280704702884FF6FF431A40028098
:1015E00002880A430280704721B1028842F001025A
:1015F000028004E002884FF6FE731A4002807047B2
:1016000070B5002400220023058C4FF6FE7635408D
:101610000584028C8388048B4FF68F752C40B51E91
:101620002C400D882C43751E2A408D892A434D88F5
:101630002A43524DA84202D0564DA84213D14FF62C
:10164000F7752A40CD892A434FF6FB752A408D88CD
:101650002A434FF6FF652B404FF6FF552B400D8A6E
:101660002B434D8A2B43838004838D68456302841A
:1016700070BD70B5002400220023058C4FF6EF7674
:1016800035400584028C8388048B48F6FF752C4016
:101690004FF6FF452C400D884FF6FF7606EA0525EC
:1016A0002C434FF6DF752A408D8906EA05152A433B
:1016B0004D8806EA05152A43304DA84202D0354D23
:1016C000A8421DD14FF67F752A40CD894FF6FF768F
:1016D00006EA05152A434FF6BF752A408D8806EAAB
:1016E00005152A434FF6FF352B404FF2FF752B406F
:1016F0000D8A06EA85052B434D8A06EA85052B43AC
:10170000838004838D688563028470BD70B5002476
:1017100000220023058C4FF6FF6635400584028CBD
:101720008388848B4FF68F752C404FF6FC752C40C8
:101730000D882C434FF6FF552A408D894FF6FF76D2
:1017400006EA05252A434D8806EA05252A430B4D5E
:10175000A84202D00F4DA84238D14FF2FF752A405F
:10176000CD894FF6FF7606EA05252A434FF6FF3569
:101770002A408D8806EA05252A4319E00000014029
:101780000004004000080040000C00400010004031
:1017900000140040000401400040014000440140AA
:1017A0000048014000180040001C0040002000409C
:1017B0004EF6FF752B404DF6FF752B400D8A06EA5D
:1017C00005152B434D8A06EA05152B438380848338
:1017D0008D68C563028470BD70B5002200230024AB
:1017E000058C4EF6FF7635400584038C8488828B09
:1017F00048F6FF752A404FF6FF452A400D884FF600
:10180000FF7606EA05252A434DF6FF752B408D89A4
:1018100006EA05352B434D8806EA05352B43FE4D78
:10182000A84202D0FD4DA84208D14BF6FF752C40CE
:101830000D8A4FF6FF7606EA85152C438480828355
:101840008D680564038470BD002101804180818022
:1018500081608181C18101824182704770B50346F8
:10186000002000241846183001258D40ACB21D8C94
:10187000A5431D8409B108290AD100EB6100056860
:101880004FF68F76354005600568154305600FE01B
:101890000D1FC5F34E052844056848F6FF76354010
:1018A000056005684FF6FF7606EA022635430560B7
:1018B00070BD4163704781637047C16370470164C5
:1018C00070470A460021018B4FF68F731940114370
:1018D000018370470A460021018B48F6FF731940C7
:1018E0004FF6FF7303EA02231943018370470A4648
:1018F0000021818B4FF68F7319401143818370470C
:101900000A460021818B48F6FF7319404FF6FF739A
:1019100003EA02231943818370470A460021018BA1
:101920004FF6F77319401143018370470A460021AF
:10193000018B4FF2FF7319404FF6FF7303EA022346
:101940001943018370470A460021818B4FF6F773D4
:1019500019401143818370470A460021818B4FF261
:10196000FF7319404FF6FF7303EA02231943818383
:1019700070470A460021018B4FF6FB731940114353
:10198000018370470A460021018B4FF6FF3319404F
:101990004FF6FF7303EA02231943018370470A4697
:1019A0000021818B4FF6FB731940114381837047EF
:1019B0000A460021818B4FF6FF3319404FF6FF7323
:1019C00003EA02231943818370470A460021018BF1
:1019D0004FF67F7319401143018370470A46002177
:1019E000018BC1F30E014FF6FF7303EA0223194383
:1019F000018370470A460021818B4FF67F7319409F
:101A00001143818370470A460021818BC1F30E0187
:101A10004FF6FF7303EA02231943818370470A4696
:101A20000021018C4FF6FD7319401143018470476A
:101A30000A460021018C4FF6F773194011430184C7
:101A400070470A460021018C4FF6DF7319404FF6AC
:101A5000FF7303EA02131943018470470A46002109
:101A6000018C4FF67F7319404FF6FF7303EA0213A0
:101A70001943018470470A460021018C4FF6FF5339
:101A800019404FF6FF7303EA02231943018470479C
:101A90000A460021018C4FF2FF7319404FF6FF7385
:101AA00003EA02231943018470470A460021018C8E
:101AB0004DF6FF7319404FF6FF7303EA02331943E3
:101AC0000184704730B5002301248C40A3B2048CFC
:101AD0009C430484048C02FA01F5ADB22C430484C7
:101AE00030BD30B5002304248C40A3B2048C9C4349
:101AF0000484048C02FA01F5ADB22C43048430BD99
:101B0000828B4FF2FF331A408283828B4FF6FF7332
:101B100003EA01231A4382837047F0B50C46154649
:101B2000002100220026078C4EF6FF7C07EA0C07F6
:101B30000784818B028C4FF6FF7707EA043640F664
:101B4000FF4739404FF6FF7707EA052739434FF63D
:101B5000FF7707EA0337394345F6FF773A4046F403
:101B600080573A4381830284F0BD828B4FF6F37332
:101B70001A408283828B0A4382837047F0B50C46F9
:101B80001546002100220026078C4FF6FF6C07EA5D
:101B90000C070784818B028C4FF6FF7707EA042637
:101BA0004FF60C7739404FF6FF7707EA03172F43BC
:101BB00039434FF2FF573A4046F480773A438183E6
:101BC0000284F0BD028B4FF2FF331A400283028B76
:101BD0004FF6FF7303EA01231A4302837047F0B5FF
:101BE0000C461546002100220026078C4FF6EF7C9C
:101BF00007EA0C070784018B028C4FF6FF7707EA90
:101C0000041640F6FF4739404FF6FF7707EA0337DF
:101C100039434FF6FF7703E0000001400004014024
:101C200007EA052739434FF65F773A4046F0100739
:101C30003A4301830284F0BD028B4FF6F3731A40DE
:101C40000283028B0A4302837047F0B50C461546A7
:101C500000210022068C4FF6FE773E400684018B61
:101C6000028C4FF60C7631407E1C06EA03162E439A
:101C700031434FF6F576324044F00106324301839A
:101C80000284F0BD70B505460C46208850B9238902
:101C9000A28861882846FFF7D8FFE1882846FFF729
:101CA000CBFF25E0208804280AD12389A2886188F7
:101CB0002846FFF794FFE1882846FFF783FF17E0E7
:101CC000208808280AD12389A28861882846FFF73E
:101CD00055FFE1882846FFF748FF09E02389A288DD
:101CE00061882846FFF719FFE1882846FFF708FFBB
:101CF00070BD002101804180012181800021C180CF
:101D0000018170472DE9F04105460C460026012768
:101D1000608808B9022600E00026A088012801D1C9
:101D2000022700E001272088A0B92389A2886188C2
:101D30002846FFF78AFFE1882846FFF77DFF2389C1
:101D40003A4631462846FFF74AFFE1882846FFF722
:101D500039FF13E02389A28861882846FFF73FFFF7
:101D6000E1882846FFF72EFF23893A463146284668
:101D7000FFF76BFFE1882846FFF75EFFBDE8F081C3
:101D80000146486B70470146886B70470146C86B37
:101D900070470146086C70470A884B881A438B8845
:101DA0001A43CB881A430B891A434B891A438B89F0
:101DB0001A43A0F8442070470021018041808180AF
:101DC000C180018141818181704731B1B0F84420E7
:101DD00042F40042A0F8442005E0B0F84420C2F3E9
:101DE0000E02A0F84420704721B1828842F004021C
:101DF000828004E082884FF6FB731A40828070472D
:101E000021B1828842F00102828004E082884FF68C
:101E1000FE731A40828070471AB183890B43838115
:101E200002E083898B438381704781827047024639
:101E30000020138A0B400BB1012000E00020704706
:101E4000CA430282704730B50246002000230024B6
:101E5000158A05EA0103958905EA010413B10CB15D
:101E6000012000E0002030BDCA430282704741EAF1
:101E70000203A0F8483070471AB183890B4383816D
:101E800002E083898B438381704721B1828842F0CD
:101E90000802828004E082884FF6F7731A4082803D
:101EA000704701894FF6F8721140018170470A4668
:101EB000002101894FF68F7319401143018170474A
:101EC00030B504460D4629462046FFF7F0FF20892D
:101ED00040F00700208130BD2DE9F04104460D4659
:101EE00016461F46602D06D13B460122314620464C
:101EF000FFF775FE05E03B46012231462046FFF71D
:101F0000A4FE29462046FFF7D2FF208940F00700B3
:101F10002081BDE8F08130B50C4600210189C9B2AD
:101F20004FF6FF7505EA0325154325432943018133
:101F300030BD2DE9F04105460E461746984600246F
:101F400043463A4631462846FFF7E5FF2C894FF6CF
:101F5000F870044044F007044FF68F70044044F0DA
:101F600070042C81BDE8F081F0B504460D4616469C
:101F70001F463B46324629462046FFF7CCFF2089C4
:101F800040F480402081F0BD82884FF68F731A4064
:101F9000828082880A438280704702894FF6F873F4
:101FA0001A40028102890A430281704702894FF672
:101FB0007F731A40028102890A4302817047F0B59B
:101FC0000C4615461E460021002200230189028B83
:101FD000038C4FF6F877394021434FF6FC473A40DF
:101FE00040F201173A434FF6DD773B404FF6FF775B
:101FF00007EA06172F433B43018102830384F0BDA8
:1020000021B1828842F08002828004E082884FF60B
:102010007F731A4082807047A0F85010704700000C
:1020200010B50446FA48844208D101211020FFF778
:10203000B6F800211020FFF7B2F857E0F5488442C7
:1020400009D101214804FFF799F800214FF400302D
:10205000FFF794F84AE0F048844209D1012188044E
:10206000FFF78CF800214FF48020FFF787F83DE060
:10207000EA48844209D10121C804FFF77FF8002112
:102080004FF40020FFF77AF830E0E548844209D1A8
:1020900001210805FFF772F800214FF48010FFF7C7
:1020A0006DF823E0DF48844208D101212020FFF7AA
:1020B00076F800212020FFF772F817E0DA48844212
:1020C00009D101218807FFF759F800214FF080401E
:1020D000FFF754F80AE0D548844207D101214005B2
:1020E000FFF74CF800216005FFF748F810BD2DE917
:1020F000FF4705460E460024A14600BFA046B08912
:1021000000B100BF2C8A24F44054F08804432C8290
:10211000AC8941F20C608443B088318908437189ED
:1021200008430443AC81AC8A24F44074B08904436E
:10213000AC826846FEF7B3FEB548854202D0B94886
:10214000854202D1DDF80C9001E0DDF80890A88905
:1021500000F4004040B109EBC90000EB0910316800
:102160004900B0FBF1F707E009EBC90000EB0910EB
:1021700031688900B0FBF1F76420B7FBF0F004018F
:102180002009642101FB1078A88900F4004040B1C7
:10219000322000EBC800B0FBF1F000F00700044370
:1021A00008E0322000EB08106421B0FBF1F000F0F1
:1021B0000F0004432C81BDE8FF874FF416510160E6
:1021C00000218180C18001810C2141810021818118
:1021D000704710B502460020108A20F470600B880A
:1021E0004C8823438C882343CC8823431843108294
:1021F00010BD0021018041808180C180704721B1E4
:10220000828942F40052828104E082894DF6FF7394
:102210001A4082817047028B02F47F420283028B54
:102220000A430283704721B1828942F400428281CD
:1022300003E08289C2F30E028281704721B1828A53
:1022400042F40062828204E0828A4FF2FF731A40F5
:1022500082827047C1F308028280704701468888F5
:10226000C0F308007047028A4FF6F0731A400282EA
:10227000028A0A430282704721B1828942F0020237
:10228000828104E082894FF6FD731A408281704793
:1022900082894FF2FF731A40828182890A438281C8
:1022A0007047028A4FF6DF731A400282028A0A439D
:1022B0000282704721B1028A42F48042028204E025
:1022C000028A4BF6FF731A4002827047818941F0FF
:1022D00001018181704721B1828A42F00802828225
:1022E00004E0828A4FF6F7731A4082827047028BAD
:1022F000D2B20283028B42EA01220283704721B1EB
:10230000828A42F02002828204E0828A4FF6DF73E2
:102310001A408282704721B1828A42F01002828282
:1023200004E0828A4FF6EF731A4082827047828AF5
:102330004FF6FB731A408282828A0A438282704778
:1023400021B1828A42F00202828204E0828A4FF640
:10235000FD731A40828270471AB1838A0B438382CD
:1023600002E0838A8B4383827047F0B503460024E2
:1023700000260025002040F66A17B94200D100BFB0
:102380001846C1F3421401F01F06012707FA06F5AB
:10239000012C01D10C3004E0022C01D1103000E0FE
:1023A00014301AB107682F43076002E00768AF4393
:1023B0000760F0BD02460020B1F5007F00D100BFEC
:1023C00013880B400BB1012000E00020704701F49E
:1023D0000072B2F5007F00D100BFCA43028070478F
:1023E00070B50246002400230025002040F66A163E
:1023F000B14200D100BFC1F3421501F01F03012615
:1024000006FA03F3012D13D19689334017E000003B
:10241000001001400044004000480040004C0040D3
:10242000005000400014014000780040007C004053
:10243000022D02D1168A334001E0968A33400C12F5
:10244000012606FA04F41688344013B10CB10120B9
:1024500000E0002070BD10B50022002340F66A1491
:10246000A14200D100BF0A1201249440A3B2DC4370
:10247000048010BD1CB501210846FEF7E1FD402097
:10248000009001208DF8040000208DF80600032044
:102490008DF8050069462548FEF734FB40212348A6
:1024A000FEF7ACFB8020009001208DF80400002096
:1024B0008DF8060003208DF8050069461B48FEF7DD
:1024C00021FB80211948FEF799FB1CBD70B506461B
:1024D000012E02D1154C402503E0022E01D1134CF0
:1024E000802529462046FEF78BFB70BD70B5064659
:1024F000012E02D10D4C402503E0022E01D10B4CE0
:10250000802529462046FEF779FB70BD70B506464A
:10251000012E02D1054C402503E0022E01D1034CCF
:10252000802529462046FEF774FB70BD000002405E
:102530001CB501211020FEF783FD0820009000202B
:102540008DF8040003208DF8050000208DF80700A9
:1025500069462348FEF7D6FA1CBD08B54FF4C060A3
:10256000FDF77EFF09208DF8000001208DF80100A5
:102570008DF802008DF803006846FDF776FF08BD70
:102580001CB5FFF7D5FFFFF7E8FF01218803FEF731
:10259000B1FD03210420FEF7B8FE082000900020C2
:1025A0008DF804000C208DF8050001208DF8060040
:1025B0006846FEF7A7F91CBD10B50820FEF708FA1B
:1025C00068B108480078401C064908700846007841
:1025D000052801DB012008700820FEF704FA10BD71
:1025E000001002400000002010B56FF00400FDF75D
:1025F00089FF4FF0E020006940F001004FF0E0213A
:1026000008611420486110BD4FF0E021096941F0D4
:1026100001014FF0E022116107E000BF4FF0E0211F
:10262000096901F480310029F8D00100A0F101000E
:10263000F3D14FF0E021096921F001014FF0E022D0
:10264000116170474FF47A7148434FF0E0210969F6
:1026500041F001014FF0E022116107E000BF4FF0AF
:10266000E021096901F480310029F8D00100A0F1CE
:102670000100F3D14FF0E021096921F001014FF091
:10268000E02211617047000000B587B001210846C3
:10269000FEF7D6FC01211020FEF72CFD07220A21AF
:1026A0005448FEF7BAFA072209215248FEF7B5FA54
:1026B0004FF48060019002208DF8080000208DF812
:1026C0000A0003208DF8090001208DF80B0001A9F4
:1026D0004848FEF717FA4FF40070019002208DF879
:1026E000080000208DF80A0003208DF80900012061
:1026F0008DF80B0001A93F48FEF704FA4FF4E130D2
:1027000003900020ADF81000ADF81200ADF81400F1
:102710000C20ADF816000020ADF8180003A93648CB
:10272000FFF7E5FC01213448FFF769FD0122402154
:102730003148FFF711FE07B000BD00B591B001218F
:102740008805FEF77DFC2D48FDF7FAFE4FF000608E
:1027500002902948001D039029480490002005900C
:1027600004200690002007904FF48060089000201D
:1027700009900A900B904FF400300C9000200D90BF
:1027800001200E9000200F90109002A91B48FDF729
:1027900079FF01221B491948FEF73BF83A208DF8D2
:1027A000040001208DF805008DF806008DF8070063
:1027B00001A8FDF75AFE01211048FDF79DFF11B059
:1027C00000BD10B50F490D48FEF740F830B10C4878
:1027D00000F0B8F90B490948FEF707F810BD00BF33
:1027E000054A128802F04002002AF9D0C2B2024B18
:1027F0009A8070470000024000100140406402408F
:1028000032000020008020107FB504460D460121D3
:102810000220FEF75EFCADF804500020ADF8060083
:102820000294ADF80C0001A96348FEF754FE0122A2
:1028300011466148FFF7F0FA01215F48FEF7D4FE28
:102840001D208DF8000001208DF8010003208DF877
:10285000020001208DF803006846FDF706FE7FBDEB
:1028600010B501215448FFF7EEFA01287ED102206D
:10287000FFF74CFE514800F065F99FED510A5148B1
:1028800080ED000A9FED500A504880ED000A482074
:102890004F49088058204F4908804F4800884C49CC
:1028A0000988401A4D4908804D48008849490988DF
:1028B000401A4C4908804948008800EE100AB8EEDA
:1028C000400A4048D0ED000A20EE200A4348008824
:1028D00045490988401A00EE900AF8EEE00A3B48A4
:1028E00090ED001A00EE810ADFED400A30EE200A7A
:1028F000BCEEC00A3E4880ED000A3A48008800EE6F
:10290000100AB8EE400A2F48D0ED000A20EE200A47
:102910003448008837490988401A00EE900AF8EEDA
:10292000E00A2A4890ED001A00EE810ADFED2F0A36
:1029300030EE200ABCEEC00A2F4880ED000A006885
:10294000FA2802D9FA202C4908602B48006832285E
:1029500002D232202849086025480068FA2802D9A6
:10296000FA20234908602248006800E01EE032286F
:1029700002D232201E49086020480088164908808B
:102980001F480088164908801448008816490880A6
:102990001448008817490880154801681948FEF74F
:1029A0008EFF154801681848FEF785FF012102488F
:1029B000FFF75AFA10BD000000040040320000206A
:1029C0009A99594004000020CDCCA1420C0000206F
:1029D0001C0000201E000020140000202000002009
:1029E00016000020220000202400002000001643D2
:1029F00028000020260000202C00002018000020C5
:102A00001A00002000080040000C004030B58BB0D8
:102A100004460D4601210420FEF75BFB0121022044
:102A2000FEF70EFB022209214248FEF7F6F84FF4AA
:102A30000070099002208DF8280003208DF82900ED
:102A400000208DF82A008DF82B0009A93948FEF7DF
:102A500059F8A8B2ADF8180007940020ADF81A0094
:102A6000ADF8200006A93448FEF735FD6020ADF82A
:102A700004000120ADF806000020ADF8100001A907
:102A80002D48FEF7A9FE08212B48FEF765FF01211E
:102A90002948FEF78BFD01212748FEF7A5FD0BB065
:102AA00030BD30B58BB004460D4601210820FEF73D
:102AB00010FB01210846FEF7C3FA022201211F483C
:102AC000FEF7ABF8022009908DF8280003208DF85E
:102AD000290000208DF82A008DF82B0009A917483D
:102AE000FEF710F8A8B2ADF8180007940020ADF872
:102AF0001A00ADF8200006A91148FEF7ECFC602092
:102B0000ADF804000120ADF806000020ADF810007B
:102B100001A90B48FEF7ADFD08210948FEF706FFA5
:102B200001210748FEF742FD01210548FEF75CFD43
:102B30000BB030BD0004024000080040000002401D
:102B4000000C00404178027841EA0221044A1180D9
:102B5000C178827841EA0221024A11807047000060
:102B60001400002016000020064C074D06E0E06827
:102B700040F0010394E8070098471034AC42F6D3C4
:102B8000FDF706FBAC2B0008CC2B000802E008C8C0
:102B9000121F08C1002AFAD170477047002001E0D7
:102BA00001C1121F002AFBD170470000CC2B000886
:102BB000000000205C0000008C2B0008282C00087E
:102BC0005C000020040400009C2B000801000000B1
:102BD00000000000000000000000000000000000F5
:102BE00000000000000000000000000000000000E5
:102BF00000000000000000000000000096960000A9
:102C000000009696007A030A000000000000000011
:102C10000102030406070809000000000102030482
:082C2000010203040607080984
:040000050800018965
:00000001FF
